:1040000000100020BD500000899500008D95000033
:104010008DE8020091950000999500008DE802005E
:104020008DE802008DE802008DE802008DE80200B4
:104030009D95000084AB03008DE802008DE802002E
:104040008DE802008DE802008DE802008D55000029
:104050008DE802008DE802008DE802008DE8020084
:104060008DE802008DE8020015A90000DD4E000079
:1040700077E302008DE802008DE802008DE802007F
:104080008DE802008DE802008DE802008DE8020054
:104090008DE802004D5C00008DE802008DE8020012
:1040A0008DE80200E55D0000C55D00008DE80200BE
:1040B0008DE80200153903008DE80200E19B010044
:1040C0001B39030017390300A193010027390300AE
:1040D0001F390300A59B010023390300D98101008A
:1040E000219C01008DE802008DE80200A9960000E5
:1040F0008DE802008DE802008DE802008DE80200E4
:104100008DE802008DE802008DE802008DE80200D3
:104110008DE802008DE802008DE802008DE80200C3
:104120008DE802008DE802008DE802008DE80200B3
:104130008DE80200000000002DE9F04F2DED088B06
:104140008DB09DED1E7B09EE903ADDE920430A9388
:10415000229B09EE100A8A460792069351EC170B30
:1041600053EC172BB0EE478AF0EE678A29F084FBF8
:1041700080B14FF0FF3251EC180BCF4B29F0A4FB6C
:1041800040B94FF0FF326FF4801351EC180B29F057
:104190007DFB98B1069B514622930A9B19EE100AAB
:1041A000CDE9204319EE903A079A8DED1E8B0DB0A4
:1041B000BDEC088BBDE8F04F00F0A2B9002200234F
:1041C00051EC180B29F062FB002800F0448118EE36
:1041D000903A18EE108A03F10049069BC9F30A5081
:1041E00013F48063A0F2FF3008BF06240B9329F07C
:1041F00071F8A1A3D3E9002329F0D6F8A0A3D3E94D
:10420000002328F01BFFC9F313050F4645F07F512B
:1042100006460022A94B404641F4401128F00CFF0D
:1042200099A3D3E9002329F0BFF802460B46304694
:10423000394628F003FF29F051FB834629F04AF85C
:1042400093A3D3E9002306460F4629F0ADF80022D8
:104250009B4B28F0F3FE29F041FB8FA3D3E9002309
:1042600005463946304629F09FF8064628460F464F
:1042700029F030F88AA3D3E9002329F095F8024603
:104280000B463046394628F0D7FE02460B46064616
:104290000F4629F089F8324641EC1A0B3B4630466E
:1042A000394628F0CBFE002241EC1B0B854B51EC2C
:1042B0001A0B29F0A3F90022834B28F0BFFE024617
:1042C0000B4651EC1A0B29F099F900227F4B28F08C
:1042D000B5FE02460B4651EC1A0B29F08FF9324617
:1042E00041EC1A0B3B4600204FF0804128F0A4FE21
:1042F00002460B4651EC1A0B28F0A0FE02460B4674
:1043000051EC1B0B29F07AF905F2FF350022704BB6
:1043100028F094FE00222B0529F046F842464B4631
:1043200006460F4629F0D0FA002840F09780CDE9E4
:1043300008670BF16303C72B069B34BF04250525D3
:10434000190521D558A3D3E900234046494629F051
:10435000B1FA002800F0BE8055A3D3E900234046FF
:10436000494629F093FA002800F0B48000255C4506
:10437000CCBFA4EB0B000024AB46069BC8BF00F1EA
:10438000FF3443F4806306930A9B9D4238BF5E1B53
:10439000069B28BF002613F0020702D0002D18BF8D
:1043A0000026BBF1000F07D0DDE90823404649464F
:1043B00029F024F9804689460022002351EC180B8D
:1043C00029F064FA10B109F100439946069B514661
:1043D00023F40063CDE9036319EE100A19EE903A55
:1043E000CDE90089079A029400F08AF875B3069B1C
:1043F000024613F0200F00F1010619EE903A14BFA7
:1044000045206520514619EE104AA0470523002299
:1044100005930A238BEAEB70CDE90232A0EBEB7037
:104420004FEADB73013D0193009019EE903A32465A
:10443000514619EE100A04952EF096F837B1079BF5
:10444000C51A079B58190A9BAB424CD80DB0BDEC5E
:10445000088BBDE8F08F59EC188BBEE60022304681
:104460003946194B29F0CAF80BF1FF3BCDE9080199
:104470005FE700BFAFF30080FB799F501344D33F49
:10448000B3C8608B288AC63F61436F63A787D23F5A
:1044900071A379094F930A401655B5BBB16B024021
:1044A000EF39FAFE422EE63F2D431CEBE2361A3F6F
:1044B0000000000080842E41FFFFEF7F0000F83FE6
:1044C0000000E03F00002C400000244000001840A5
:1044D0000000F03F002C3FF457AF0B9B002B3FF444
:1044E00053AF013C50E7024619EE903A5146202066
:1044F00019EE104AA0470135A3E700BF00000000F5
:104500002DE9F04F2DED088B8FB0DDE920AB08EEE3
:10451000100A0F4608EE902A09EE103ADDE9225300
:104520005246049350465B465946249E29F0A4F90E
:10453000A0B9049B2396229303232193B84B209385
:1045400018EE902A19EE103A394618EE100A0FB0FC
:10455000BDEC088BBDE8F04F2DF03EBF4FF0FF32B1
:104560006FF480135046594629F090F930B1049BFE
:104570002396229304232193AA4BE0E74FF0FF32C6
:1045800050465946A84B29F09FF970B1A74A06F04A
:104590000403002B08BF0322A54B1CBF13460422B3
:1045A00004992396CDE92121C9E7504698A3D3E980
:1045B0000023594629F088F938B997A3D3E9002395
:1045C0005046594629F062F998B1049B18EE902A9A
:1045D000CDE92253394619EE103A18EE100ACDE90A
:1045E00020AB24960FB0BDEC088BBDE8F04FFFF771
:1045F000A3BD002200235046594629F047F9002860
:1046000000F081805B4652460020002128F014FD16
:10461000012382468B46059316F4806F08BF06255A
:104620003021A94606ABA5F12002B9F1090FA5EB8F
:10463000090406D909F1FF394A4503F8011BF4D1F1
:1046400020245946504629F049F97A4B054603EB98
:10465000C90393ED007BB0EE47AAF0EE67AA28F0FD
:1046600039FE02460B465046594628F0E5FC53EC0D
:104670001A2B28F099FE02460B4643EC1B2B29F01F
:1046800055F9804628F016FE02460B4651EC1B0BEE
:1046900028F0D2FC02460B4643EC1B2B0022664B53
:1046A00029F012F988B308F10108404628F002FE0B
:1046B00002460B4651EC1A0B29F0F2F810B14FF0FC
:1046C00000080135B9F1000F51D1284628F002FE4B
:1046D00002460B465046594628F0AEFC0022564B87
:1046E0008046894629F0D2F830B10022404649463A
:1046F000514B29F0E9F810B1E80700D5013506ABB8
:104700000A2223445AE0059086E7002251EC1B0B55
:10471000494B29F0BBF80028D4D1B8F1000F02D0E2
:1047200018F0010FCED008F10108CBE7B8FBF1F08B
:1047300001FB1082B8F1090F02F1300209F1FF39D3
:1047400004F1010403F8012B28D83021A14406AA62
:10475000202C11D04C4504F1010321D104F1380281
:104760000DEB02042E2204F8202C1C46C7E70A2178
:1047700006AB2344202CD9D106F00303012B06AB52
:1047800039D1049A002A36D0059A12B916F00C0FC6
:1047900002D0049A013A0492302214E08046E9E7FC
:1047A000A1541C46D4E795FBF2F102FB11553035BC
:1047B00003F8015B01340D460029DDD0202CF2D135
:1047C000DAE71A5501340499A14214D9202CF8D102
:1047D000049A0093CDE9014219EE103A18EE902A9E
:1047E000394618EE100A03962DF0F6FD0FB0BDEC19
:1047F000088BBDE8F08F202CEAD0059AF2B12D216C
:1048000004F138026A4402F8201C0134E0E700BFDA
:104810000000000065CDCD410000000065CDCDC198
:10482000A5F70300A9F70300FFFFEF7FA0F7030040
:104830009CF70300B0F703000000E03F710704D5C8
:1048400004F138022B216A44DDE73207C0D504F1B8
:10485000380220216A44D6E770B58EB02C220021A0
:1048600003A831F0A8FC64234FF002320121089321
:104870008DF81010CDE905230B238DF83430504B03
:104880001B88D80700F1958008464E4C18F0D0F9E7
:104890004D4B0A224D494E481A704FF42873ADF81B
:1048A000123015F037FA206020B940F23121494822
:1048B00004F068FD052120682EF0D2FB20B14FF4F2
:1048C0000F71444804F05EFD20680C2500F012FBD7
:1048D000414B206819682EF03BFC19F069F86843D9
:1048E000099019F065F868430DEB05010790206801
:1048F0000FF0B6FD20B140F25121364804F042FDE0
:104900000022364920682EF0ADFC20B140F2532140
:10491000304804F037FD324E40F20353314D96F9E2
:1049200000002B8005237F28AB7001D118F0E0FA3E
:104930003378EB7019F03CF800EB80008000A88021
:1049400019F036F80023C0004FF0FF31E8804FF037
:10495000FF30AB6018A3D3E9002318F027FB2249EE
:1049600020682FF071F802A920682EF055FC20B1C4
:1049700040F28621174804F005FD042220680DEB63
:1049800002012EF0D2FB042804D040F28921114804
:1049900004F0F8FC01A901202FF022FA04F038FEFF
:1049A000012019F085FA2AF02EFA19F0ABFA18F066
:1049B000C5F90EB070BD00BF0A0020FF4203000021
:1049C00090410020A03B0020FE4600205DCC01006D
:1049D000BC120020A519040010110020034700207C
:1049E000EF1500208C3B0020FDCD010010B5054CDB
:1049F000237833B9044B13B1044800E000BF01230E
:104A0000237010BDE01A0020000000003C1D0400CF
:104A100008B5034B1BB10349034800E000BF08BDC4
:104A200000000000E41A00203C1D0400A3F5803AB9
:104A3000704700BF174B002B08BF134B9D46FFF775
:104A4000F5FF00218B460F461348144A121A31F025
:104A5000B2FB0E4B002B00D098470D4B002B00D023
:104A600098470020002104000D000D48002802D0C6
:104A70000C4800E000BF29F01DF92000290029F0B2
:104A800039FC29F003F900BF000008000000000015
:104A90000000000000100020BC1700204847002044
:104AA000000000000000000007B5064B01900093D5
:104AB00001210420044B054A08F0BAFD03B05DF85B
:104AC00004FB00BF6DF10300406303004563030076
:104AD000F8B5304F05463B6883421FD129F062FF8D
:104AE0000446D8B901222C4B104606210BF07EF962
:104AF00020462A490BF086FA204629490BF082FA13
:104B0000284B012118780BF0B1F9214620462CF0F2
:104B1000AEFB064640BB24490BF074FA7B68AB42FF
:104B200037D1284629F03EFF044690BB02461A4B77
:104B3000062101200BF05AF920461C490BF062FABD
:104B400020461B490BF05EFA164B012118780BF03A
:104B50008DF9214620462CF08AFB054670B9BDE848
:104B6000F84011490BF04EBA204612490BF04AFAB0
:104B70003246204610490BF045FACFE720460D4952
:104B80000BF040FA2A462046BDE8F8400A490BF0EF
:104B900039BAF8BDB4100020779C03005B630300B2
:104BA0006E630300E82B002087630300C5630300E6
:104BB000D8630300A4630300B363030030B5062980
:104BC000044685B015D1A2B9402B12D101250DF1B3
:104BD0000F0300952CF03DFB58B99DF80F300848A5
:104BE0004BB129F06EFF2346064A2946042008F0FF
:104BF0001FFD05B030BD29F067FF2346024AF4E7E8
:104C0000549C0300F26303001064030030B50A4CA7
:104C10000A4B22680A4D1A600A4B85B02B600A4B7A
:104C2000019303F0F3FD2B68029001A92068039320
:104C30002AF02CFB05B030BDA4100020E82800208D
:104C4000E428002098100020E89B0300014B18681E
:104C50002AF030BBA410002038B503F0D7FD04467D
:104C6000064D2B68D3F8B00203F0C4FD28682AF083
:104C700034FB2046BDE8384003F0BCBDA410002042
:104C800010B51E4C29F0A8FF236F23F0070343F053
:104C90000203236729F0A7FFD4F82031002023F076
:104CA000070343F00103C4F82031D4F8403123F066
:104CB000030343F00203C4F84031D4F8603123F019
:104CC000030343F00203C4F86031D4F8403223F008
:104CD000030343F00203C4F84032D4F8003223F057
:104CE000070343F00203C4F80032D4F8083223F07B
:104CF000070343F00203C4F8083210BD00800050DF
:104D000007B501A801F072FF9DF80530012B27D1EE
:104D1000244A936DDB0313D4536B23F4FF0323F472
:104D2000FE4343F4BC1343F4A0635363136B23F4B7
:104D3000704343F440431363136B43F4E063136322
:104D40009DF8043063B94FF000531B68164B1B6885
:104D5000164B1B68164B1B68164B1B68164B1B68C3
:104D6000164AD2F8803043F00303C2F8803003F0D3
:104D700023FD29F04BFD03F009FD03F0C5FC03F012
:104D8000CBFCFFF77DFF03F0ADFC29F03DFD00F00B
:104D9000C5FB04F02FF801F035F803B05DF804EB23
:104DA00004F0E6BE00C0005000400020008000205B
:104DB00000C00020000001200040012000800050C1
:104DC00030B5204D95B00DAC0FCD0FC495E8070060
:104DD000032384E8070001248DF84D301A4A1B4B49
:104DE0000021CDE903231A4B102209A8CDE905348F
:104DF00031F0E1F94FF48021164B0DAACDE90713EC
:104E00000B238DF824300C238DF82530124B07A985
:104E10000A9320230B93114B1148009303AB8DF899
:104E2000314003F009FF04469DF832304FF4E13081
:104E3000002B0CBF0321002129F019FD204615B0DD
:104E400030BD00BF089C0300008005502100050014
:104E5000060004022480055018420020B81D0020DE
:104E6000101E0020831E012B10B512D8012910D866
:104E7000114B04221B6905210020C3F3401301F0EC
:104E800025FD0E4B1B681868A8B1BDE81040436AA9
:104E900018478B1E012B0CD801280CD8BDE81040F8
:104EA0000022054B05211B691046C3F3401301F096
:104EB0000DBD0129E5D910BD00C00350B010002080
:104EC00008B50449044804F0FDFEBDE80840FFF7BA
:104ED00077BF00BFA8100020081E002001482AF05C
:104EE000F2BE00BF101E0020014B1A6A186810475E
:104EF000101E002008B50FF0E9FA0022014B1A70CD
:104F000008BD00BF3842002008B5044829F045FD1F
:104F1000BDE80840024829F040BD00BF249C0300C2
:104F20003C9C0300014829F0C9BD00BF549C03000C
:104F30001FB5084903460868097902AA02908DF84E
:104F40000C10009205210022012007F049FA05B05B
:104F50005DF804FB6C9C03001FB508490346086814
:104F6000097902AA02908DF80C10009205214222C4
:104F7000012007F035FA05B05DF804FB729C0300D0
:104F80001FB5084903460868097902AA02908DF8FE
:104F90000C10009205214022012007F021FA05B0F3
:104FA0005DF804FB6C9C03001FB5064A03460392A0
:104FB00003AA009201220821104607F011FA05B059
:104FC0005DF804FB010121211FB5064A0346039247
:104FD00003AA009208210022012007F001FA05B07F
:104FE0005DF804FB010221211FB509490346088829
:104FF000897803AAADF80C008DF80E1000920621F6
:105000004222012007F0ECF905B05DF804FB00BF77
:10501000789C03001FB503AA0092052207490346A6
:1050200008888978ADF80C008DF80E100120114623
:1050300007F0D6F905B05DF804FB00BF7C9C0300C7
:105040001FB5084903460868097902AA02908DF83D
:105050000C10009208210222012007F0C1F905B0CE
:105060005DF804FB809C03001FB5094903460888CE
:10507000897803AAADF80C008DF80E100092082173
:105080000622012007F0ACF905B05DF804FB00BF73
:10509000869C030007B5082029F0F7FC02238DF851
:1050A0000030054B6846019329F0B1FB082003B09E
:1050B0005DF804EB29F0F5BC006A181008B500F0A3
:1050C0002DF8124B12498B4212D30020114B12497A
:1050D0008B4218D3FFF7AEFC186850F8224058688E
:1050E00040F82240013298688242F5D30C33EAE757
:1050F0000022F8E71C6844F8220001325C68A242F2
:10510000F8D30833E4E70022F8E700BF441D0400A9
:10511000501D0400501D0400501D04006FF00100DC
:10512000104B114A10B59A60D3F888200F4942F409
:105130007002C3F8882001F50052106641F2FF703A
:1051400050660220C3F8D000BFF34F8FBFF36F8FBC
:1051500008244FF440330648C0F88041D36004600F
:105160000B6110BD00ED00E0004000000080004435
:1051700000E100E0014B1868704700BFDC10002020
:10518000014B1860704700BFDC100020084B1B6FFC
:1051900003F00703022B04D0032B05D0012B05D00D
:1051A000FEE7044B18687047034BFBE70348704762
:1051B00000800050DC100020E0100020002D3101A4
:1051C00008B5FFF7E3FF054B1B6FC3F30133013352
:1051D000B0FBF3F0024B186008BD00BF0080005028
:1051E000D81000200048704700B4C404014B186870
:1051F000704700BFE0100020054B1860054B1B6F87
:1052000003F00703032B01D1FFF7DABF704700BF9C
:10521000E01000200080005000487047002D310150
:10522000174B9868C0F304400C2822D8DFE800F040
:10523000092121212121071719211B1D1F001148B8
:1052400070479B6803F04073B3F1807F13D0B3F1D4
:10525000007F12D00C4A002B08BF104670470B4845
:1052600070470B4870470B4870470B4870470B4816
:105270007047002070470A4870470A48704700BFCF
:105280000040015A405DC60000093D000024F400C2
:10529000C0EA210180BA8C010048E801005A62028C
:1052A00080841E0040420F00014B1868704700BF09
:1052B000E4100020BFF34F8F0549064BCA6802F483
:1052C000E0621343CB60BFF34F8F00BFFDE700BF29
:1052D00000ED00E00400FA0500239B6AB3F5804F5F
:1052E00003D21968064A914203D0002303708360F9
:1052F0007047012202709A689B694260F7E700BF1D
:1053000007B0CD5E73B5494B04461A781AB1022234
:105310001A7002B070BDCDE900220028F9D0012634
:105320001E7029F079FC424D424B186011F02EFEA0
:105330002B785BB900F066FD40B93F4808233F4A2F
:105340003F4900680EF0A2FA00B92E703D4B5A6832
:10535000E2603D4A9A601A6E22605A6E6260D3F82B
:105360007021A2601B6E5C0440D5384AD368D80710
:10537000FCD4374B1A68531C3DD04FF48013934034
:10538000344A13660423334C23664FF48063236648
:1053900029F0A0FA01300ED029F09CFA40F2011356
:1053A000984208D04FF4804323664FF400432366AD
:1053B0001023C4F870311023264C4FF0804223662E
:1053C0004FF400536846236601A92266636629F0FC
:1053D00066FA009B2366019B63662B78002B98D0AE
:1053E000164B1A6822665B68636692E71A4AD368AE
:1053F000D907FCD4BDE7194B1B78002BC2D1184B41
:105400005A68144B12B94FF480121A66154A526842
:1054100012B94FF400121A66134B5B68002BB1D11E
:105420004FF480020B4B1A66ACE700BF3B420020F2
:10543000394200204C1E0020EC100020441E0020A9
:10544000007108000080004455CEAC00000004400C
:10545000E810002000900044000004503A42002070
:105460000080055000C005500000065038B5224DA0
:1054700004462B78012B02D001232B7038BD002865
:10548000FCD029F027FA013009D029F023FA40F2A4
:105490000113984203D0194AD368DB07FCD4226871
:1054A000174B1A6662685A66A268C3F87021E268F0
:1054B000D40744BF00229A60124B1A68013213D1FC
:1054C000114A127882B911494968C80748BF1A6061
:1054D0000F4A5268D10744BF01221A600D4A526830
:1054E000D20744BF02221A6011F058FD0A4B186817
:1054F00029F098FB0023C0E73B4200200000044055
:1055000000800044E81000203A420020008005504E
:1055100000C00550000006504C1E002070B500244D
:10552000A36AB3F5804F22D21A68124B9A421ED159
:10553000114E337813F0FD0517D11048FFF7E2FE46
:1055400008214FF480330E4A0E48C2F88011C36020
:1055500011600D4A1361AB6ADB699847044607483E
:10556000FFF784FF0CB901233370204670BD4FF460
:105570008174FAE707B0CD5E3A420020341E002065
:1055800000E100E000A000440090004413B51F4B70
:105590001B7803B9FEE700231D4CCDE900336A46B2
:1055A00008231C4920680EF071F9F0B91A4AD2F8A4
:1055B0004031D2F840211F2B4FF0010310D9203A7F
:1055C0009340019A1343019308236A4611492068C6
:1055D0000EF012F94FF00053104A1A60FFF76AFEFE
:1055E0009340009A13430093EEE70D4B9842F1D19C
:1055F000094AD2F84031D2F840211F2B4FF0010365
:1056000002D9203A9340DEE79340ECE73B4200208A
:10561000EC10002000710800008000440B020FF025
:105620000BE000F070B5D0B1C9B10E4E431E013988
:1056300013F8014F2046A25D02F00302012A11F87F
:10564000012F08BF04F12000B55C05F00305012D12
:1056500008BF2032801A01D1002CE9D170BD012091
:10566000FCE700BFD11B040037B50468002301220A
:1056700061790546207901F029F914223023217936
:1056800013FB012303F1A04303F570331B68627918
:10569000D340DB4303F001032370A379022B0ED127
:1056A00000F03AFB2A460749607900F05FFB0123CE
:1056B000024661792079CDE9003301F0C3F800207A
:1056C00003B030BDAFE9020008B503210123042275
:1056D000002001F0FBF8002029F0BCFA0122244B45
:1056E0000C20C3F84424234AD2F8803043F003034B
:1056F000C2F8803000F0E0FD1F4B00F5D520D3F854
:10570000F02000F2FC4042F00102C3F8F020D3F890
:10571000FC2042F08072C3F8FC20184AA3F55D43D8
:105720001A60174B0222B0FBF3F0164B01381861D8
:10573000C3F8F0204FF48072C3F804234FF06043A5
:10574000114A0020C3F8B02F104AC3F8802ED3F8B6
:10575000002E42F48072C3F8002EFF2283F820202E
:10576000D3F8002E22F48072C3F8002E08BD00BFCB
:1057700000D003500080005000ED00E0FF03004027
:10578000F8590D00000004E055CEACC50900010039
:105790004FF06043D3F8802E30B5D20715D50124E1
:1057A0000B4D8440D5F8FC2042F08072C5F8FC20F7
:1057B000D3F8002E2243C3F8002E53F82020002AED
:1057C000F0D003F82010002030BD1120FCE700BF0E
:1057D00000ED00E010B50122437801788478302094
:1057E0009A40054B00FB01331CB942F210015A509C
:1057F00010BD41F21001FAE700C0035010B50122BC
:1058000043780178847830209A40054B00FB0133BF
:105810001CB941F210015A5010BD42F21001FAE7D2
:1058200000C003502DE9F04F9A46564B85B01B78C7
:1058300006460F461546DDF83C909DF844B0DDF86D
:105840005080002B00F08D80072A00F28C800E9B88
:10585000002B00F08880B9F1000F00F08480129BCB
:10586000B3F5006F7FDC012802D1109B002B7AD0AA
:10587000454B03EB05131B7B002B76D0434C1022CA
:105880000021684630F097FC04EB45141022002FED
:1058900059D13946204630F08EFC43F21003638024
:1058A000BBF1000F03D1E37843F00303E370374A01
:1058B0000E9B02EB451CCCE90193129B6901013B55
:1058C000C3F30A009DF84C30012E03F003034FEAA6
:1058D000836343EA001E53582D48CDF800A000EA28
:1058E00003004EEA0003535041D113230CF1100E74
:1058F000CCF80C309CE80F008EE80F006FF003012D
:10590000DCF81C20109B61F39F02012FCCF81C20B7
:10591000CCF8143003D1CCF81890CCF80430002720
:10592000194A290102EB051342F80180159A28460D
:105930005A60694622469F605E7301F055F838460A
:1059400005B0BDE8F08F0021204630F034FC4FF464
:1059500044736380BBF1000FA9D1E37843F03003B7
:10596000A4E70C48ECE70C48EAE70C48E8E7B8F194
:10597000000FD4D19CF8023068F304138CF8023085
:10598000CDE700BF3C420020501E0020D01E00206A
:105990000F80FFF3028000F0018000F0078000F02C
:1059A00038B5124B05461B78DBB1E0B129F034F96C
:1059B0000F4A00231146147B54B92B6001251A01AC
:1059C00001EB03131D738C5029F02CF9204638BDD0
:1059D0000133082B02F11002EDD129F023F905481B
:1059E000F5E70548F3E70548F1E700BF3C42002032
:1059F000501E0020048000F0028000F0018000F0C2
:105A000013B529F009F900230B4A147B7CB9013343
:105A1000082B02F11002F8D1019000F099FF074B1A
:105A200001981C7029F0FEF8204602B010BD29F044
:105A3000F9F80348F9E700BF501E00203C4200205F
:105A4000058000F00D4B10B51B78044693B1072874
:105A500012D829F0E1F80A4B03EB04131A7B2AB1A0
:105A600000241C7329F0DEF8204610BD29F0DAF876
:105A70000448FAE70448F8E70448F6E73C42002007
:105A8000501E0020068000F0028000F0018000F02F
:105A9000154B13B51868002301908DF8043029F0D8
:105AA000BBF8124B1C7824B129F0BCF8104802B0A6
:105AB00010BD01221A7029F0B5F80E4B01A81C7315
:105AC0001C7783F82C4083F83C4083F84C4083F8E3
:105AD0005C4083F86C4083F87C4008238DF80730E5
:105AE00000F058FF2046E2E7D4AB03003C42002020
:105AF000038000F0501E00200A4A08B512785AB1FF
:105B000007280BD8084A02EB00131B7B43B1002186
:105B100000F032FF002008BD0448FCE70448FAE723
:105B20000448F8E73C420020501E0020028000F0AC
:105B3000018000F0078000F00A4A08B512785AB1D7
:105B400007280BD8084A02EB00131B7B43B1012145
:105B500000F012FF002008BD0448FCE70448FAE703
:105B60000448F8E73C420020501E0020028000F06C
:105B7000018000F0078000F00A4A08B5127852B19F
:105B800007280AD8084A02EB00131B7B3BB100F040
:105B900079FF002008BD0548FCE70548FAE70548FD
:105BA000F8E700BF3C420020501E0020028000F0B9
:105BB000018000F0078000F00D4B1B7893B107289F
:105BC00012D889B10B4B03EB00131B7B73B10A4B4B
:105BD0001A6D012303FA00F010401ABF00200B7069
:105BE000087070470548704705487047054870477A
:105BF0003C420020501E002000000450028000F0B3
:105C0000018000F0078000F00B4A10B512780C46B6
:105C100062B107280CD859B1084A02EB00131B7B6C
:105C200043B100F041FF2070002010BD0448FCE7A4
:105C30000448FAE70448F8E73C420020501E0020E0
:105C4000028000F0018000F0078000F0204B2DE979
:105C5000F0471F6D5A6D1F4C174010D54FF0004193
:105C60001D4A1165D868C0F304200301E35804EB12
:105C700000125BB3BDE8F0470021526818470126C7
:105C80000025DFF85480DFF85490374217D023689E
:105C9000C8F850609BB1A168284601316268A160D4
:105CA0009847637B012B0AD148B909EB45131A7B4E
:105CB00060F341021A731A7F60F341021A770135CB
:105CC000082D4FEA460604F11004DED1BDE8F08746
:105CD00000000450501E002000200450D01E002060
:105CE00070B5044601250B4E04B970BD94FAA4F0BA
:105CF000B0FA80F005FA00F306EB001224EA030480
:105D00005368002BF0D0117B11B191689847EBE7F5
:105D10009847E9E7D01F002008B5192000F04EFD94
:105D200028B14FF00072074BC3F880211A601A2087
:105D300000F044FD28B14FF08062024BC3F880218F
:105D40001A6008BD00E100E038B505460C4628F0B1
:105D500063FF0022044B03EB05135C601A73BDE87C
:105D6000384028F05FBF00BFD01F0020F8B50546BF
:105D70000F46164628F050FF104B05F0FC02D3F8F2
:105D800024140023EC1804F00304144321FA04FC47
:105D90001CF0010F07D00133042BF3D1FF2428F0AE
:105DA00041FF2046F8BDFF2CF9D00122044B03EB44
:105DB0000413C3E901761A73F1E700BF00C0035072
:105DC000D01F0020064BD3F82404D3F8202403F579
:105DD0000053104000F05530C3F82004FFF780BF97
:105DE00000C00350064BD3F82404D3F8202403F555
:105DF0000053104000F0AA30C3F82004FFF770BF32
:105E000000C00350024B1968024B18680DF01EBC0D
:105E1000F0100020EC10002037B5920004460D462B
:105E2000019230F07DFA431C0BD060B92946204620
:105E3000019A30F089F90028044808BF002003B017
:105E400030BD0348FBE70348F9E700BF10E000F06E
:105E500021E000F024E000F010B5044630F068FACC
:105E6000431C10D088B900F0CFFE234620F0030079
:105E70002044984201D1002010BD53F8042B013278
:105E8000F7D00348F8E70348F6E70348F4E700BF14
:105E90000EE000F021E000F024E000F008B528F06A
:105EA000ACFE014B186008BD10280020014B18689B
:105EB00028F0A7BE1028002041F6713310B5104C11
:105EC000104AA0428CBF4FF480140024D169D363E0
:105ED000936801F4803123F44013234393600A4B09
:105EE00098420A4BD3F818228CBF42F0020222F0EB
:105EF0000202C3F8182211B10022024BDA6310BD6E
:105F0000005A62020000035080F0FA0200C00750FD
:105F10002E4B98424AD022D82D4B984240D014D8CC
:105F20002C4B984239D00AD82B4B984232D02B4B6D
:105F300098422FD02A4B98422CD000207047294BF2
:105F40009842FAD1284B186F7047284B98422AD0B4
:105F5000274B9842F1D1244BD3F880007047254B52
:105F600098422BD009D8244B984223D0234B9842F7
:105F7000E3D11D4BD3F88C007047214B984221D0C0
:105F800003F5740303F510539842D6D1164BD3F89A
:105F900098007047144B986D7047134B586E7047BC
:105FA000114B586F7047104B986F70470E4BD3F8DA
:105FB000840070470C4BD3F8880070470A4BD3F825
:105FC00090007047084BD3F8940070470048E801F0
:105FD0000024F400C0CF6A0080841E0000093D0048
:105FE00040420F00405DC6000080E00FC0EA210182
:105FF00080BA8C01007E560380D54302006CDC021F
:106000000090D00338B5134B0546D3F820010C4659
:1060100000F00700042804D8DFE800F01A0A0E1286
:1060200016000023184605B1286004B1236038BD6E
:10603000FFF7A0F80423F6E7FFF7D8F80323F2E709
:10604000FFF7EEF80523EEE7FFF7E6F80223EAE7AD
:106050000123E8E70080005037B50C460021124AC2
:106060000191D2F88021054602F00302022A0ED0E7
:10607000032A11D0012A14D101A8FFF7C3FF0D2371
:106080000DB1019A2A6004B1236003B030BDFFF75F
:10609000C7F805230190F3E7FFF7BEF8022301904C
:1060A000EEE70B46ECE700BF0080005038B5104B20
:1060B0000546D3F840310C4603F00303022B0BD006
:1060C000032B0DD0012B0FD128F0E3FB082305B1E2
:1060D000286004B1236038BDFFF7E6F80723F6E730
:1060E00028F0DAFB0923F2E701230020EFE700BFE5
:1060F0000080005038B5104B0546D3F860310C468F
:1061000003F00303022B0BD0032B0DD0012B0FD177
:1061100028F0BFFB082305B1286004B1236038BD17
:10612000FFF7C2F80723F6E728F0B6FB0923F2E7EA
:1061300001230020EFE700BF0080005038B5144B6A
:106140000546D3F800020C4600F00700042804D8E6
:10615000DFE800F01B0A0E1216000023184605B1F6
:10616000286004B1236038BD28F093FB0823F6E7CC
:10617000FFF79AF80723F2E728F08EFB0923EEE7F2
:10618000FFF71EF80C23800AE9E70123E7E700BFC9
:106190000080005038B5144B0546D3F808020C4671
:1061A00000F00700042804D8DFE800F01B0A0E12F4
:1061B00016000023184605B1286004B1236038BDDD
:1061C00028F067FB0823F6E7FFF76EF80723F2E7EE
:1061D00028F062FB0923EEE7FEF7F2FF0C23800AAA
:1061E000E9E70123E7E700BF0080005038B5104B16
:1061F0000546D3F840320C4603F00303022B0BD0C4
:10620000032B0DD0012B0FD128F043FB082305B140
:10621000286004B1236038BDFFF746F80723F6E78E
:1062200028F03AFB0923F2E700231846EFE700BF06
:106230000080005038B5104B0546D3F800310C46AD
:1062400003F00303022B0BD0032B0DD0012B0FD136
:10625000FEF7CCFF032305B1286004B1236038BDED
:10626000FFF722F80723F6E728F011FB0623F2E7F1
:1062700001230020EFE700BF00800050032814D066
:1062800005D8012805D0022809D0002005E00F28F4
:10629000FBD1084B186FC0F3013001307047054B3C
:1062A000D3F89000C0F30460F7E7024B186FC0F317
:1062B0008020F2E7008000501FB5002301932528BD
:1062C00017D8DFE800F0131A1D262B353A50555A1F
:1062D0005F646977161A3F1616551A262B26351A4B
:1062E0005026773A3A3A3A2626265A5FFEF74EFF6C
:1062F0000190019805B05DF804FBFEF761FFF7E738
:10630000FEF744FF02460220FFF7B8FFB2FBF0F0B1
:10631000EEE7FEF755FF02460320F5E7FEF750FFD4
:1063200002460320FFF7AAFFB2FBF0F04008DFE7C8
:10633000002101A8FFF790FEDBE7002101A8FFF78D
:1063400061FED6E702934FF0E0231B695B0705D59A
:10635000FEF736FF0290029B0193CAE703A902A849
:10636000FFF7A4FEF7E7002101A8FFF79FFEC0E7B3
:10637000002101A8FFF7BEFEBBE7002101A8FFF73F
:10638000DDFEB6E7002101A8FFF704FFB1E7002119
:1063900001A8FFF74FFFACE7094BD3F8803003F0BB
:1063A0000303022BA9D0032B01D00020A0E7FEF7A6
:1063B00037FF9DE7002101A8FFF718FF99E700BF0D
:1063C0000080005008B50120FFF776FFBDE80840C7
:1063D000034988428CBF02210121032000F002B84A
:1063E00080F0FA02032810B50C4627D004D8012803
:1063F00004D0022817D010BD0F28FCD128F0E0FBF4
:1064000028F0E6FB124B013C196F21F4405141EAA0
:1064100004341C67FEF7D4FE0021FFF74DFDBDE8F4
:106420001040FFF7CFBF0A4B013CD3F8901021F08A
:10643000F85141EA0464C3F89040DCE7044B013CA6
:10644000196F21F4806141EA84241C67D3E700BFFF
:10645000008000501FB500230193252821D8DFE8D4
:1064600000F013202020202A2F454A4F54595E71F6
:1064700020203420204A202020202A204520712F4F
:106480002F2F2F2020204F54314B1B6F03F0070379
:10649000013B032B05D8DFE803F00C02080A0423B4
:1064A0000193019805B05DF804FB0323F8E7062388
:1064B000F6E70223F4E7002001A9FFF7CDFDF0E79E
:1064C000002001A9FFF79EFDEBE702934FF0E023C8
:1064D0001B695B0705D5FEF773FE0B230393039B34
:1064E000DEE703A902A8FFF7E1FDF8E7002001A914
:1064F000FFF7DCFDD5E7002001A9FFF7FBFDD0E7A2
:10650000002001A9FFF71AFECBE7002001A9FFF741
:1065100041FEC6E7002001A9FFF78CFEC1E70C4B46
:10652000D3F8803003F00303022B03D0032B05D0F4
:106530000023B5E7FEF744FE0B23B1E7FEF770FE3C
:106540000523ADE7002001A9FFF750FEA9E700BF32
:106550000080005038B50546FFF7DAFC214B0446B1
:106560005A68012A04D120494A609A699207FCD1ED
:106570000020FFF76FFF042803D128F021FB28F04B
:1065800027FB1A4A24F04073954221D0184A9542BD
:1065900021D0184AD16811F0060FFBD190689360A2
:1065A000916803F4F81301F4F8118B4216D12846D0
:1065B000FEF7E6FD0020FFF74DFF042810D1FEF79F
:1065C000FFFD0021FFF778FCBDE83840FFF7FABE79
:1065D00043F00073DDE743F08073DAE79060E9E7AA
:1065E00038BD00BF00C0015000E0015040420F0024
:1065F00080841E000000015070B504460020FFF7A3
:1066000029FF03287CD045F60E030221414AC2F837
:106610008030414B9962012103F580539962936D5B
:10662000D903FCD4D4E900131B0543EA0163E17BE1
:1066300094F822500B43217B94F8236043EA0143F2
:10664000617B43EA0133A17B43EA811313619169C2
:10665000D4E904031B0643EA806301F000410B43C5
:10666000A17EE07E0B43217E43EA0143617E43EA43
:1066700001239361136AE26923F00D03002A0CBF22
:106680000021082143EA020343EA8003214A43EA46
:106690000103136294F820304FEA431331D1906A1A
:1066A00094F8211020F0330043EA0113034343F030
:1066B00001039362194B916D33EA0101FBD1022171
:1066C000154B9962936D5B00FCD41069A36820F4AC
:1066D000700040EA035010614FF000420E4B9A6187
:1066E0001DB9022203F580539A6216B901220C4BA0
:1066F0009A6294F824301BB1064B0A4AC3F88020F2
:1067000070BD916A21F0330131430B4343EA4503E5
:106710009362EEE700C0005000D00050030001403B
:1067200000E00050F1A7FFFF014B93F90000704714
:106730003D420020F0B5D0E901434FF4D156022785
:10674000164A417805785662154E4F2977604FF00A
:10675000010728BF4F2106F5805677601669F603BA
:10676000FCD441EA052151611B01417B43EA04232A
:106770000B43017B43EA41039360C37B817B1B0195
:1067800043EA4113417C0B43017C43EA41035360DC
:10679000837C13B16FF4D1535362F0BD00000250FB
:1067A00000100250014B1880704700BF56150020A2
:1067B000014B1880704700BF54150020054B42095B
:1067C00053F8223000F01F0023FA00F0C04300F01D
:1067D0000100704700E100E00A4A10B51369044661
:1067E00043F00403136103F02FFC28F01EFA30BFBE
:1067F00028F01CFA03F044FC1CB9BDE81040FEF779
:10680000DFBC10BD00ED00E0084A10B51369044676
:1068100043F00403136103F017FC30BF03F030FCB6
:106820001CB9BDE81040FEF7CBBC10BD00ED00E088
:10683000034A0179D36E23F030030B43D3667047CC
:1068400000400050072AF7B50D4614461F460FD8E2
:1068500003219600B14000FA06F21548019128F094
:10686000E8F905F0030201991248B24028F0E1F975
:10687000114B12499DF82000002F08BF1946012333
:1068800003FA04F40C600E4B0E49002808BF0B46B7
:106890001C600D4B9DF82400C3F820441031A3F672
:1068A000DC33002808BF0B461C6003B0F0BD00BFFE
:1068B00000C4035008C4035010E4035010D4035024
:1068C00014D4035014E4035000E00350F8B5044618
:1068D0000D461F4616464AB101238B403021194A06
:1068E00001FB0022FFB141F21001535004EB4403BD
:1068F000072D4FF00F014FEA031317D8A80006FA2F
:1069000000F281401048184428F093F956B901214B
:1069100030230C4801FA05F503FB040077B141F27E
:106920001003C550F8BD42F21001DEE7A5F10800E2
:10693000800006FA00F281400448E4E742F21003C6
:10694000EFE700BF00C0035004C003500CC0035069
:106950004FF40012064BC3F88020BFF34F8FBFF3F4
:106960006F8F0022FF21034B5A6599625A6070476E
:1069700000E100E000000450044A054B002918BF64
:106980001346012202FA00F01860704740200450BC
:106990004010045030B5047845788178C2780120E1
:1069A0000F4B41EA0541240658609C609961FF2124
:1069B00099620021996319644FF0004159654FF0C5
:1069C000FF314FF4001003F5005319650549130119
:1069D000DBB2C1F8800181F81533086030BD00BF1B
:1069E0000000045000E100E02DE9F04101250C46D3
:1069F000C3B2DFF888E0D1F800809D408F7ACB7A6F
:106A000094F80DC0097BCEF850500EF5005E4EF89C
:106A100020804FF0300E184E1B050EFB006043EA3D
:106A2000074343EA415322F00302C0F860C0C36544
:106A3000026728F0F1F8736D2B437365237A13B165
:106A4000336C2B433364637A13B1B36B2B43B3635F
:106A50002279A37943EA0243084A93616179E37991
:106A600043EA014306498B61034B55639D64BDE8CE
:106A7000F04128F0D7B800BF0000045000200450B7
:106A80000010045010B50124C0B2844028F0C4F8AE
:106A9000044B5A6D22EA04025A659C62BDE810401C
:106AA00028F0C0B80000045010B50124C0B28440E2
:106AB00028F0B2F8074BDA6A224209D15B6B34EA5C
:106AC00003030CBF0124002428F0ACF8204610BDBD
:106AD0000024F9E70000045041F67132034BDA63F9
:106AE000012203F50053DA60704700BF0000035035
:106AF00041F671320121044BDA6303F50052D16093
:106B00000022DA63704700BF00000350014BD3F846
:106B10009400704700400050CB784A7810B55B0174
:106B20000C7843EA82030A79234343EA02130C22D6
:106B3000424302F1B0421363012C02BF8A78024B38
:106B400043F8202010BD00BFD080035008B54FF09F
:106B5000B0435A6802B960B15B680BB128F081F8A4
:106B60004FF0B04130B10120074B586028F079F860
:106B7000C86008BD28F075F80223CB6028F071F8D2
:106B80000122024B5A60F4E7001000580020005820
:106B90004FF0B0435B6870B50BB128F062F801218B
:106BA000104B4578596083780679002BC37814BF61
:106BB00002240024002B14BF042200224379DB00AE
:106BC00043EA06132B43234313434FF0B042936031
:106BD000054B59600378002B14BF0B460223D3608A
:106BE00070BD00BF0020005800100058054B5B69C5
:106BF000C3F38512827003F03F021B0B42700370D7
:106C0000704700BF00C007500120034B9B680A3348
:106C100003F01F03984070470080E00F0D4B98422F
:106C200008D1A3F50033C3F88411C36D43F080038A
:106C3000C3657047084B984204D1A3F51033C3F8DD
:106C40009411F2E7054B984204BFA3F52033C3F833
:106C5000A411EAE70080055000C00550000006506E
:106C600070B5054616461C4619B90320FFF724FBEC
:106C70000146402C1BD003D8DCB1202C1BD070BDAA
:106C8000602CFCD1042303FB06F2560806EB4113EB
:106C9000B3FBF2F3094A203B02EAC303AA6822F0DD
:106CA0006002AA60AA681443AC60EB61E7E70623C0
:106CB000E9E71023E7E70823E5E700BFF8FF7F00D7
:106CC000012200F5805310B55A6040F6AA6341F2E4
:106CD00005024361002312498360C365C26000F569
:106CE00000520361C361C36491640E4983658842A5
:106CF00006D00D4CA04203D004F58044A0420BD135
:106D00008842036506D0084B984203D003F58043C0
:106D1000984201D1002343650123536010BD00BF99
:106D2000FFFF01000080055000C0055070B50D4602
:106D3000FFF7C6FF012300F580567360AB7C044665
:106D40001BB1836843F080438360EB7C1BB120461A
:106D5000297DFFF763FF2A8A6B7B20461343EA896C
:106D60001343E3602B7BD5E90112FFF779FF6B7DBD
:106D70001BB1A36843F48033A360AB7D1BB1A36850
:106D800043F40043A360EB7D2A7E1B07120502F447
:106D9000E00203F0E0431343A3656A7E931E012BD8
:106DA000214B20D89C421AD003F580439C4218D036
:106DB00003F580439C420CBF02234FF0FF3341F2A6
:106DC000AC5102205B0103F1A04303F5703358502E
:106DD000032A23D10423F3652B78636170BD00235C
:106DE000EDE70123EBE79C4214D0104B9C4213D0FB
:106DF00003F580439C420CBF02234FF0FF3342F265
:106E0000AC5102205B0103F1A04303F570335850ED
:106E1000012ADEE70023F2E70123F0E7042204F56C
:106E20000053DA65D8E700BF0080055000C0055068
:106E300038B50446054D2CF09CF90FCC0FC594E8ED
:106E40000F0085E80F00002038BD00BFC4280020D7
:106E500047F6FF739A42F0B566D0022966D8344DE2
:106E6000CF0015F8313005EBC100012B847813D128
:106E70000025C3781B1B9D4202D3E018C0B2F0BDB1
:106E8000591B4668A3EB510136F911609642D4BFF5
:106E90000D4601F1FF33EEE740680028EFD0B0F96E
:106EA0000030934204DBB0F902309342B8BF13467E
:106EB00082883D44FF2A19BFC8214FF0280CB0F941
:106EC0000610B0F908C0A1EB03020CBF0126002692
:106ED00092FBFCF26D78324412B2954201DD002A39
:106EE00001DA6A1E12B24FF47A7700EBC206F1881B
:106EF000B668013213FB016112B221EAE1715C3123
:106F00009542B1FBF7F104DD00EBC206B6888E4274
:106F1000EBD200EBC20232F8040C884228BF0846CC
:106F2000A04238BF2046A9E7FF20A8E70020A6E737
:106F3000C42800200229F0B553D82B4800EBC10427
:106F400010F83110636801290FD1E078A4789042DD
:106F500094BFC4EB0001C4EB0201001BCAB2824221
:106F6000C8BF002233F91200F0BD002B39D0A17840
:106F7000914202D3B3F90200F6E7E178B3F90000D9
:106F80009142F1D999886478A1F1FF06013C7142E0
:106F900003F10405E4B2714103F10C071FFA82FC0E
:106FA000CEB2B44216D805EBC1014FF47A756A43EC
:106FB000B1F902404968521A04EBD47102EB610244
:106FC00092FBF4F29042CFDBB3F902009042CBDCAB
:106FD00010B2C9E737F831E04E1CE645E3D331463D
:106FE000DEE70248C0E700BFC42800200080FFFFA2
:106FF00008B50448FFF71CFFBDE8084001202CF04D
:10700000DBB800BFFCAB03007FB50222084B094987
:10701000CDE901234FF00073CDE90313052301A946
:107020004FF0FF3005932CF004F907B05DF804FB36
:10703000006A1800000204002DE9F0418CB0884677
:10704000DDE912761D460446002847D0002945D0C8
:10705000002F43D0002E41D013F00F033ED1204823
:107060002049A360002A18BF0146E361C4E9001368
:10707000404609A927F08AFF68BB2046099927F0F6
:107080000CFE2946204627F008FE6946404628F0B7
:107090001CF800BB6946204627F0EBFD404603A9DB
:1070A00028F01EF8B8B9204603A927F0E2FD06979C
:1070B0000127204645F0005506A90797089527F0B7
:1070C000D8FD204609A909960A970B9527F0DBFD04
:1070D000204627F0E5FE0CB0BDE8F0812120FAE75C
:1070E00000010104000100042DE9F04F97B089462A
:1070F00090461F460546DDF880A0002800F0BD80C0
:10710000002900F0BA803AB1229B002B00F0B58034
:10711000239B002B00F0B180BAF1000F00F0AD808E
:10712000219B002B00F0A98077B13C680026229BB0
:1071300043440293464509D3002F00F0A08000206D
:107140003C6017B0BDE8F08F3C46EFE75CB1229B96
:10715000219A9B5D125D01345340239A04F00F0481
:1071600093550136E6E7A8EB060BBBF10F0F58D994
:10717000444B4846C5E90034AC60EC6113A927F0E4
:1071800005FF0028DDD1284613992BF00F0B27F0BF
:1071900084FD5946284627F080FD484604A927F07B
:1071A00094FF0028CDD1284604A927F062FD484667
:1071B00007A927F095FF0028C3D1284607A927F083
:1071C00058FD01232299304ACDF828A00B930C9248
:1071D0008A190D9228464BF000520AA90E93039289
:1071E0000F9227F046FD28460DA927F042FD239B6C
:1071F000039A99190123109111931292224A284659
:1072000010A9CDF84CA01493159227F03CFD284608
:1072100013A927F038FD284627F042FE5E440028D7
:107220008FD1229B03EB060B239B1E44029B5B45E5
:1072300001D146467EE7ACB9219B2246CDE900A3A9
:10724000494610232846FFF7F7FE00287FF479AF60
:107250000AF1100212F8013D0133DBB213700BB9D1
:107260009245F7D1219A1BF8013B125D013453403E
:1072700006F8013B04F00F04D8E7212061E7384607
:107280005FE700BF03030004100000202DE9F04F6A
:1072900097B00F46144699468346209EDDF88880B5
:1072A000DDF890A0269D002800F09F80002900F0C6
:1072B0009C801DB1259B002B00F09780B9F1000F39
:1072C00000F09380B8F1000F03D0219B002B00F059
:1072D0008C803CB1239B002B00F08780BAF1000F1B
:1072E00000F08380C6F10F02D2B2032A05D8012133
:1072F000D20001FA02F2A24277D9022D75D0102DE8
:1073000073D815F0010270D1F11F06296DD83849E4
:107310000AEB0400884268D236493846CBE90012AD
:10732000CBF80820CBF81C2013A927F02FFE00284B
:1073300058D15846139927F0B0FC584645EA064103
:1073400027F0ABFC4146584627F0A7FC214658469B
:1073500027F0A3FC384601A927F0B7FE002841D149
:10736000584601A927F085FC384604A927F0B8FE45
:10737000002837D10127584604A927F07AFC239B1F
:1073800048F000520793219B584644F000540DA941
:1073900046F00056089709940A930B970C92CDF883
:1073A00034900E970F9627F064FC58460AA927F0F0
:1073B00060FC584607A927F05CFC259B584610A99D
:1073C00045F00055CDF840A01197129413931497EF
:1073D000159527F058FC584613A927F054FC584639
:1073E00027F05EFD17B0BDE8F08F2120FAE700BF5F
:1073F00000800120000005042DE9F04F99B00F46F0
:1074000014469B468046229EDDF89890289D0028D1
:1074100000F0B280002900F0AF80279B002B00F025
:10742000AB80BBF1000F00F0A780249B1BB1239B16
:10743000002B00F0A1803CB1259B002B00F09C802C
:10744000B9F1000F00F09880C6F10F03DBB2032BF7
:1074500006D80121DB0001FA03F3A34240F28C803D
:10746000022D00F089806B1E0F2B00F2858015F035
:10747000010A40F08180F31F062B7DD83F4B09EBBA
:107480000401994278D23E4B3846C8E9003AC8F820
:1074900008A0C8F81CA015A927F078FD034600280D
:1074A00066D14046159927F0F8FB404645EA06416B
:1074B00027F0F3FB4046249927F0EFFB2146404696
:1074C00027F0EBFB384603A927F0FFFD0346002811
:1074D0004ED1404603A927F0CCFB384606A927F039
:1074E000FFFD0346002843D10127404606A927F0A7
:1074F000C0FB259B4046099344F000530A97019333
:107500000B93239B46F000560C93249B0D9743F05E
:1075100000510E910FA9CDF83CB01097119627F0AD
:10752000A8FB40460CA927F0A4FB404609A927F078
:10753000A0FB019B404612A9CDF8489013971493E5
:1075400027F0A1FB279B404615A945F00055159350
:107550001697179527F08DFB404627F0A1FC0346B0
:1075600030B101902246514648462EF024FE019B40
:10757000184619B0BDE8F08F2123F9E700800120FB
:10758000000006047FB50E461D460446F0B102B960
:10759000E3B901230192029345F0005303930023C2
:1075A0000B4AA360C4E90023E361204601A927F048
:1075B00060FB3146204627F070FB2046294627F025
:1075C0006CFB204627F06CFC04B070BD2120FBE76B
:1075D0000000094330B5048804F4E043B3F5005FCC
:1075E00034D1C4F30223042B30D181F0AA6383F495
:1075F000807333F47E1309D081F0AA6383F400739F
:1076000033F47E130CBF0123002300E001230BB1F0
:10761000C1F30543164D21F47E11A94221D1B4F5E1
:10762000105F1ED14188B1F5807F03D021F0400169
:10763000802919D1191F0C2916D8DB0714D4073A51
:10764000062A8CBF6FF08600002030BD42F2040392
:107650009C4204D181F0052383F48013D0E70023FA
:10766000D5E76FF08500F0E76FF08600EDE700BF2B
:10767000000140052DE9F04F2DED028B99B08146B8
:10768000DDE9287608EE102A1D468B46DDF8A88035
:10769000DDF8BCA041B138B1249B2BB1269B0BB9BE
:1076A000279B0BB91FB94EB16FF0860486E02EB14F
:1076B000B8F1000FF8D02B9B002BF5D02C9B002BA2
:1076C000F2D0BAF1000FEFD02E9B002BECD02D9B07
:1076D000002BE9D0B9F8003003F4E042B2F5005FC6
:1076E00072D1C3F30222042A6ED185F0AA6383F417
:1076F000807333F47E1309D085F0AA6383F400739A
:1077000033F47E130CBF0123002300E001230BB1EF
:10771000C5F3054329464846259ACAF80030FFF7C5
:1077200059FF0446002849D1202201460DEB0200F2
:107730002EF041FD2022214610A82EF03CFD08A885
:1077400027F0C1FB002858D118EE102A59464846A8
:1077500010AB27F033FD044600282FD12B9B9E420F
:107760004ED8DAF800302E9A934249D8474508D2CD
:10777000BB19984505D23946324640462EF001FDE8
:107780004746214B25F47E159D4228D1DAF800307A
:10779000324606932D9B0397CDE90483279B10A9BE
:1077A0000293269B08A80193259B0093249BFFF737
:1077B0006DFD21281BD0E8B92C9B1E60204619B016
:1077C000BDEC028BBDE8F08F42F20402934204D17B
:1077D00085F0052383F4801392E7002397E76FF089
:1077E000880400232C9A1360CAF80030E6E76FF093
:1077F0008604F6E76FF09204F3E76FF09204DDE79A
:107800006FF08904DAE700BF000140052DE9F04F71
:1078100099B08A46DDE926659346984681462A9FB7
:1078200028B96FF08604204619B0BDE8F08F002912
:10783000F7D0229B002BF4D0249B13B9259B002B5F
:10784000EFD10EB9002DECD117B92B9B002BE8D14D
:107850002C9B002BE5D0289B002BE2D041464846CC
:10786000239AFFF7B7FE04460028DCD12022014608
:107870000DEB02002EF09FFC2022214610A82EF0D6
:107880009AFC08A827F01FFB10B16FF09204CAE71A
:107890005A465146484610AB27F090FC0446002853
:1078A000C1D12B9B9D422AD8BE4208D273199F4258
:1078B00005D231462A4638462EF063FC3E46144B2C
:1078C00028F47E1898451DD1299B2A460693289BAB
:1078D0000396CDE90473259B10A90293249B08A865
:1078E0000193239B0093229BFFF786FD212898D0CC
:1078F0002C280AD00028C8D12C9B1D6093E76FF07C
:10790000890490E76FF088048DE76FF094048AE7AC
:1079100000014005084B984202D0084B984207D11D
:107920000B88B3F5105F0CBF00206FF08500704727
:107930006FF08500704700BF004440040013C0048E
:107940002DE9F04F98460023A3B08246DDE92E755D
:10795000DDE93069CDE90633CDE90833CDE90A33F5
:10796000CDE90C33DDF8C8B005920491002900F090
:10797000E580002A00F0E28017B9002D40F0DE809B
:107980002C9B1BB92D9B002B40F0D8801EB9B9F160
:10799000000F40F0D380BBF1000F00F0CF805146C4
:1079A0004046FFF7B7FF044678B90146202212A8E7
:1079B0002EF001FC202221461AA82EF0FCFB12A872
:1079C00027F081FA28B16FF09204204623B0BDE879
:1079D000F08F5046DDE904121AAB27F0EFFB0446A6
:1079E0000028F2D11A9827F0A5FB04460028ECD114
:1079F00015B9CBF80000E8E7B7420BD27B199E42DD
:107A000008D24D4500F29A8039462A4630462EF07B
:107A1000B8FB37464F4B98451BD003F5407398454C
:107A200017D04D4B984540F08C804D4500F2868034
:107A300015F00F0240F082802B46CDE900761AA99E
:107A400012A8FFF7F9FA0746002846D1CBF80050F4
:107A5000BBE700234D45CDE90E33CDE910336DD89A
:107A60003E4B98452D9B46D10D2B67D101238DF8B8
:107A700038302C9B0DF1390203F10C0153F8040B43
:107A80008B4242F8040BF9D11B78137001238DF857
:107A9000473015F00F0825F00F0A55D007EB0A0301
:107AA0000DF1280C03F1100E62461868596808336E
:107AB00003C273459446F7D1BAF1000F2ED006AB3E
:107AC00001930EABCDE902760093524600231AA92A
:107AD00012A8FFF709FB0746E8B14A4600213046E5
:107AE0002EF069FB0023012FCBF800307FF46BAF41
:107AF0006FF08B0469E7102B20D12C9B0DF1380C13
:107B000003F1100E624618685968083303C27345C2
:107B10009446F7D1BDE7B8F1000F97D00AAB0293B6
:107B200006AB06EB0A0201930EAB039200934246AA
:107B300000231AA912A8FFF7D7FA84E76FF086048A
:107B400043E76FF0850440E7BAF1000F3FF47EAFE2
:107B5000B5E700BF0010C004004440040013C00497
:107B60002DE9F04F994600239FB08246DDE9286554
:107B7000DDE92A78CDE90633CDE90833CDE90A33CA
:107B8000CDE90C33DDF8B0B00592049129B96FF05E
:107B9000860420461FB0BDE8F08F059B002BF6D071
:107BA0000EB9002DF3D117B9B8F1000FEFD1BBF129
:107BB000000FECD051464846FFF7ACFE04460028C3
:107BC000E7D1014620220EA82EF0F5FA2022214608
:107BD00016A82EF0F0FA0EA827F075F9002844D167
:107BE000DDE90412504616AB27F0E8FA04460028F7
:107BF000CFD1169827F09EFA04460028C9D115B9AE
:107C0000CBF80000C5E7BE420AD273199F4207D2E3
:107C10004545BCD831462A4638462EF0B2FA3E4693
:107C2000344B99454BD003F54073994520D0324BE6
:107C3000994556D1454557D82B07A8D12B46012247
:107C4000CDE9006716A90EA8FFF7F6F90646CBF8AE
:107C5000005000289DD04246002138462EF0ABFA55
:107C60000023012ECBF8003041D06FF0920490E752
:107C70000D3D454538D801238DF8283033460DF1A8
:107C8000290206F10C0153F8040B8B4242F8040B55
:107C9000F9D11B780D36137000238DF8363001238F
:107CA0008DF8373006AB01930AAB00932A460023C8
:107CB000CDE9026716A90EA8FFF716FAC6E7103D30
:107CC000454511D833460DF1280C06F1100E6246D9
:107CD00018685968083303C273459446F7D11036C3
:107CE000E0E76FF0850454E76FF0890451E76FF027
:107CF0008B044EE70010C0040044400410B54FF45C
:107D00002F72002104462EF056FA8023C4F88C30DE
:107D1000054B04F19C00C4F88430012384F88830BA
:107D2000BDE8104026F0FFBDE8AC030010B5D0F868
:107D3000A0400A4674B927F058FC044640B12D28EB
:107D400096BF074B074953F82010074827F09CFDC2
:107D5000204610BDD0F8A4101046A0470024F7E735
:107D600090AD0300EBAC030022D4030073B590F890
:107D7000805004461DB10025284602B070BD27F092
:107D800064FA0028F7D1012384F8803094F8883011
:107D900033B1D4F884101A4884F8885027F074FD61
:107DA0004FF0FF36D4F8B402421C22D0C4F8B462BB
:107DB00010F0FF011BD02046019127F043FA204626
:107DC000019900F0A7FB0028ECD0204627F04BFAE1
:107DD00094F888303BB1D4F88410094827F054FD5A
:107DE000002384F88830002384F88030C4E701251C
:107DF000D8E727F02EFD431CDAD10125F3E700BFB9
:107E0000DCD00300F8B50B780546302B0E4617463C
:107E100004D14B7803F0DF03582B12D02A49721E8D
:107E200012F8014F002C38D10A222146304626F0A4
:107E3000DBF8202D03460A4634D1631A58425841D4
:107E400017E04A1C204912F8013F9BB930462EF03A
:107E5000C4F91E4B02382B40032B15D16B1C48BFB5
:107E60002B1D9B1083420BD1B07837288CBF00208C
:107E70000120F8BD5B5C13F04403E4D11846F8E739
:107E8000CCBF01200020F4E7002DB8BF0335B0EBD4
:107E9000A50FD4BF01200020EBE7635C13F00403BF
:107EA000BED1EBE727B1084302D0013B61F10002EC
:107EB000012000FA05F5013D1D40002A08BF9D4242
:107EC00018BF0020D5E700BFD11B040003000080CD
:107ED00070B503787B2B16D10546022100220B4E8C
:107EE00015F8014F7D2C05D1435C63B9D04300F0F8
:107EF000010070BDA35D13F0440302D001320131D3
:107F0000EEE7202CFBD00020F3E700BFD11B0400DC
:107F100070B506460D462EF060F90446304627F04F
:107F2000B3FC044EAC4200D370BD304627F0ACFC2D
:107F30000134F7E70CC803002DE9F84F044602218D
:107F40005048FFF7E5FF1E212068FFF7E1FF636857
:107F5000586827F099FC4C4827F096FC67683B7BF3
:107F6000FD2B12D8D7F808804FF0FF3640462EF090
:107F700034F90546DFF80C91DFF86CA1DFF844B165
:107F80000C3717F8013BFF2B01D1BDE8F88F212BEF
:107F900017D8212B33D8DFE803F06D736F11181A4F
:107FA0001C1E323232323232323220222426282A29
:107FB0002C2E32323232323232326930334C1DB3EF
:107FC0001FE0FE2B5AD0324CF9E7324CF7E7324C27
:107FD000F5E7324CF3E7324CF1E7324CEFE7324C45
:107FE000EDE7324CEBE7324CE9E7324CE7E7324C55
:107FF000E5E7324CE3E7324CE1E7324CDFE7244C73
:1080000005B10136202BBCD002214846FFF780FF86
:108010001E214846FFF77CFF504627F035FC5946A5
:1080200020462EF0D0F82849002818BF21462748BE
:1080300027F02AFC3B78202B02D12B2027F018FCBC
:10804000234827F021FC4DB118F806301F2B05D02E
:1080500018F806001F2801D0AE4203DB0A4827F0BB
:1080600013FC8EE727F004FC0136F1E7002D88D0E1
:10807000184CC6E7184CA2E7184CA0E7184C9EE72E
:10808000184C9CE7779C0300EFB203005EAE030040
:1080900048AE0300ADAE030064AE0300A5AE03001E
:1080A000A1AE030098AE03008EAE030084AE0300C1
:1080B00099AE03008FAE030085AE03007AAE0300D5
:1080C00073AE03006AAE03005BAE0300DCD00300B6
:1080D000B5C2030050AE03005DAE030063AE030003
:1080E00030660300ACAE0300DAD403002DE9F04F94
:1080F0009DB0054688469146002604932EF06DF803
:10810000269F049B07901E6028463E600CAA0BA980
:1081100027F0DBFB0446002840F0C2800C982EF0CC
:108120005CF82646049B01941860D5F89C300393B4
:10813000039B1BB920461DB0BDE8F08F039B9B68D5
:108140000293002B77D02E4416F8013B202B13D03E
:1081500000260C237343029AD15802EB030B00292B
:1081600064D00B9B019A069393425FDB9BF8083027
:1081700033B106F1010A3FE03B6801333B60E3E7BE
:108180003B68D5F894201CA8D21A049B05911A606C
:10819000019B00EB830353F8403C184609932EF0F3
:1081A00024F882460028E4D10599084608912EF06B
:1081B00014F8DBF80430024693F80CC00593BCF1C8
:1081C000FE0FD7F800B0DDE908131AD1069800F1C8
:1081D000FF3E0198864514D0059A184612680BF1A7
:1081E000010B02922DF0F9FF584438603B68EA5CBD
:1081F00022B1019B013301935646AAE701333B604C
:10820000F4E7D5F894300991A3EB0B03934208925D
:1082100021DC40462DF0E1FF089A099910447B28A3
:108220000DD9494640461F4A26F0A4FB079BEA1891
:108230002B4693422DD1039B1B68039378E70A4694
:108240004046494626F096FB49464046164A0134C8
:1082500026F090FB8DE7BCF1FE0F8AD1069B019AB8
:10826000013B934285D1059BD3F800A05AF80C2B13
:1082700022B9079B3B60049B1A60D7E749464046FA
:1082800026F078FB49464046074A26F073FB013446
:10829000ECE7197811B94FF0200119700133C8E7E4
:1082A000344647E7B3AE03000CC803002DE9F0479E
:1082B000002486B01C60DDE90EA8064689468AF8CF
:1082C00000401168154888F8004017461D468DF893
:1082D0001740FDF7A7F918B901242B6801332B606B
:1082E0000020D6F89C6036B914B1012388F800301C
:1082F00006B0BDE8F087B06868B14B460021CDE913
:1083000002A8CDE900750DF1170227F00DF99DF8CF
:108310001730002BE8D13668E5E700BFB8AE0300A0
:108320002DE9F04700260446ADF5447D7C22314618
:1083300005A80DF1080804962DF03DFF8022204687
:10834000CDF8008003AB04A9FFF7D0FE01283ED191
:1083500004A82DF042FF0399D8F80030471A0B44C7
:10836000234427EAE777054604A801443A4618461D
:108370002DF0FAFEC655D4F89060039BD8F8001093
:10838000D4F890201944B14212DCD4F89410E81AC1
:108390000244C4F89020014404AAC4F89410D418EC
:1083A00025182B1B002B0DDC0DF5447DBDE8F08757
:1083B000A05C27F05DFAD4F8903001360133C4F8A0
:1083C0009030DAE714F8010B27F052FAE9E7EBDD19
:1083D00024AD8022314628462DF0EDFE44AB4FF40B
:1083E0000072184631462DF0E6FE0DF1100A0346E4
:1083F00052464FF0010912F8017B002F48D143F893
:10840000296004A82DF0E9FE29463B461AF8016BC5
:1084100044AF57F8042B824243D10133994501F808
:10842000016BF3DAD4F89060039BB34242DC23463D
:10843000364A04A9364827F027FA28462DF0CDFE03
:10844000039ED8F8007035443744861B26EAE6724E
:10845000E3191744E01904F1900188424FD904F15F
:1084600098018B424BD218466A1E99190B1A002BA1
:1084700039DD12F8013F00F8013BD4F890300133A8
:10848000C4F89030D4F894300133C4F89430EDE758
:10849000202F06F1010604BF43F8296009F1010904
:1084A000A9E70DF1100C6244D25CB242B1D00022B7
:1084B000EA54B7E7D4F890300136E05C27F0D8F9F9
:1084C000D4F890300133C4F89030ADE7D4F8902060
:1084D000013B0132C4F89020D4F894200132C4F852
:1084E0009420002BF2DC00232E44E355731B002B59
:1084F0007FF75AAF15F8010B27F0BAF9F6E71846DF
:1085000029462DF031FE3346EBE700BFE8AC03000F
:10851000BDAE03002DE9F843D0E9245604460F46CA
:10852000002294F89830012B06D10A2F06D10020A2
:1085300084F89800BDE8F88300F2A0801B2F03D1D7
:10854000022384F898303BE0A7F10D0253425341D7
:10855000082F84F8983035D1002D30DDB5420FD189
:10856000384627F085F9202027F082F9384627F091
:108570007FF90023013D6355013EC4E924561FE005
:10858000FBDA05F1FF38384627F072F904EB0803EF
:10859000A6EB0802611918462DF0F3FD00220146F2
:1085A000A2554E48013E27F06FF93546454501DC9E
:1085B0004546E2E7082027F05BF9013DF6E7DCD10C
:1085C0000020B7E77F2F1CD1002EF9DDB542F7DA86
:1085D0006319691C721B214418462DF0D2FD00223C
:1085E0000146A2553E4827F04FF90820013E27F0EA
:1085F0003FF9B542F9D1D4F89430013BC4F8943036
:10860000DEE70D2F01D00A2F0AD10D2027F030F917
:108610000A2027F02DF900230120C4E9243389E73B
:10862000092F03D12046FFF77BFEC9E7D4F88C3031
:10863000013BB342C4DDB54204EB050805F1010975
:108640000CDB384688F80070D4F89430C4F8909069
:108650000133C4F8943027F00BF9B1E74146721B9F
:1086600004EB09002DF08DFD404627F00DF90820A0
:10867000013E27F0FDF8B542F9DDE2E7022B06D115
:108680005B2F01D103235CE784F8982049E7032B93
:1086900096D1413F84F89820032F91D8DFE807F066
:1086A00002070A150121204627F08AF888E74FF0D3
:1086B000FF31F8E7B54283DA605D27F0D9F8D4F8E6
:1086C00090300133C4F890307AE7002D7FF778AF0F
:1086D000013D0820C4F89050BDE700BFC6AE0300BE
:1086E0009AC3030013B50024064A6846536F43F04B
:1086F0000103536700948DF80440FEF799F8204673
:1087000002B010BD0040005008B50248FDF722FF3E
:10871000002008BD00B4C40430B58BB06C46174DC2
:108720000FCD0FC40FCD0FC495E8030084E80300FC
:10873000134BD3F84C21120317D4D3F85041E4B2B1
:108740008DF81940FDF7F0FF204480F308008DF804
:1087500018000C48FCF750FD6846FDF74DFF32202D
:10876000FEF726F800200BB030BD074B1C884FF6F3
:10877000FF739C4208BF8124E2E700BFCCAE030038
:108780000080E00F00F049020001E00F30B5094D14
:1087900087B001AC0FCD0FC42B6801A823604F2315
:1087A0008DF80530FDF7C6FF6420FDF7FBFF0020C4
:1087B00007B030BDF4AE03006FF00402502110B5D5
:1087C0000A480B4C12F0800FD3B21BBF03F00F030B
:1087D000043BA3181B1802F101020CBF83F800131D
:1087E00019763D2AEED1002010BD00BF00ED00E05B
:1087F00000E100E010B5044626F0FFF9024B1C60D2
:1088000026F0FFF9002010BDEC28002010B526F05E
:10881000F4F9034B1C6826F0F4F9204610BD00BFA4
:10882000EC28002013B513460C4618B90192FFF747
:10883000EDFF019B01462246044809F0E1FD0028B6
:10884000D4BF3720002002B010BD00BF23FA0200C1
:1088500030B51446054687B0104627F016F963690F
:10886000024683423CBFD4E903315B181B1A7BB13B
:108870000F49284603910021CDE9013101230494D9
:108880000093D4E9001326F050F9002007B030BD62
:108890000122627694F82D20002AF6D084F8353033
:1088A0001321E369204698472046636A9847ECE71E
:1088B000518800002DE9F04788B0044688461746E5
:1088C000994626F0A9F98246002F7AD0237E03F03C
:1088D000FF02002B00F0A280204627F0D6F8666940
:1088E000B04205D1637ED4E903521544AD1B01E0CB
:1088F000F9D9851BBD4228BF3D4626F08DF994F875
:108900002D300646002B6DD12A46404661692DF078
:108910002BFC63692F462B44636121E0037803F04D
:10892000FD0111295BD1216B814205D1A3F1110118
:108930004B424B4184F83430013F6369216B013273
:108940008B4203F1010308BF2363636195426069B1
:10895000E4D1D4E90323216B1344994200D122636B
:108960000025D4E9032361691344994208BF626179
:10897000207A6576FDF7C0F8204627F086F863690F
:10898000834232D1257694F82D30E568656103B1D4
:1089900025632046636A9847214B2A4603930023A8
:1089A00002932369216801930123207A00930494A0
:1089B000636826F0BAF8207AFDF7BEF8304626F054
:1089C00031F95046C9F8007026F02CF9D9F800307A
:1089D000002B0CBF1B20002008B0BDE8F08708F872
:1089E000013BAAE72F460022B0E70123207A237635
:1089F0000DF11E01FDF708F99DF81E30002BDAD0AD
:108A00000DF11F01207AFDF7D7F89DF81F100029FE
:108A1000D1D12246207AFFF71BFFCCE71746D0E7DB
:108A200051880000002808DB0123420900F01F00E4
:108A300003FA00F0014B43F82200704700E100E028
:108A4000002809DB0122430900F01F0002FA00F0B0
:108A5000024A603342F82300704700BF00E100E0A3
:108A600070B504460568FFF7D1FE844202D10020AC
:108A7000FFF7C0FE95F93600FFF7E2FF95F93630B3
:108A8000002B0DDB01215A0903F01F0301FA03F348
:108A90001849203241F82230BFF34F8FBFF36F8F58
:108AA00095F93700FFF7CCFF95F93730002B0DDB38
:108AB00001215A0903F01F0301FA03F30D49203283
:108AC00041F82230BFF34F8FBFF36F8F287AFDF745
:108AD00053F8287AFCF7B6FFFCF792FF00232846EC
:108AE000C4E90033C4E90433A360AB6ABDE8704055
:108AF000184700BF00E100E02DE9F0410C461546A3
:108B0000064686B04022002120461F462DF053FB2A
:108B100095E8030000232A692376EB6884E80300C4
:108B2000C4E904232A7DE36084F82C20AA7D236312
:108B3000012384F8343084F835300C9B84F82D20E0
:108B400023620D9BE76163620E9BA3622B7A84F81C
:108B500036306B7A84F837302D4B346073602D4B90
:108B6000B3602D4B33612D4B73612D4BF360FCF7DC
:108B70008FFF38B12B4B984204D01024204606B00A
:108B8000BDE8F081002104F10800FCF709FF074669
:108B90000028F2D14FF00108234B3362234B84F8B5
:108BA0003C80B361224BF3619DF8403084F839007A
:108BB00084F83B309DF83C30204684F83A30697D9B
:108BC00084F8388026F071FF95F90900FFF738FF27
:108BD00095F90900FFF726FF164B0494CDE90273BF
:108BE0002369CDE900836368E2682168207A25F073
:108BF0009CFF04460028C0D195F90800FFF720FF2C
:108C000095F90800FFF70EFF3046FFF7F3FDB5E7D3
:108C1000FBFA0200B588000079FA02007FFA020030
:108C2000618A0000038000F04FFA0200ABFA0200F4
:108C300085FA0200518800002DE9F0414FF001084B
:108C40001C46584B86B00293574B0C9D0193574BD3
:108C5000174600930A46CDE903882946544BFFF78F
:108C60004BFF0646002876D1236804222B64237923
:108C700085F84430A17985F84610607985F845007B
:108C8000237A85F84830E37985F84730A37A85F868
:108C90004A30637A85F84930237B85F84C30E37A93
:108CA00085F84B304346FDF711FE43460222217AF8
:108CB000E079FDF70BFE3E7039462068FEF736F886
:108CC0001421A27B3B4B03EB4210C0F8AC1594F887
:108CD00006C061792E3203EB421341EA0C41596020
:108CE000227AE37943EA0243C0F8BC3585F84D6047
:108CF0007B7E032B53D8DFE803F01F02324D0123A4
:108D0000002785F84D3000230222A17A607AFDF712
:108D1000DDFDA17A627AA37B42EA014241F2B451BD
:108D20005B0103F1A04303F570335A50042223681A
:108D300003F58053DA65AFB963792A6C85F845305D
:108D4000A379052185F84630D36C206843F00403ED
:108D5000D36425F0C9FF304606B0BDE8F081022398
:108D600085F84D3000230422217BE07AFDF7AEFD2B
:108D700041F2AC520221A37B5B0103F1A04303F556
:108D800070339950217BE27A42EA014241F2B851B4
:108D90005A50D1E70323012785F84D30B3E7232646
:108DA000D9E700BF25FC020019FC0200A9FC020063
:108DB0009DFC020000C0035007B501F0D7FB6A46D6
:108DC00001F03AFC18B15221034800F0DBFADDE96A
:108DD000000103B05DF804FB08AF030008B501F023
:108DE00001FB18B17A21024800F0CCFA002008BD3E
:108DF00008AF030008B500F029FA0E4A536A43F49D
:108E000070235362EFF308834FF0CD310A4A043BDD
:108E100093420BD20222094B1A6700F04DFCFFF778
:108E2000DDFFBDE808400648FEF702B843F8041924
:108E3000EEE700BF00ED00E0000000200040005021
:108E4000FCAB030007B5042200200DEB02012AF061
:108E50006CF9042804D040F26711044800F092FA3B
:108E6000019800F0D5FB03B05DF804FB08AF0300E8
:108E7000082310B548400A0A0649C0B200F00104B0
:108E8000400804B14840013B13F0FF03F6D15040C5
:108E900010BD00BF2083B8ED2DE9F0470025144C2C
:108EA000144FDFF85890DFF85880224649460020DA
:108EB00057F8043BEEB226F0BDFD2378A2460134FC
:108EC000002BFAD19AF801307BB10B4906F003066A
:108ED000032E08BF4146002026F0ACFD9AF8013071
:108EE0000135002BE1D1BDE8F0874146F3E700BF33
:108EF000D4BB03000010002070E803006BAF030038
:108F0000EEB2030040F605226A4B2DE9F0411B88C2
:108F100093420ED8B3F5206F0DD840F2025293421F
:108F200018D040F20172934220D040F20152934295
:108F30000AD0BDE8F081A3F602235F4C032B1ED8B4
:108F4000DFE803F0376396B25C490020BDE8F041EA
:108F500026F070BD00205A4926F06CFD564B1A6C65
:108F60000020BDE8F041574926F064BD524A002078
:108F7000D2E92423BDE8F041534926F05BBD00202F
:108F8000524926F057FD94F868309E0703D500201B
:108F90004F4926F04FFD94F86B305D0603D5002055
:108FA0004C4926F047FD94F96B30002BC1DA4A4951
:108FB000CBE70020494926F03DFD94F8643098073E
:108FC00004D00020226C3F4926F034FD94F964302F
:108FD000002B04DA0020226F414926F02BFD0025EA
:108FE0000126404FDFF80881626E06FA05F313424E
:108FF00007D057F8252013781BB14146002026F0F2
:1090000019FD0135082DEFD193E73749002026F0EF
:1090100011FD2C490020226C26F00CFD94F86530DF
:10902000590703D50020314926F004FD94F9653035
:10903000002B04DA0020226F294926F0FBFC0825CA
:10904000284E2B4F636EEB40DA0707D556F82520E4
:1090500013781BB13946002026F0ECFC0135102DA9
:10906000F0D194F8640000287FF463AF21496DE7E4
:109070002149002026F0DEFC0020226C114926F058
:10908000D9FC1025174E1A4F636EEB40DB0707D54E
:1090900056F8252013781BB13946002026F0CAFC6B
:1090A00001351A2DF0D144E70020144926F0C2FC06
:1090B000226C55E7183C00200010002075AF03001B
:1090C000B3AF0300E4AF0300FFAF03001BB0030026
:1090D00034B003006FB00300A3B00300E0B003009E
:1090E00006B1030048BA03002DB1030045B10300E7
:1090F00024B103008CB10300BDB10300D7B103005C
:109100002DE9F04F434C85B0636BD4F83CA05A076F
:1091100044BF0026B046D4F84CB05FBFD4F838A0A6
:10912000D4F848B0D4F850803B4E54BFDFF81091CB
:10913000DFF8109113F0080F384B394A18BF1A4660
:10914000B6EB08071FBF64237D0803FB0B55B5FB77
:10915000F7F50CBF3D46ADB24B4632490020CDE994
:10916000016ACDF80080BFB226F064FC2B460020D7
:10917000CDE900972C491FFA8BF226F05BFCB24533
:1091800001D8C24504D24A460020284926F052FCA4
:10919000D4E9170318433AD00020254926F04AFCA9
:1091A00000250126234FDFF8A080E26D06FA05F3C3
:1091B000134207D057F8252013781BB141460020F1
:1091C00026F038FC0135202DEFD100250126194F5E
:1091D000DFF87480226E06FA05F3134209D007EB1C
:1091E0008503D3F8802013781BB14146002026F078
:1091F00021FC01351D2DEDD100200F4926F01AFC70
:1092000000200D4905B0BDE8F04F26F013BC0B4916
:10921000F4E700BF0010002000100020FEB10300A2
:1092200005B203000DB203003FB2030079B20300A0
:1092300098B20300E0BA0300EFB20300C8B2030023
:10924000F9B103007DDB0300DBD0030010B5FDF7AF
:109250005DFC044625F0FFFC0022012101FA02F327
:10926000234018D0204B214933F81230062B18D058
:1092700040F20722934211D14FF000524FF20F00FB
:10928000548884420AD11088984207D14CF23C336A
:109290005380088010BD0132102ADFD1134A138099
:1092A00012E04FF000534FF20F025888904218D14D
:1092B0001B88B3F5406F28BF4FF4C0630B804CF29E
:1092C0003C324FF000535A80084B1A8840F2017329
:1092D0009A4201BF064B074AD2E90001C3E90001E7
:1092E000D8E74FF4C063E9E7A0BC0300183C0020B6
:1092F000F028002090100020014B1888704700BF14
:10930000183C0020014B1888000A7047183C0020C8
:10931000044B05481B881A0AB3F5406F38BF00EBB1
:1093200082007047183C0020C0BC0300044B188822
:10933000044B020A53F82230C0B203EB800070479E
:10934000183C0020B0BA030010B5044625F05CFCC0
:109350004FF000534FF20F021C805A80BFF35F8F13
:10936000BFF34F8F0549064BCA6802F4E06213430E
:10937000CB60BFF34F8F00BFFDE700BF00ED00E003
:109380000400FA0538B504460D4600F0C7F925F08B
:109390003BFC2B4622460549002026F04BFB294684
:1093A0002046BDE8384026F009BD00BFDEB203000C
:1093B0006C4A2DE9F0416C4B55686C4C5D65516A07
:1093C00099656B49D1F80002D865D1F80412586B41
:1093D0001966916A10F0040F5966D16A4FF00000C7
:1093E0009966116BD966516B1967D26BD8645A674D
:1093F000D3E90E2108BF11465E4A91421A655DD33A
:1094000001F12000A04259D88869C5F30805186405
:10941000CE69062D5E6455D1574DA84252D3574DA3
:10942000A8424FD205884DF6426085424AD118685D
:10943000C3F890005868C3F8940040F20170A2424B
:10944000154604D22E680432B6F1CD3FF7D0002283
:10945000C3E91E22C3E92022C3E92222641B434E32
:10946000DFF814C1DFF814E19C648E422DD8D3E9F3
:109470001EC7D3E92065D3E922414FF0000E013A1F
:10948000D2B2FF2A3DD1BEF1000F05D0C3E91EC7FD
:10949000C3E92065C3E92241B3F85430C3F308039C
:1094A0000C2B3CD8022B52D9DA1E092A4FD8DFE800
:1094B00002F0553241444E4E4E4E4E4B0021C3E910
:1094C00010112C494FF42060B9E756F8044D64455B
:1094D000CBD37445C9D2E507C7D50625284F57F821
:1094E000048BA045C1D0013D15F0FF05F7D10AB9A5
:1094F000052201E0013AD2B202F11E0543F82540EF
:10950000B3E7E0464FF0010EBC4637462E462546EF
:109510000C464146B3E740F60220BDE8F0813B2B04
:1095200015D1184B9B6913F0020F40F2025318BF7C
:109530001846F2E740F60320EFE740F60423B0F5C3
:10954000206F08BF1846E8E740F60520E5E740F63B
:109550000722013B4B2B98BF1046DEE740F6012067
:10956000DBE700BF00ED00E000100020001000204D
:1095700000E100E000000020344100000663030029
:10958000781000200080015A00F00CB800F00AB8F2
:1095900000F008B800F006B800F004B800F002B817
:1095A00000F000B872B61EF0080F09D01EF0040FCC
:1095B0000DD0DFF850E0AEE8FF1F6FF002000CE0C6
:1095C000DFF840E0AEE8FF1F6FF00E0005E0DFF8C7
:1095D00034E0AEE8FF1F6FF006006946EFF3098242
:1095E0008EE8070086460848084C854501D3A54506
:1095F00001D384F30888FFF7DBFE84F30888FFF7C4
:10960000A3FE0000001000204000002000100020F9
:1096100082B2074B4AB1000C1A8008BF4FF6CE2227
:10962000044B14BF18801A8070474BF6EF62F2E7C4
:10963000581500205A1500200B4BB3F9002018884C
:10964000002AB8BF80F0620042001A80074AB2F9CF
:10965000001013880029BCBF83F4805383F00B03F0
:109660005900118058407047581500205A150020A5
:1096700008B501F0A9F960B10A4B0344072B0DD8D6
:10968000072B0BD8DFE803F004060A080A0A0A0CC5
:10969000C22008BDC320FCE7C420FAE7C520F8E7D4
:1096A000C120F6E7FF1FFF0F024B9A6903F5005335
:1096B0009A6170470080015A1FB50D24002122468F
:1096C00068462CF078FD01238DF800300323104A02
:1096D0008DF809408DF80A30D2F800320D4C23F095
:1096E000070343F0010369462046C2F8003225F023
:1096F0002FFB4FF400610223074A04F50050C2F823
:1097000084118361516004F58054E36104B010BD9D
:10971000008000500080015A00E100E0014825F07F
:1097200006BB00BF0080015AF0B519B3002820DA4B
:109730002D23B0F1004F137000D04042012119E0F9
:10974000801B8642ECB205F10105F9D914B9BCF1D0
:10975000000F05D04FF0010C4D1C30345454E9B2C9
:10976000013B13F0FF0309D130305054481CC0B204
:10977000F0BD002109234FF0000C024F002557F8DF
:10978000046BDEE7F8BC03002DE9F04F002495B030
:109790002146029480461646A1464422274603A845
:1097A00002AC9B4625462CF006FD0DF1480A3178A7
:1097B00059B9641BE4B2224629460020C04700285C
:1097C00040F0AF803C44E0B2ACE025291AD0B9F1BA
:1097D000000F1BD1204600F8011B04465445C0F081
:1097E000F580641BE4B2294622460020C0470146AA
:1097F000002840F09680274448222846FFB22CF0EB
:10980000DAFCE2E0B9F1000F00D101363278782AB3
:1098100006D8612A07D8252A5DD039D8002AC8D0B1
:109820004FF00009DAE7A2F162011629F8D801A386
:1098300053F821F0E398000075990000D1990000D9
:109840002198000021980000219800002198000034
:10985000219800002198000021980000D199000073
:1098600021980000219800002198000087990000AD
:10987000219800002198000087990000219800009D
:10988000D19900002198000021980000C79800009D
:10989000392A16D82F2AC3D9717801F0DF01582947
:1098A00040F0C380322A06F1010940F0AB805BF83A
:1098B000041B2046042289B226F0A0FA04464E4634
:1098C000AEE7582AACD15BF8041B02222046C9B28D
:1098D00026F094FA55E0214601F8022B62700C46FE
:1098E0009EE74FF00009DBF800300193DBF804300D
:1098F0000093009B994502D10BF1080B90E7019B67
:109900002046022213F8091026F078FA5045044642
:1099100012D3441BE4B2294622460020C047014628
:1099200018B1002015B0BDE8F08F48222846274422
:109930002CF041FC2C46FFB2009B5A1E4A4581BFC9
:109940002046202200F8012B044654450FD3641B07
:10995000E4B2294622460020C04701460028E0D153
:109960004822284627442CF026FC2C46FFB209F159
:109970000109BEE75B4653F8042B20469B4600F8DE
:10998000012B04464CE7621BD2B2294600205BF84B
:10999000049B0092C04704460028C2D1009A0146A9
:1099A000174428464822FFB22CF005FCE2B219F811
:1099B000020001340028F9D149460092C04700282E
:1099C000AFD18146009A1744FFB22C460136EEE62D
:1099D0006C2ADBF800000BF104090ED17378752BAB
:1099E00014BF0121002101D0642B00D10136224691
:1099F000FFF79AFECB46044412E7752A0CBF0021FC
:109A00000121F4E7342A10D15E4656F804BB042243
:109A10004FEA1B41204626F0F1F91FFA8BF1042290
:109A200026F0ECF9B346044649E74FF00109D5E6C4
:109A300008B5054813460A460021FFF7A5FEB0FA0F
:109A400080F0400908BD00BFF1FD0200054B1A7807
:109A50002AB95B78002B14BF022003207047012035
:109A6000704700BF464200200329F8B598BF124B4B
:109A700005460E468CBF00245C5C032805D8DFE851
:109A800000F002080B0E44F002040C4B1F684FB9A3
:109A9000F8BD44F00804F8E744F02004F5E744F08A
:109AA0008004F2E77B681A68144203D031462846E6
:109AB0005B6898473F68EAE71CBD03001C2900204B
:109AC00038B5104D2B78ABB10F4C23781BB100F09B
:109AD0000FFB00232370002026F0AFF90B4C50B190
