S01600005A69676265655F4C696768745F5A432E73333735
S3150800600000100020C96F0008C5C80008C9C80008E4
S3150800601041370308CDC80008D5C80008413703082A
S315080060204137030841370308413703084137030856
S31508006030D9C800082C180408413703084137030853
S31508006040BD74000841370308413703084137030880
S315080060504137030841370308413703084137030826
S31508006060413703084137030841370308716D0008B3
S315080060708F320308413703084137030841370308BD
S3150800608041370308413703084137030841370308F6
S3150800609041370308BD7B0008413703084137030829
S315080060A041370308413703084137030841370308D6
S315080060B041370308A1DB0108BDE501086D9E030809
S315080060C0699E030889DD0108799E0308719E030805
S315080060D095E50108759E0308FDE5010861E60108D6
S315080060E04137030841370308E5C900084137030863
S315080060F0B14E0308413703084137030841370308FF
S315080061004137030841370308413703084137030875
S315080061104137030841370308413703084137030865
S315080061204137030841370308413703084137030855
S315080061304137030841370308413703084137030845
S31508006140413703084137030841370308C553030895
S315080061500DCC0108413703087D9B0308839B030880
S315080061604137030841370308413703084137030815
S31508006170013800D0FCE770472DE9F04F2DED088B6C
S315080061808DB09DED1E7B09EE903ADDE920430A931A
S31508006190229B09EE100A8A460792069351EC170BC2
S315080061A053EC172BB0EE478AF0EE678A2CF046FAC6
S315080061B080B14FF0FF3251EC180BCF4B2CF066FA3A
S315080061C040B94FF0FF326FF4801351EC180B2CF0E6
S315080061D03FFA98B1069B514622930A9B19EE100A7C
S315080061E0CDE9204319EE903A079A8DED1E8B0DB036
S315080061F0BDEC088BBDE8F04F00F0A2B900220023E1
S3150800620051EC180B2CF024FA002800F0448118EE03
S31508006210903A18EE108A03F10049069BC9F30A5012
S3150800622013F48063A0F2FF3008BF06240B932BF00B
S3150800623033FFA1A3D3E900232BF098FFA0A3D3E94A
S3150800624000232BF0DDFDC9F313050F4645F07F51FA
S3150800625006460022A94B404641F440112BF0CEFDDC
S3150800626099A3D3E900232BF081FF02460B4630465B
S3150800627039462BF0C5FD2CF013FA83462BF00CFF9C
S3150800628093A3D3E9002306460F462BF06FFF00229F
S315080062909B4B2BF0B5FD2CF003FA8FA3D3E9002313
S315080062A00546394630462BF061FF064628460F4616
S315080062B02BF0F2FE8AA3D3E900232BF057FF024600
S315080062C00B46304639462BF099FD02460B460646E4
S315080062D00F462BF04BFF324641EC1A0B3B46304635
S315080062E039462BF08DFD002241EC1B0B854B51ECFA
S315080062F01A0B2CF065F80022834B2BF081FD024621
S315080063000B4651EC1A0B2CF05BF800227F4B2BF056
S3150800631077FD02460B4651EC1A0B2CF051F8324623
S3150800632041EC1A0B3B4600204FF080412BF066FDEE
S3150800633002460B4651EC1A0B2BF062FD02460B4641
S3150800634051EC1B0B2CF03CF805F2FF350022704B84
S315080063502BF056FD00222B052BF008FF42464B4634
S3150800636006460F462CF092F9002840F09780CDE9B2
S3150800637008670BF16303C72B069B34BF0425052565
S31508006380190521D558A3D3E90023404649462CF0E0
S3150800639073F9002800F0BE8055A3D3E900234046D0
S315080063A049462CF055F9002800F0B48000255C45D4
S315080063B0CCBFA4EB0B000024AB46069BC8BF00F17C
S315080063C0FF3443F4806306930A9B9D4238BF5E1BE5
S315080063D0069B28BF002613F0020702D0002D18BF1F
S315080063E00026BBF1000F07D0DDE9082340464946E1
S315080063F02BF0E6FF804689460022002351EC180B55
S315080064002CF026F910B109F100439946069B51462E
S3150800641023F40063CDE9036319EE100A19EE903AE6
S31508006420CDE90089079A029400F08AF875B3069BAD
S31508006430024613F0200F00F1010619EE903A14BF38
S3150800644045206520514619EE104AA047052300222B
S3150800645005930A238BEAEB70CDE90232A0EBEB70C9
S315080064604FEADB73013D0193009019EE903A3246EC
S31508006470514619EE100A049532F0BAFA37B1079B5D
S31508006480C51A079B58190A9BAB424CD80DB0BDECF0
S31508006490088BBDE8F08F59EC188BBEE60022304613
S315080064A03946194B2BF08CFF0BF1FF3BCDE9080160
S315080064B05FE700BFAFF30080FB799F501344D33FDB
S315080064C0B3C8608B288AC63F61436F63A787D23FEC
S315080064D071A379094F930A401655B5BBB16B0240B3
S315080064E0EF39FAFE422EE63F2D431CEBE2361A3F01
S315080064F00000000080842E41FFFFEF7F0000F83F78
S315080065000000E03F00002C40000024400000184036
S315080065100000F03F002C3FF457AF0B9B002B3FF4D5
S3150800652053AF013C50E7024619EE903A51462020F7
S3150800653019EE104AA0470135A3E700BF0000000086
S315080065402DE9F04F2DED088B8FB0DDE920AB08EE75
S31508006550100A0F4608EE902A09EE103ADDE9225392
S315080065605246049350465B465946249E2CF066F8DC
S31508006570A0B9049B2396229303232193B84B209317
S3150800658018EE902A19EE103A394618EE100A0FB08E
S31508006590BDEC088BBDE8F04F32F062B94FF0FF3220
S315080065A06FF48013504659462CF052F830B1049BCC
S315080065B02396229304232193AA4BE0E74FF0FF3258
S315080065C050465946A84B2CF061F870B1A74A06F018
S315080065D00403002B08BF0322A54B1CBF1346042245
S315080065E004992396CDE92121C9E7504698A3D3E912
S315080065F0002359462CF04AF838B997A3D3E9002363
S31508006600504659462CF024F898B1049B18EE902A67
S31508006610CDE92253394619EE103A18EE100ACDE99B
S3150800662020AB24960FB0BDEC088BBDE8F04FFFF702
S31508006630A3BD00220023504659462CF009F800282D
S3150800664000F081805B465246002000212BF0D6FBE5
S31508006650012382468B46059316F4806F08BF0625EC
S315080066603021A94606ABA5F12002B9F1090FA5EB21
S31508006670090406D909F1FF394A4503F8011BF4D183
S315080066802024594650462CF00BF87A4B054603EB66
S31508006690C90393ED007BB0EE47AAF0EE67AA2BF08C
S315080066A0FBFC02460B46504659462BF0A7FB53EC1B
S315080066B01A2B2BF05BFD02460B4643EC1B2B2CF0EA
S315080066C017F880462BF0D8FC02460B4651EC1B0BFC
S315080066D02BF094FB02460B4643EC1B2B0022664B21
S315080066E02BF0D4FF88B308F1010840462BF0C4FC10
S315080066F002460B4651EC1A0B2BF0B4FF10B14FF0C3
S3150800670000080135B9F1000F51D128462BF0C4FC19
S3150800671002460B46504659462BF070FB0022564B54
S31508006720804689462BF094FF30B100224046494600
S31508006730514B2BF0ABFF10B1E80700D5013506AB7E
S315080067400A2223445AE0059086E7002251EC1B0BE7
S31508006750494B2BF07DFF0028D4D1B8F1000F02D0A9
S3150800676018F0010FCED008F10108CBE7B8FBF1F01D
S3150800677001FB1082B8F1090F02F1300209F1FF3965
S3150800678004F1010403F8012B28D83021A14406AAF4
S31508006790202C11D04C4504F1010321D104F1380213
S315080067A00DEB02042E2204F8202C1C46C7E70A210A
S315080067B006AB2344202CD9D106F00303012B06ABE4
S315080067C039D1049A002A36D0059A12B916F00C0F58
S315080067D002D0049A013A0492302214E08046E9E78E
S315080067E0A1541C46D4E795FBF2F102FB115530354E
S315080067F003F8015B01340D460029DDD0202CF2D1C7
S31508006800DAE71A5501340499A14214D9202CF8D193
S31508006810049A0093CDE9014219EE103A18EE902A2F
S31508006820394618EE100A039632F01AF80FB0BDEC86
S31508006830088BBDE8F08F202CEAD0059AF2B12D21FD
S3150800684004F138026A4402F8201C0134E0E700BF6C
S315080068500000000065CDCD410000000065CDCDC12A
S31508006860C95E0408CD5E0408FFFFEF7FC45E040816
S31508006870C05E0408D85E04080000E03F710704D52E
S3150800688004F138022B216A44DDE73207C0D504F14A
S31508006890380220216A44D6E770B58EB02C22002132
S315080068A003A835F074FF64234FF0023201210893E0
S315080068B08DF81010CDE905230B238DF83430504B95
S315080068C01B88D80700F1958008464E4C1AF0CAF87E
S315080068D04D4B0A224D494E481A704FF42873ADF8AD
S315080068E0123017F07FFF206020B940F23121494865
S315080068F005F0E8FE0521206832F005FE20B14FF4C8
S315080069000F71444805F0DEFE20680C2500F03CFABD
S31508006910414B2068196832F0A3FE1AF07DFF6843E0
S3150800692009901AF079FF68430DEB05010790206876
S3150800693012F0EAF820B140F25121364805F0C2FEBD
S3150800694000223649206832F013FF20B140F2532165
S31508006950304805F0B7FE324E40F20353314D96F9F2
S3150800696000002B8005237F28AB7001D11AF0DAF9D5
S315080069703378EB701AF050FF00EB80008000A88097
S315080069801AF04AFF0023C0004FF0FF31E8804FF0AD
S31508006990FF30AB6018A3D3E900231AF03BFA22496B
S315080069A0206833F0FFFA02A9206832F0BBFE20B156
S315080069B040F28621174805F085FE042220680DEB73
S315080069C0020132F004FE042804D040F2892111485D
S315080069D005F078FE01A9012033F070FC05F0B6FF3A
S315080069E001201BF0D7F92DF072F91BF0FDF91AF00A
S315080069F0BFF80EB070BD00BF0A0020FF42030000BA
S31508006A0072480020744200203C4B0020910A02087C
S31508006A1088120020D3A2040818110020414B002038
S31508006A20BD15002060420020310C020810B5054C47
S31508006A30237833B9044B13B1044800E000BF01239F
S31508006A40237010BDD01A00200000000078A60408A4
S31508006A5008B5034B1BB10349034800E000BF08BD56
S31508006A6000000000D41A002078A60408A3F5803A8E
S31508006A70704700BF174B002B08BF134B9D46FFF707
S31508006A80F5FF00218B460F461348144A121A35F0B3
S31508006A907EFE0E4B002B00D098470D4B002B00D0E6
S31508006AA098470020002104000D000D48002802D058
S31508006AB00C4800E000BF2BF0E7FF200029002CF06F
S31508006AC0A7FB2BF0CDFF00BF000008000000000068
S31508006AD00000000000100020A0170020844B0020B2
S31508006AE0000000000000000030B50A4C0A4B22687E
S31508006AF00A4D1A600A4B85B02B600A4B019304F0C5
S31508006B005DFF2B68029001A9206803932DF03BFED8
S31508006B1005B030BDA8100020402700203C270020E3
S31508006B209C100020080C0408014B18682DF03FBE85
S31508006B30A810002038B504F041FF0446064D2B681E
S31508006B40D3F8B00204F02EFF28682DF043FE204645
S31508006B50BDE8384004F026BFA810002010B5274C21
S31508006B6001F082FD01F00EFF236F23F0070343F0C7
S31508006B70030323672CF01CFF214B00209B6ADB01D3
S31508006B805EBF4FF480321F4B9A62D4F8203123F04F
S31508006B90070343F00203C4F82031D4F8283123F060
S31508006BA0070343F00203C4F82831D4F8403123F030
S31508006BB0030343F00203C4F84031D4F8603123F0EC
S31508006BC0030343F00203C4F86031D4F8403223F0DB
S31508006BD0030343F00203C4F84032D4F8003223F02A
S31508006BE0070343F00203C4F80032D4F8083223F04E
S31508006BF0070343F00203C4F8083210BD00800050B2
S31508006C000040005A0060005A07B501A802F0B0FB20
S31508006C109DF80530012B14D19DF804308BB94FF43B
S31508006C208012164B1649586E03F580535A664B6BFD
S31508006C3023F0E05343F040634B63C3025CBF114B40
S31508006C405A6604F087FD2CF038FD04F00BFD04F0BD
S31508006C506BFD2EF02BF904F02DFDFFF77FFF04F0F6
S31508006C6017FD2CF01FFD00F0EDFB05F063FA00F0B0
S31508006C70EFFF03B05DF804EB06F01CB90080005086
S31508006C800040005A00A0005030B5264D9DB008AC13
S31508006C900FCD0FC495E80F0084E80F002C220021C1
S31508006CA011A835F074FD204B102210935623129329
S31508006CB008231593092317930523012419930323FE
S31508006CC00DEB020000218DF845408DF860408DF8E7
S31508006CD0443035F05CFD4FF47020144B02A9CDE921
S31508006CE002030B238DF810300C238DF81130104B4E
S31508006CF008AA0593202306930E4B0F48009310AB62
S31508006D008DF81D4004F0D8FE04469DF81E304FF459
S31508006D10E130002B0CBF032100212CF002FD204698
S31508006D201DB030BD380C04080000015B3C00015B57
S31508006D30FA480020A81D0020201E0020022905D898
S31508006D40034B1B68186808B1436A1847704700BFA9
S31508006D50B410002008B50449044806F071F9BDE8E6
S31508006D600840FFF791BF00BFAC100020181E002096
S31508006D7001482EF017B900BF201E0020014B1A6AE1
S31508006D8018681047201E002008B511F0F3FE0022EF
S31508006D90014B1A7008BD00BF1A49002001482CF0A3
S31508006DA084BD00BF580C04081FB508490346086887
S31508006DB0097902AA02908DF80C100092052100228A
S31508006DC0012008F0D9FD05B05DF804FB700C040835
S31508006DD01FB5084903460868097902AA02908DF882
S31508006DE00C10009205214222012008F0C5FD05B0CD
S31508006DF05DF804FB760C04081FB5084903460868C5
S31508006E00097902AA02908DF80C10009205214022F9
S31508006E10012008F0B1FD05B05DF804FB700C04080C
S31508006E201FB5094903460888897803AAADF80C00F6
S31508006E308DF80E10009206214222012008F09CFDD2
S31508006E4005B05DF804FB00BF7C0C04081FB503AA57
S31508006E50009205220749034608888978ADF80C0090
S31508006E608DF80E100120114608F086FD05B05DF874
S31508006E7004FB00BF800C040807B508202CF0FCFCB6
S31508006E8002238DF80030054B684601932CF019FC57
S31508006E90082003B05DF804EB2CF0FABC006A181061
S31508006EA02DE9F043434D89B001AC0FCD0FC495E8E9
S31508006EB00700012584E8070001213A2001F090F92E
S31508006EC03D4F0121292001F08BF93C4B384601A999
S31508006ED003938DF8125002F09DFA2B462946042298
S31508006EE0022002F0DBF802212A460846002302F0B7
S31508006EF0D5F82B4604220321022002F0CFF80422FB
S31508006F002B461146022002F0C9F82D4C2D4B1026AF
S31508006F10C4F834374FF00213C4F83037A3F580337A
S31508006F20C4F838371C2304F50059C4F820374FF441
S31508006F30487007F0A5FA04F580581420C9F8A0602F
S31508006F4007F09EFA2320C8F8A06007F099FAB9213D
S31508006F503846C9F8A0602CF024FE002329461A46B4
S31508006F600220C8F8A06002F099F8002302211A4608
S31508006F70084602F093F82B4600220321022002F06D
S31508006F808DF82B4600220421022002F087F83846A5
S31508006F9002F01EFA00212920C4F83417C4F8301765
S31508006FA0C4F83817C4F8201701F01AF909B0BDE873
S31508006FB0F08300BF1018040800C0055000127A00BC
S31508006FC000C003500200030008B500F02DF8124B6C
S31508006FD012498B4212D30020114B12498B4218D307
S31508006FE0FFF748FD186850F82240586840F82240D4
S31508006FF0013298688242F5D30C33EAE70022F8E7B3
S315080070001C6844F8220001325C68A242F8D30833AF
S31508007010E4E70022F8E700BF80A604088CA6040867
S315080070208CA604088CA604084FF480414FF0FF3064
S31508007030114B124A10B59A60D3F8882042F47002B0
S31508007040C3F888200E4A91660E4901F5005210666B
S315080070500D4850660220C3F8D000BFF34F8FBFF328
S315080070606F8F01244FF440330848C0F88041D3603D
S3150800707004600B6110BD00BF00ED00E00060000871
S315080070800090005000800044F7FF370000E100E060
S31508007090014B1868704700BFD8100020084B1B6FBB
S315080070A003F00703022B04D0032B05D0012B05D0D0
S315080070B0FEE7044B18687047034BFBE70348704725
S315080070C000800050D8100020DC100020002D31016F
S315080070D008B5FFF7E3FF054B1B6FC3F30333013313
S315080070E0B0FBF3F0024B186008BD00BF00800050EB
S315080070F0D41000200048704700B4C404014B186837
S31508007100704700BFDC100020054B1860054B1B6F4D
S3150800711003F00703032B01D1FFF7DABF704700BF5F
S31508007120DC1000200080005000487047002D310117
S315080071304FF0B4439868C0F304400C2822D8DFE81F
S3150800714000F0092121212121071719211B1D1F00E4
S315080071500F4870479B6803F04073B3F1807F13D0E4
S31508007160B3F1007F12D00B4A002B08BF10467047B8
S3150800717009487047094870470948704709487047E1
S315080071800948704700207047084870470848704704
S31508007190405DC60000093D000024F400C0EA210154
S315080071A080BA8C010048E801005A620280841E00F9
S315080071B040420F00014B1868704700BFE0100020DE
S315080071C0BFF34F8F0549064BCA6802F4E0621343C2
S315080071D0CB60BFF34F8F00BFFDE700BF00ED00E0B7
S315080071E00400FA054FF000639B6A03F17842B2F592
S315080071F0C04F03D21968064A914203D00023037090
S3150800720083607047012202709A689B694260F7E7BB
S3150800721007B0CD5E73B54F4B04461A781AB10222F1
S315080072201A7002B070BDCDE900220028F9D00126F7
S315080072301E702CF0E1FB484D484B186014F038FBE3
S315080072402B785BB900F004FD40B945480823454A48
S315080072504549006810F00EFE00B92E70434B5A6E71
S3150800726062619B6E424AA3614FF480439366414B29
S315080072705968E16140499960196E2160596E6160EB
S31508007280D3F87011A160196CE160596C21613B4912
S31508007290086C1864496C5964012151661B6E9C047C
S315080072A041D5374AD368D807FCD4364B1A68531CDD
S315080072B03ED04FF480139340334A13664FF400735D
S315080072C00426314C266623662CF062FA01300DD06E
S315080072D02CF05EFA40F20113984207D04FF400539F
S315080072E023664FF480432366C4F870610823264C4E
S315080072F0684623664FF4805323664FF0006323667F
S315080073004FF4002301A963662CF023FA009B236639
S31508007310019B63662B78002B83D0124B1A68226672
S315080073205B6863667DE7194AD368D907FCD4BCE76E
S31508007330174B1B78002BC1D14FF400720C4B5A66C1
S3150800734003F5A6235B68002BB8D14FF480120E4BC9
S315080073501A66B3E71D4900201B4900206C1E002051
S31508007360EC100020641E0020007108000080005008
S31508007370009000500080004455CEAC0000C0005478
S3150800738000000440E410002000900044000004506F
S315080073901C49002070B5224D04462E78012E02D0D5
S315080073A001232B7070BD0028FCD02CF0F1F90130B8
S315080073B00BD02CF0EDF940F20113984205D0194B89
S315080073C0194A5E66D368DE07FCD42268174B1A662C
S315080073D062685A66A268C3F87021E2681A6422696C
S315080073E05A64E269D00744BF00229A60104B1A68B3
S315080073F0013207D10F4A127822B90F494968C907DD
S3150800740048BF1A6062690D4B5A66A2699A6614F0FB
S3150800741057FA0B4B18682CF0F5FA0023C1E700BFA2
S315080074201D490020009000400000044000800044F0
S31508007430E41000201C49002000C0055000800050C0
S315080074406C1E002070B54FF00064A36A03F1784201
S31508007450B2F5C04F21D21A68124B9A421DD1124E6C
S31508007460337813F0FD0F1BD11048FFF7D3FE012523
S315080074704FF480330E4A0F49C2F88051CB6015602D
S315080074800D4A1361A36ADB69984704460748FFF764
S3150800749081FF04B93570204670BD4FF48174FAE750
S315080074A00024F8E707B0CD5E1C490020441E0020E2
S315080074B000E100E000A000440090004413B51F4B13
S315080074C01B7803B9FEE700231D4CCDE900336A4655
S315080074D008231C49206810F0CDFCF0B91A4AD2F8E6
S315080074E04031D2F840211F2B4FF0010310D9203A22
S315080074F09340019A1343019308236A461149206869
S3150800750010F06EFC4FF00053104A1A60FFF758FE51
S315080075109340009A13430093EEE70D4B9842F1D13E
S31508007520094AD2F84031D2F840211F2B4FF0010307
S3150800753002D9203A9340DEE79340ECE71D49002044
S31508007540EC10002000710800008000440B020FF0C8
S315080075500BE000F070B5D0B1C9B10E4E431E01392B
S3150800756013F8014F2046A25D02F00302012A11F822
S31508007570012F08BF04F12000B55C05F00305012DB5
S3150800758008BF2032801A01D1002CE9D170BD012034
S31508007590FCE700BF0FA5040805490A681318054843
S315080075A083428CBF4FF0FF320B601046704700BF16
S315080075B0E81000200000042010B501213A2000F050
S315080075C00FFE012304220321002001F067FD00209D
S315080075D02CF07CFA0122314B3149C3F844244FF48C
S315080075E00022A3F550335A66D1F8FC202C4C12F031
S315080075F080721EBFD1F8FC3023F08073C1F8FC30CE
S315080076002849D1F8803023F0030343F00203C1F878
S3150800761080302AB1D4F8FC3043F08073C4F8FC30CB
S315080076204FF4607000F0F8FDD4F8F0301E4A43F0CD
S315080076300103C4F8F030D4F8FC3000F5D52043F047
S315080076408073C4F8FC30194B00F2FC401A60184BE2
S315080076500222B0FBF3F0174B01381861C3F8F0208B
S315080076604FF48072C3F804234FF06043124A002097
S31508007670C3F8B02F114AC3F8802ED3F8002E42F46F
S315080076808072C3F8002EFF2283F82020D3F8002E3C
S3150800769022F48072C3F8002E10BD00BF00D003503C
S315080076A000ED00E000800050FF030040001000E0FD
S315080076B0F8590D00000004E055CEACC509000100DC
S315080076C04FF06043D3F8802E30B5D20715D5012484
S315080076D00B4D8440D5F8FC2042F08072C5F8FC209A
S315080076E0D3F8002E2243C3F8002E53F82020002A90
S315080076F0F0D003F82010002030BD1120FCE700BFB1
S3150800770000ED00E010B50122437801788478302036
S315080077109A40054B00FB01331CB903F501531A6067
S3150800772010BD03F58253FAE700C0035010B50122D5
S3150800773043780178847830209A40054B00FB013362
S315080077401CB903F582531A6010BD03F50153FAE715
S3150800775000C003500122437801789A4030235943E8
S31508007760014B5A50704700BF40F003501021302398
S315080077700246007813FB0013054950785B58C3404E
S3150800778003F0010093780BB980F00100704700BF41
S3150800779030C003502DE9F04F9A46564B85B01B78FA
S315080077A006460F461546DDF83C909DF844B0DDF8D0
S315080077B05080002B00F08D80072A00F28C800E9BEB
S315080077C0002B00F08880B9F1000F00F08480129B2E
S315080077D0B3F5006F7FDC012802D1109B002B7AD00D
S315080077E0454B03EB05131B7B002B76D0434C10222D
S315080077F00021684634F0CBFF04EB45141022002F15
S3150800780059D13946204634F0C2FF43F2100363804B
S31508007810BBF1000F03D1E37843F00303E370374A63
S315080078200E9B02EB451CCCE90193129B6901013BB7
S31508007830C3F30A009DF84C30012E03F003034FEA08
S31508007840836343EA001E53582D48CDF800A000EA8A
S3150800785003004EEA0003535041D113230CF1100ED6
S31508007860CCF80C309CE80F008EE80F006FF003018F
S31508007870DCF81C20109B61F39F02012FCCF81C201A
S31508007880CCF8143003D1CCF81890CCF80430002783
S31508007890194A290102EB051342F80180159A284670
S315080078A05A60694622469F605E7301F095FC384629
S315080078B005B0BDE8F08F0021204634F068FF4FF48C
S315080078C044736380BBF1000FA9D1E37843F030031A
S315080078D0A4E70C48ECE70C48EAE70C48E8E7B8F1F7
S315080078E0000FD4D19CF8023068F304138CF80230E8
S315080078F0CDE700BF1E490020701E0020F01E0020A4
S315080079000F80FFF3028000F0018000F0078000F08E
S3150800791038B5124B05461B78DBB1E0B12CF06CF894
S315080079200F4A00231146147B54B92B6001251A010E
S3150800793001EB03131D738C502CF064F8204638BDF8
S315080079400133082B02F11002EDD12CF05BF8054843
S31508007950F5E70548F3E70548F1E700BF1E490020AB
S31508007960701E0020048000F0028000F0018000F004
S3150800797013B52CF041F800230B4A147B7CB901336C
S31508007980082B02F11002F8D1019001F0C7FB074B52
S3150800799001981C702CF036F8204602B010BD2CF069
S315080079A031F80348F9E700BF701E00201E49002081
S315080079B0058000F00D4B10B51B78044693B10728D7
S315080079C012D82CF019F80A4B03EB04131A7B2AB1C8
S315080079D000241C732CF016F8204610BD2CF012F863
S315080079E00448FAE70448F8E70448F6E71E49002081
S315080079F0701E0020068000F0028000F0018000F072
S31508007A00154B13B51868002301908DF804302BF038
S31508007A10F3FF124B1C7824B12BF0F4FF104802B088
S31508007A2010BD01221A702BF0EDFF0E4B01A81C7336
S31508007A301C7783F82C4083F83C4083F84C4083F845
S31508007A405C4083F86C4083F87C4008238DF8073047
S31508007A5001F090FB2046E2E77C1804081E49002046
S31508007A60038000F0701E00200A4A08B512785AB141
S31508007A7007280BD8084A02EB00131B7B43B10021E9
S31508007A8001F06AFB002008BD0448FCE70448FAE751
S31508007A900448F8E71E490020701E0020028000F006
S31508007AA0018000F0078000F00A4A08B512785AB13A
S31508007AB007280BD8084A02EB00131B7B43B10121A8
S31508007AC001F04AFB002008BD0448FCE70448FAE731
S31508007AD00448F8E71E490020701E0020028000F0C6
S31508007AE0018000F0078000F00A4A08B5127852B102
S31508007AF007280AD8084A02EB00131B7B3BB101F0A2
S31508007B00B9FB002008BD0548FCE70548FAE7054823
S31508007B10F8E700BF1E490020701E0020028000F012
S31508007B20018000F0078000F00D4B1B7893B1072801
S31508007B3012D889B10B4B03EB00131B7B73B10A4BAD
S31508007B401A6D012303FA00F010401ABF00200B70CB
S31508007B5008707047054870470548704705487047DC
S31508007B601E490020701E002000000450028000F00C
S31508007B70018000F0078000F00B4A10B512780C4619
S31508007B8062B107280CD859B1084A02EB00131B7BCF
S31508007B9043B101F081FB2070002010BD0448FCE7CA
S31508007BA00448FAE70448F8E71E490020701E00203A
S31508007BB0028000F0018000F0078000F0204B2DE9DC
S31508007BC0F0471F6D5A6D1F4C174010D54FF00041F6
S31508007BD01D4A1165D868C0F304200301E35804EB75
S31508007BE000125BB3BDE8F04700215268184701262A
S31508007BF00025DFF85480DFF85490374217D0236801
S31508007C00C8F850609BB1A168284601316268A16036
S31508007C109847637B012B0AD148B909EB45131A7BB0
S31508007C2060F341021A731A7F60F341021A7701352D
S31508007C30082D4FEA460604F11004DED1BDE8F087A8
S31508007C4000000450701E002000200450F01E002082
S31508007C50024B1968024B18680FF0ECBFF0100020B1
S31508007C60EC10002037B5920004460D46019234F018
S31508007C705BFE431C0BD060B929462046019A34F0B6
S31508007C804FFD0028044808BF002003B030BD034854
S31508007C90FBE70348F9E700BF10E000F021E000F039
S31508007CA024E000F010B5044634F046FE431C10D01C
S31508007CB088B901F083FB234620F00300204498424C
S31508007CC001D1002010BD53F8042B0132F7D0034828
S31508007CD0F8E70348F6E70348F4E700BF0EE000F0CC
S31508007CE021E000F024E000F008B52BF076FE014B09
S31508007CF0186008BD30260020014B18682BF071BEAD
S31508007D0030260020044BD3F88420D206FBD4D3F8BF
S31508007D108400C0F3811070470040005038B5104BFE
S31508007D200546D3F880300C4603F00303022B0BD02C
S31508007D30032B0DD0012B0FD1FFF7B0F90E2305B198
S31508007D40286004B1236038BDFFF7F2F90723F6E788
S31508007D50FFF79EF90623F2E700231846EFE700BF70
S31508007D600080005038B5184B0546D3F820010C465C
S31508007D7000F00700062805D8DFE800F0230B0F17E8
S31508007D80131B1F000023184605B1286004B12360A1
S31508007D9038BDFFF77DF90523F6E7FFF7AFF90323AB
S31508007DA0F2E7FFF7C5F90723EEE7FFF7BDF9022368
S31508007DB0EAE7FFF76DF90623E6E7FFF79FF90423DD
S31508007DC0E2E70123E0E700BF0080005038B5174B13
S31508007DD00546D3F828310C4603F00703013B052B6B
S31508007DE020D8DFE803F003131B0F0B17FFF750F932
S31508007DF0052305B1286004B1236038BDFFF748F9AB
S31508007E000623F6E7FFF794F90723F2E7FFF776F973
S31508007E100323EEE7FFF772F90423EAE7FFF784F98D
S31508007E200223E6E700231846E3E700BF0080005078
S31508007E3073B50D460021114B0191D3F880410646D2
S31508007E4004F00304022C13D0032C0CD0012C13D1FC
S31508007E5001A8FFF787FF10240EB1019B336005B117
S31508007E602C6002B070BDFFF763F907240190F3E7B1
S31508007E70FFF75AF90190EFE70C46EDE7008000504E
S31508007E80002337B50193164B0546D3F820320C4626
S31508007E9003F00703042B04D8DFE803F0200B1116C0
S31508007EA01B0000230DB1019A2A6004B1236003B0B8
S31508007EB030BD002101A8FFF789FF1223F2E7FFF77B
S31508007EC037F907230190EDE72BF03DFC0A230190D3
S31508007ED0E8E7FFF76FF909230190E3E70123E1E7F4
S31508007EE00080005038B5104B0546D3F840310C4693
S31508007EF003F00303022B0BD0032B0DD0012B0FD15C
S31508007F002BF021FC0A2305B1286004B1236038BD93
S31508007F10FFF750F90923F6E72BF018FC0C23F2E7D4
S31508007F2001230020EFE700BF00800050002337B58B
S31508007F300193164B0546D3F860320C4603F0070347
S31508007F40013B032B1FD8DFE803F0020E19140021AA
S31508007F5001A8FFF707FF10230DB1019A2A6004B1A3
S31508007F60236003B030BD002101A8FFF7BBFF112332
S31508007F70F2E7FFF7DDF807230190EDE7FFF7D4F8FE
S31508007F8002230190E8E70023E6E700BF00800050DF
S31508007F90002337B50193164B0546D3F894320C46A1
S31508007FA003F00703013B032B1FD8DFE803F0020E9B
S31508007FB01914002101A8FFF7D5FE10230DB1019A67
S31508007FC02A6004B1236003B030BD002101A8FFF781
S31508007FD089FF1123F2E7FFF7ABF807230190EDE7D6
S31508007FE0FFF7A2F802230190E8E70023E6E700BFBF
S31508007FF00080005038B5144B0546D3F800020C46ED
S3150800800000F00700042804D8DFE800F01B0A0E1267
S3150800801016000023184605B1286004B1236038BD50
S315080080202BF091FB0A23F6E7FFF7C4F80923F2E7DA
S315080080302BF08CFB0C23EEE7FFF74AF80F23800A98
S31508008040E9E70123E7E700BF0080005038B5144B85
S315080080500546D3F808020C4600F00700042804D8A1
S31508008060DFE800F01B0A0E1216000023184605B1B9
S31508008070286004B1236038BD2BF065FB0A23F6E7B8
S31508008080FFF798F80923F2E72BF060FB0C23EEE7DD
S31508008090FFF71EF80F23800AE9E70123E7E700BF89
S315080080A00080005038B5104B0546D3F840320C46D0
S315080080B003F00303022B0BD0032B0DD0012B0FD19A
S315080080C02BF041FB0A2305B1286004B1236038BDB3
S315080080D0FFF770F80923F6E72BF038FB0C23F2E7D5
S315080080E001230020EFE700BF0080005038B5104B91
S315080080F00546D3F860310C4603F00303022B0BD078
S31508008100032B0DD0012B0FD12BF01DFB0A2305B134
S31508008110286004B1236038BDFFF74CF80923F6E759
S315080081202BF014FB0C23F2E701230020EFE700BF36
S3150800813000800050B0F5207F1FD009D8B0F5007F29
S3150800814015D003D868B1B0F5C07F0AD000200CE07E
S31508008150B0F5607FFAD10B4BD3F88000C0F301105D
S3150800816003E0084B186FC0F3033001307047054B26
S31508008170D3F89000C0F30460F7E7024B186FC0F31A
S315080081808020F2E70080005002464FF48030104B02
S3150800819010B598660020FFF7CDFF504341F67132BF
S315080081A00C4BDC69DA635A6804F4803422F4401212
S315080081B059B9094988428CBF4FF4801000201043F2
S315080081C058600CB10022DA6310BD0449F2E700BF1B
S315080081D00090005000000350005A6202002D310141
S315080081E0430905D0012B0DD0022B094B18BF0023DC
S315080081F000F01F0041B103F58053012202FA00F096
S3150800820018607047034BF3E703F50053F5E700BF23
S3150800821068800050648000501FB5002180280446FD
S31508008220CDE9001100F0A58035D85E2846D85E282D
S3150800823044D8DFE800F0A243434343434343434360
S3150800824043434343434343434343434343434343F0
S31508008250434343434343A2AAA2AAB9B9B9B9B9AA9F
S31508008260C34DD9714DAAAAAA434343434343434343
S31508008270AAAAAA79E3AA434343434343434343434E
S31508008280434343B9A2A2A2DE4D4DE8885EBE4343EE
S3150800829043434399A200B0F5B06F00F08F802DD804
S315080082A0B0F5207F71D00CD8B0F5C07F65D0B0F599
S315080082B0007F65D0B0F5807F00F08580009804B017
S315080082C010BDB0F5607F6AD00DD8B0F5407FF5D106
S315080082D0FEF7FEFE02464FF42070FFF72BFFB2FBB7
S315080082E0F0F0400847E0B0F5806F5DD0B0F5A06FBC
S315080082F0E4D100216846FFF7C3FDDFE7B0F5106F4C
S3150800830077D016D8B0F5E06F78D00AD8B0F5C06F38
S315080083106AD0B0F5D06FD1D100216846FFF76AFE62
S31508008320CCE7B0F5F06FC9D100216846FFF7DEFE4D
S31508008330C4E7B0F5406F3CD013D8B0F5206F62D0D3
S31508008340B0F5286FBAD10021314B0391D3F87032BA
S3150800835003F00303012B02D103A8FFF7C3FD039B18
S315080083603BE0B0F5486FA9D100216846FFF710FE3B
S31508008370A4E7FEF793FE0090A0E7FEF7A9FEFAE74A
S31508008380FEF78CFE0246204604E0FEF7A1FE0246F2
S315080083904FF42070FFF7CEFEB2FBF0F0EBE701A832
S315080083A0FFF7BCFC019AEEE700216846FFF7DAFC06
S315080083B084E700216846FFF709FD7FE70021684644
S315080083C0FFF736FD7AE74FF0E02302911B695B075A
S315080083D005D5FEF77DFE0290029B00936EE703A982
S315080083E002A8FFF77FFDF7E700216846FFF77AFD49
S315080083F064E700216846FFF729FE5FE70021684623
S31508008400FFF750FE5AE700216846FFF78FFD55E74C
S315080084100080005008B58020FFF7FEFE034B984207
S315080084209EBF4FF48032024B1A6708BD005A62029B
S3150800843000A000501FB50023B0F5807F019300F01F
S31508008440C38064D85D2855D84C2807D82D2847D826
S3150800845023282BD8019805B05DF804FB4D38102861
S31508008460F8D801A353F820F0BF8500085584000802
S31508008470558400085584000871850008558400084D
S3150800848055840008458600088F850008358500084C
S315080084903B86000855840008558400085584000862
S315080084A055840008558400084F8600082438092892
S315080084B0D0D801A353F820F0BF850008BF8500086F
S315080084C0BF850008BF850008BF85000855840008D9
S315080084D0B58500085584000851850008F58500080B
S315080084E03D2800F082803E28B4D1002001A9FFF77C
S315080084F0D9FDAFE78028ADD15A4B1B6F03F00703B0
S31508008500013B032BA6D8DFE803F05350878FB0F55D
S31508008510F06F6AD021D8B0F5B06F4BD00FD8B0F550
S31508008520607F00F0858095D3B0F5806F47D0B0F5B1
S31508008530A06F8FD1002001A9FFF7A2FC8AE7B0F54A
S31508008540D06F57D0B0F5E06FCFD0B0F5C06F81D1FE
S31508008550002001A9FFF7C6FC7CE7B0F5206F71D0B3
S315080085600BD8B0F5086F4AD0B0F5106F7FF472AF2C
S31508008570002001A9FFF76AFD6CE7B0F5406F5CD0F3
S31508008580B0F5486F63D0B0F5286F7FF463AF00216C
S31508008590344B0391D3F8703203F00303012B5BD0FD
S315080085A0022B14BF0B46152300E00523019351E760
S315080085B00223FBE7002001A9FFF73AFC4AE700205F
S315080085C001A9FFF7CFFB45E702934FF0E0231B69AC
S315080085D05B0705D5FEF77CFD0D230393039BE5E7B3
S315080085E003A902A8FFF77EFCF8E7002001A9FFF718
S315080085F07DFD2FE7002001A9FFF7FCFC2AE7194BB0
S31508008600D3F8003103F00303022B07D0032B09D05C
S31508008610012B0BD1FEF772FD0323C7E7FEF7CAFD50
S315080086200923C3E72BF08DF80823BFE70123BDE72D
S31508008630184601A9FFF772FB0CE7002001A9FFF70E
S31508008640C5FB07E7002001A9FFF770FC02E7002039
S3150800865001A9FFF79DFCFDE603A8FFF743FC1123DC
S31508008660A4E700BF008000504FF48012034B5A66FF
S315080086704FF48032024B9A62704700BF0090005058
S315080086800050005A38B504468020FFF7D3FE032869
S3150800869000F08A804FF48012544B4FF0A0615A665E
S315080086A045F60E03524AC2F88030524B99624FF48F
S315080086B0803103F580539962936DD903FCD4916D8B
S315080086C011F08041FBD1D4E900031B0543EA00639E
S315080086D0E07B0343207B43EA0043607B43EA0033A5
S315080086E0A07B43EA801313619069D4E904531B06FF
S315080086F043EA856300F000400343A07EE57E03431A
S31508008700207E43EA0043607E43EA00239361E069E2
S31508008710136A00280CBF0022082223F00F0343EA3D
S31508008720000343EA850343EA0203314A324D1362E2
S315080087303BD194F82430916A94F82000DB000D4070
S3150800874043EA401394F821102B4343EA011343F4F8
S3150800875080339362294B916D33EA0101FBD14FF0C7
S315080087608071244881621369A56823F4700343EA7B
S31508008770055313614FF00043836194F822300BB917
S315080087801F4B996294F823303BB94FF480321C4B47
S315080087909A62174A936D5B00FCD494F825301BB196
S315080087A0134B184AC3F8802038BD022808D1116136
S315080087B0154891614FF408524FF47F412BF0D4F8D5
S315080087C00B4994F822308A6A94F820001B06154053
S315080087D043EA401394F824202B4343EAC20394F84F
S315080087E0232043EA02438B62D7E700BF009000507C
S315080087F00040005A0050005AC7FFFEFE0300010061
S315080088000060005AF1A7FFFF3440005A014B93F964
S315080088100000704753150020F0B5D0E901434FF426
S3150800882000061A4A4178057856664FF4D15602274B
S3150800883002F5B8325662164E4F2977604FF0010797
S3150800884028BF4F2106F5805677601669F603FCD4D3
S3150800885041EA052151611B01417B43EA04230B438D
S31508008860017B43EA41039360C37B817B1B0143EA97
S315080088704113417C0B43017C43EA41035360837CEB
S3150800888013B16FF4D1535362F0BD00BF009000508E
S3150800889000100250014B1880704700BF12150020C7
S315080088A0014B1880704700BF10150020B0F5207FD7
S315080088B010B50C4657D008D8B0F5007F48D003D875
S315080088C030B3B0F5C07F23D010BDB0F5607FFBD1C3
S315080088D029492A48D1F8FC2012F080721EBFD1F827
S315080088E0FC3023F08073C1F8FC30D0F88030611E6C
S315080088F023F0300444EA0114C0F88040002AE3D08B
S315080089001D4AD2F8FC3043F08073C2F8FC30DBE72E
S315080089102BF03BF82BF047F84FF48031184B174AE9
S315080089201967136F611E23F4704444EA013414670F
S31508008930FEF7CEFB0446FFF7E5F9C0F10201204633
S315080089402BF02BF800F02EF8BDE81040FFF762BDBB
S315080089500A4A0139D2F8903023F0F85444EA0164FF
S31508008960C2F89040B0E7054B013C196F21F48061CD
S3150800897041EA84241C67A7E700ED00E00080005068
S315080089800090005008B50121022000F067F82AF08F
S31508008990FCFF2BF008F84FF48032014B1A6708BD2C
S315080089A00090005008B54FF4C070FFF735FCBDE8DD
S315080089B00840044988428CBF022101214FF42070E7
S315080089C0FFF774BF80F0FA02024A536B0342FCD1E8
S315080089D0704700BF00400950044A4178536F23F49A
S315080089E0407343EA01235367704700BF00400050B5
S315080089F00A4A10B51369044643F00403136104F0E8
S31508008A005DFD2BF002F830BF2BF000F804F090FD66
S31508008A101CB9BDE81040FEF75BBB10BD00ED00E0D9
S31508008A20084A10B51369044643F00403136104F0B9
S31508008A3045FD30BF04F07CFD1CB9BDE81040FEF7CB
S31508008A4047BB10BD00ED00E0034A0179D36E23F061
S31508008A5030030B43D366704700400050F8B5044610
S31508008A601C4BD3F88420D106FBD4D3F88430C3F347
S31508008A7081139C422CD0FEF711FB012C064602D12D
S31508008A8021462AF08AFF2AF0A8FF4FF00072124BFF
S31508008A9007465A6620462AF0BCFF4FF480630D4D00
S31508008AA0621E93402B676B6E9A0103D4D5F8843007
S31508008AB09B060AD538462AF094FF022C08D1304680
S31508008AC0BDE8F84000212AF068BFD5F88430EAE707
S31508008AD0F8BD00BF004000500060005007B518B947
S31508008AE00191FEF7DBFA0199064B1B7843B1064B59
S31508008AF0984205D8012003B05DF804EBFFF7AEBF36
S31508008B000220F8E71F490020005A62020278034B48
S31508008B10012100201A70FFF7E1BF00BF1F4900209E
S31508008B204FF0004238B5244B244C5A664AF6CD33EA
S31508008B30656C014605F00105236430BB0120FFF78B
S31508008B4043FF6368DB0708D4002415B11B4B1C4A96
S31508008B501A6430F03AFD204638BD1A4B586008466C
S31508008B60194B226BD20705D4984201D10724ECE7AA
S31508008B700130F6E79842E7D1F8E70132236B13F0A4
S31508008B80080305D08A42F8D1F0E700220E49F5E736
S31508008B908A42EBD020210B4A91620121A2F580522C
S31508008BA051600649084A886A800603D49342DDD094
S31508008BB00133F8E79342DEE7009000500040095081
S31508008BC03254FFFF0060095040420F004FF0004248
S31508008BD038B5164B01465A664AF6CD33144C154A33
S31508008BE0656C236443780B205B0043F00103D36371
S31508008BF0FFF7EAFE63688A7823F4F87343EA0213F8
S31508008C006360CA784B7943EA0223A3600A798B79B1
S31508008C1043EA022323610878FFF782FFEB0744BF84
S31508008C20054B236430F0D1FC012038BD009000507C
S31508008C3000400950004000503254FFFF4FF00042F8
S31508008C40124B70B55D6E03F580535A664AF6CD33FE
S31508008C5004460F4980204E6C0B64FFF7B5FE0B6A7D
S31508008C6023F00F030F2C94BF234343F00F030B622B
S31508008C70F30744BF074B0B64002DA2BF4FF0004219
S31508008C80054B5A6630F0A1FC70BD00BF008000504D
S31508008C90004009503254FFFF00A000504FF0004238
S31508008CA0104B70B55D6E03F580535A664AF6CD33A0
S31508008CB004460D4980204E6C0B64FFF785FE0B6A4F
S31508008CC023F4F85343EA04230B62F30744BF074B24
S31508008CD00B64002DA2BF4FF00042054B5A6630F0D8
S31508008CE074FC70BD00800050004009503254FFFFEC
S31508008CF000A0005010B52AF091FE042300F580511B
S31508008D0000F500520B6113610B6113610B6113616E
S31508008D100B611361202341F2020103610023C36042
S31508008D20836041614FF4A0218361836541620549EF
S31508008D30C36103628362C36243630365D1640363E9
S31508008D4010BD00BFFF3F0D03F8B50546144608469B
S31508008D5041B9344B9D422FD0334B9D4208BF572013
S31508008D60FFF75AFAAB68DE072ED5B0FBF4F46E6847
S31508008D70013C16F0010625D0282128462AF04AFE8D
S31508008D80AB6C99071AD1AB6CDA0719D4AB6C13F034
S31508008D90020F0CBF0027062728462AF03FFE28693F
S31508008DA020F07F4040EA04642C61DEB1394628464B
S31508008DB0BDE8F8402AF069BE5620D1E70527EBE75B
S31508008DC00927E9E73746EAE76B68AB6DAF68DB0763
S31508008DD007F0E00748BF6400402F1BD003D8DFB177
S31508008DE0202F1BD0F8BD602F1AD0802FFAD101266C
S31508008DF004FB06F34101B1FBF3F30C4A203B02EAFC
S31508008E00C302284601212AF005FE2A63BDE8F84078
S31508008E102AF000BE0626EBE71026E9E70826E7E76C
S31508008E200426E5E70000015B00000A50F8FF7F0012
S31508008E30F8B51E46436804460D4617461BB140F66C
S31508008E40FF712AF0E7FD2046FFF754FFE9896B7B9F
S31508008E5062690B43298A22F44C520B4322F00F0213
S31508008E6013436361A2682B7E297B22F0804222F09D
S31508008E70E202194311436A691143AA68A1601AB943
S31508008E80A26842F00042A260E869002860D0A268A1
S31508008E90017A42EA8152A260A268817A42EA414294
S31508008EA0A2608288A16802F4C0420A43A260A2684E
S31508008EB0417842EA8102A260A268417B42EAC10285
S31508008EC0A260A268817B42EA0112A260A268817848
S31508008ED042EA8122A260C2798179520242EA81225B
S31508008EE0E260027802F0FD01012908BFE168A2F1FB
S31508008EF0020204BF41F00401E160012A6149624AA5
S31508008F007CD88C4278D061498C420CBF01214FF045
S31508008F10FF3102EB411241F294414FF0020C42F844
S31508008F2001C0427A04F580518A621AB1E26842F4B5
S31508008F300062E260C27A5AB1E26842F40042E26034
S31508008F40504A944269D1027B514902F00F024A679E
S31508008F5047B197F8202004F5805C002A67D00122E3
S31508008F60CCF82020002E34D004F5805113B14FF4EC
S31508008F7000438B65434A96F821309442708C02D0A0
S31508008F80424EB4421BD1102B424E60D894425CD05C
S31508008F903E4A94420CBF01224FF0FF320127B0F53A
S31508008FA0006FB754374A3C4E5FD894425BD0374A75
S31508008FB094420CBF01224FF0FF320127B754A26D2D
S31508008FC0034322F4F95222F01E021343A365012338
S31508008FD08B65052120462AF03BFDAA6812B169680F
S31508008FE0FFF7B2FE204629782AF04FFDA36CDB4333
S31508008FF013F4405FFAD1F8BD00218AE78C420AD003
S3150800900022498C420CBF01214FF0FF3102EB41127D
S3150800901042F2944181E70021F8E71C4A944201BFD5
S31508009020027B1B4902F00F02C1F8802090E797F8EF
S315080090302210E06997F821200A4320F009010A4323
S3150800904042F00102CCF81C208CE70022A6E79442E5
S3150800905007D00E4A94420CBF01224FF0FF32022776
S315080090609DE70022FBE70022A7E7944207D0074ABC
S3150800907094420CBF01224FF0FF3202279EE70022DE
S31508009080FBE700BF0000015B00C0035000000A5068
S315080090900090035022490020204900202DE9F04184
S315080090A005460F461E4690464AB101233022194C02
S315080090B08B4002FB00443EB304F5825423600F2123
S315080090C0072F05EB450388BFA7F108044FEA0313EA
S315080090D0114895BFBC00A40004330C3308FA04F207
S315080090E0A14018442AF0E1FCB8F1000F0AD1012189
S315080090F03020084A01FA07F700FB05223EB102F5BF
S3150800910082521760BDE8F08104F50154D6E702F5EE
S315080091100152F6E700C0035030C003504FF4001266
S315080091200B4B10B5C3F88020BFF34F8FBFF36F8F7B
S315080091300024FF22074B21465C6520209A625C606A
S31508009140FFF74EF82146BDE810402120FFF748B842
S3150800915000E100E000000450044A054B002918BF4E
S315080091601346012202FA00F01860704740200450A6
S315080091704010045010B5012104462020FFF730F8AE
S3150800918001212120FFF72CF80122114B5A60227881
S3150800919012069A606178A27842EA01429A61FF2231
S315080091A09A6200229A631A644FF000425A654FF099
S315080091B0FF324FF4001103F500531A65054AC2F849
S315080091C08011E3781B01DBB282F81533116010BDFC
S315080091D00000045000E100E02DE9F0410125C3B28A
S315080091E0D1F8008091F80AC00F7B91F80DE09D40F8
S315080091F00C46CB7A1C491D4E0D65810001F1A04134
S3150800920001F58821C1F80480302101FB00601B05A7
S3150800921043EA0C4343EA475322F00302C0F860E0EE
S31508009220C36502672AF0E8FB736D2B437365237ADF
S3150800923013B1336C2B433364637A13B1B36B2B438B
S31508009240B3632279A37943EA0243074A93616179B2
S31508009250E37943EA014306498B61044B55639D64F0
S31508009260BDE8F0412AF0CEBB0020045000000450AF
S315080092700010045010B50124C0B284402AF0BCFB8B
S31508009280044B5A6D22EA04025A659C62BDE81040F6
S315080092902AF0B8BB0000045010B50124C0B28440BF
S315080092A02AF0AAFB074BDA6A224209D15B6B34EA39
S315080092B003030CBF012400242AF0A4FB204610BD9A
S315080092C00024F9E7000004504FF48032054B9A66F3
S315080092D041F6713203F51C33DA63012203F50053B4
S315080092E0DA6070470090005041F671320121064B52
S315080092F0DA6303F50052D1600022DA634FF4803254
S31508009300A3F518339A6670470000035001383128D0
S315080093109ABF024B185C0020704700BFA4180408C7
S3150800932010B5C2F30623044602F0070241B942EA21
S3150800933003220B4B42F44022063443F8242010BD86
S31508009340184611462AF0C3FB01461846FFF7DEFF0A
S31508009350034B41EA0020163443F82400EFE700BF28
S3150800936000800350014BD3F894007047004000502A
S315080093704FF48032064B5A6603F5E6239B69C3F31E
S315080093808512827003F03F021B0B42700370704710
S315080093900090005040F6B732064B5B689BB293428A
S315080093A09FBF4FF47A72B3FBF2F3034AD05C88BFCF
S315080093B0002070470080E00FD61804080120034BF0
S315080093C09B680A3303F01F03984070470080E00F3C
S315080093D0012100F5805310B5596040F6AA6341F2A1
S315080093E0050243610023094C8360C365C26000F52A
S315080093F000520361C361C3649464054C8365A0424B
S3150800940004BF03654365516010BD00BFFFFF01003F
S3150800941000C0055038B50D46FFF7DAFF0122A97BD3
S3150800942000F580535A602A8A8368002914BF4FF4CE
S315080094308061002142F0010213432A7D0B43002A72
S3150800944014BF4FF00052002283608368044613431A
S315080094508360AB7C5BB1194B984202BFEA7CA3F5EB
S315080094601033C3F8C821C36D43F08003C3652B7B53
S315080094702046D5E9011243F48053E3602AF081FBC4
S315080094806B7B0BB1102363616B7D1BB1A36843F43F
S315080094908033A360AB7D1BB1A36843F40043A3608C
S315080094A0EB7D2A7E1B07120503F0E04302F4E00277
S315080094B01343A3652B78636138BD00BF00C0055010
S315080094C0054B9A689107FCD45A689207F9D4DA6969
S315080094D0002AF6D1704700BF00800A5008B5FFF78A
S315080094E0EFFF0122024B03F580514A601A6108BD5D
S315080094F000800A50074B5A68012A0AD15A68D207CF
S3150800950002D5DA69002AF9D102221A610122024B30
S315080095105A60704700800A5000A00A5010B5064CE1
S31508009520FFF7CEFF6368012B03D1FFF7E3FFFFF7D1
S31508009530C7FF0378E36010BD00800A50E8B94A689F
S315080095400B7812B1127843EAC2034A78002A14BF8C
S315080095500222002213438A6812B1127843EA821360
S315080095608A78002A14BF042200221343CA6812B15B
S31508009570127843EA4223014A9364704700800A50EE
S3150800958008B9014B5964704700900A5008B9014B55
S315080095905964704700A00A5008B9014B196470470E
S315080095A000A00A5010B9024B186C7047002070478B
S315080095B000800A5048B911B1012903D07047044BFD
S315080095C0D86C7047024B186D70470020704700BF73
S315080095D000800A5040B911B1012903D07047034BE6
S315080095E0DA647047014B1A65704700BF00800A505D
S315080095F010B9024B586D70470020704700800A501A
S3150800960038B50446054D30F03CF80FCC0FC594E844
S31508009610030085E80300002038BD00BFE4260020CB
S3150800962047F6FF739A42F0B566D0012966D8344DDD
S31508009630CF0015F8313005EBC100012B847813D122
S315080096400025C3781B1B9D4202D3E018C0B2F0BDAB
S31508009650591B4668A3EB510136F911609642D4BFEF
S315080096600D4601F1FF33EEE740680028EFD0B0F968
S315080096700030934204DBB0F902309342B8BF134678
S3150800968082883D44FF2A19BFC8214FF0280CB0F93B
S315080096900610B0F908C0A1EB03020CBF012600268C
S315080096A092FBFCF26D78324412B2954201DD002A33
S315080096B001DA6A1E12B24FF47A7700EBC206F18815
S315080096C0B668013213FB016112B221EAE1715C311D
S315080096D09542B1FBF7F104DD00EBC206B6888E426F
S315080096E0EBD200EBC20232F8040C884228BF0846C7
S315080096F0A04238BF2046A9E7FF20A8E70020A6E732
S31508009700E42600200129F0B553D82B4800EBC10404
S3150800971010F83110636801290FD1E078A4789042D7
S3150800972094BFC4EB0001C4EB0201001BCAB282421B
S31508009730C8BF002233F91200F0BD002B39D0A1783A
S31508009740914202D3B3F90200F6E7E178B3F90000D3
S315080097509142F1D999886478A1F1FF06013C7142DA
S3150800976003F10405E4B2714103F10C071FFA82FC08
S31508009770CEB2B44216D805EBC1014FF47A756A43E6
S31508009780B1F902404968521A04EBD47102EB61023E
S3150800979092FBF4F29042CFDBB3F902009042CBDCA5
S315080097A010B2C9E737F831E04E1CE645E3D3314637
S315080097B0DEE70248C0E700BFE42600200080FFFF7E
S315080097C00148FFF71DBF00BFDC1804087FB5022259
S315080097D0084B0949CDE901234FF04073CDE903133E
S315080097E0052301A94FF0FF3005932FF0A8FF07B016
S315080097F05DF804FB006A18000003040008B5B0B160
S315080098004FF480620B4B9A662AF09DF94FF0984305
S315080098105A6CD202FCD54FF48062586D064B10F490
S3150800982070209A6604D0BDE808402AF062BA212062
S3150800983008BD00BF0090005000A000502DE9F0417F
S315080098408CB08846DDE912761D460446002847D0C6
S31508009850002945D0002F43D0002E41D013F00F0326
S315080098603ED120482049A360002A18BF0146E3617B
S31508009870C4E90013404609A92AF02FFB68BB204615
S3150800988009992AF057F9294620462AF053F96946D4
S31508009890404600F0E5FA00BB694620462AF036F94C
S315080098A0404603A92AF0E7FBB8B9204603A92AF0DF
S315080098B02DF906970127204645F0005506A9079772
S315080098C008952AF023F9204609A909960A970B95BF
S315080098D02AF026F92046FFF791FF0CB0BDE8F08183
S315080098E02120FAE700010104000100042DE9F04FE8
S315080098F097B0894690461F460546DDF880A00028A1
S3150800990000F0BD80002900F0BA803AB1229B002BF6
S3150800991000F0B580239B002B00F0B180BAF1000F50
S3150800992000F0AD80219B002B00F0A98077B13C6840
S315080099300026229B43440293464509D3002F00F094
S31508009940A08000203C6017B0BDE8F08F3C46EFE7EA
S315080099505CB1229B219A9B5D125D01345340239A88
S3150800996004F00F0493550136E6E7A8EB060BBBF1A6
S315080099700F0F58D9444B4846C5E90034AC60EC6132
S3150800998013A92AF0AAFA0028DDD1284613992BF044
S315080099900F0B2AF0CFF8594628462AF0CBF8484646
S315080099A004A900F05DFA0028CDD1284604A92AF0BA
S315080099B0ADF8484607A92AF05EFB0028C3D1284619
S315080099C007A92AF0A3F801232299304ACDF828A03E
S315080099D00B930C928A190D9228464BF000520AA94D
S315080099E00E9303920F922AF091F828460DA92AF0B1
S315080099F08DF8239B039A99190123109111931292BA
S31508009A00224A284610A9CDF84CA0149315922AF09C
S31508009A1087F8284613A92AF083F82846FFF7EEFEAA
S31508009A205E4400288FD1229B03EB060B239B1E4422
S31508009A30029B5B4501D146467EE7ACB9219B22468F
S31508009A40CDE900A3494610232846FFF7F7FE00286C
S31508009A507FF479AF0AF1100212F8013D0133DBB247
S31508009A6013700BB99245F7D1219A1BF8013B125D89
S31508009A700134534006F8013B04F00F04D8E72120CF
S31508009A8061E738465FE700BF0303000410000020C3
S31508009A902DE9F04F97B00F46144699468346209E07
S31508009AA0DDF88880DDF890A0269D002800F09F80CC
S31508009AB0002900F09C801DB1259B002B00F09780A3
S31508009AC0B9F1000F00F09380B8F1000F03D0219B85
S31508009AD0002B00F08C803CB1239B002B00F0878084
S31508009AE0BAF1000F00F08380C6F10F02D2B2032A42
S31508009AF005D80121D20001FA02F2A24277D9022D35
S31508009B0075D0102D73D815F0010270D1F11F0629F2
S31508009B106DD838490AEB0400884268D83649384671
S31508009B20CBE90012CBF80820CBF81C2013A92AF0A1
S31508009B30D4F9002858D15846139929F0FBFF5846FE
S31508009B4045EA064129F0F6FF4146584629F0F2FF54
S31508009B502146584629F0EEFF384601A900F080F95B
S31508009B60002841D1584601A929F0D0FF384604A952
S31508009B702AF081FA002837D10127584604A929F086
S31508009B80C5FF239B48F000520793219B584644F093
S31508009B9000540DA946F00056089709940A930B97A6
S31508009BA00C92CDF834900E970F9629F0AFFF5846D1
S31508009BB00AA929F0ABFF584607A929F0A7FF259B54
S31508009BC0584610A945F00055CDF840A011971294B3
S31508009BD013931497159529F0A3FF584613A929F04E
S31508009BE09FFF5846FFF70AFE17B0BDE8F08F212001
S31508009BF0FAE700BFFFFF0320000005042DE9F04F38
S31508009C0099B00F4614469B468046229EDDF89890EA
S31508009C10289D002800F0B280002900F0AF80279B1D
S31508009C20002B00F0AB80BBF1000F00F0A780249B4F
S31508009C301BB1239B002B00F0A1803CB1259B002B78
S31508009C4000F09C80B9F1000F00F09880C6F10F0370
S31508009C50DBB2032B06D80121DB0001FA03F3A3428A
S31508009C6040F28C80022D00F089806B1E0F2B00F2CB
S31508009C70858015F0010A40F08180F31F062B7DD8F8
S31508009C803F4B09EB0401994278D83E4B3846C8E960
S31508009C90003AC8F808A0C8F81CA015A92AF01DF9AA
S31508009CA00346002866D14046159929F043FF4046E9
S31508009CB045EA064129F03EFF4046249929F03AFF35
S31508009CC02146404629F036FF384603A900F0C8F871
S31508009CD0034600284ED1404603A929F017FF384607
S31508009CE006A92AF0C8F90346002843D101274046A9
S31508009CF006A929F00BFF259B4046099344F000531B
S31508009D000A9701930B93239B46F000560C93249BCA
S31508009D100D9743F000510E910FA9CDF83CB010975E
S31508009D20119629F0F3FE40460CA929F0EFFE4046AD
S31508009D3009A929F0EBFE019B404612A9CDF84890E7
S31508009D401397149329F0ECFE279B404615A945F076
S31508009D50005515931697179529F0D8FE4046FFF734
S31508009D604DFD034630B1019022465146484632F031
S31508009D700EFD019B184619B0BDE8F08F2123F9E7BF
S31508009D80FFFF0320000006042DE9FF4700230E46C7
S31508009D9017460446009300285BD00AB1002958D01C
S31508009DA037F0030807F0030A25D04FF000094FF0F3
S31508009DB0E063C4E90039012301962046029301A90C
S31508009DC048F00053C4F80890C4F81C90039329F08F
S31508009DD0A7FE4146204629F0ADFE2046FFF70EFDB8
S31508009DE0054640B142464946304632F0D0FC284640
S31508009DF004B0BDE8F0874FF00009BAF1000F2AD089
S31508009E004FF0E063C4E900390123CDF804D002938A
S31508009E10124B204601A9C4F80890C4F81C90039375
S31508009E2029F07EFE0421204629F084FE2046FFF70D
S31508009E30E5FC054608B13A46D5E703460099464487
S31508009E40DA00013321FA02F29A4506F8012BF7D116
S31508009E50CDE72125CBE75546C9E700BF040000201A
S31508009E60A0B199B101234B60C368013B012B0AD805
S31508009E708069074B18B1086000208B607047054A57
S31508009E800A608B6070474FF00053F5E72120704752
S31508009E900800002058190408012300F01F02A0F545
S31508009EA006200949A0F550604009934051F8202042
S31508009EB01A4341F82020054951F8202022EA0303D5
S31508009EC041F82030704700BFFC2600201C270020E0
S31508009ED00122A0F506230E49A3F550635B0900F09D
S31508009EE01F0002FA00F051F82320104341F823001E
S31508009EF000231946074A52F8040B0133082B01447C
S31508009F00F9D119B92022024832F041BC704700BF86
S31508009F101C270020FC2600202DE9F04FA9B002924C
S31508009F201D46DDE9326704460822CDE903014140B2
S31508009F3021FA02F34B40980702F1080218BF9B006A
S31508009F40202A1C44F4D1784BE4B21B7804F5062485
S31508009F5004F55064002B40D1FDF77AFE014620B186
S31508009F606FF0910029B0BDE8F08F4022059008A84F
S31508009F7032F00DFC4022059918A832F008FCDFF8EB
S31508009F80C091DFF8C0A14B4603F10F0B102208A9B8
S31508009F90DAF80000CDF800B005932FF004F9002296
S31508009FA00146059B09F110090DF12008914247D198
S31508009FB0CDF800B01022DAF8000018A92FF0FCF846
S31508009FC04FF0000B03460DF160085B4544D1574B33
S31508009FD09945D8D10122544B1A704FF480784FF026
S31508009FE00009DFF860A1A4F506235149A3F55062DC
S31508009FF0520951F8221004F01F0C21FA0CF1C90776
S3150800A0003FD44C4951F8220020FA0CF010F0010018
S3150800A0102BD0B9F1000F08BFA146A3F6FF44E4B25E
S3150800A02004F50624B8F1010804F55064DBD1029B57
S3150800A030EBB1B9F1000F1AD0349BC3F800906DE06C
S3150800A04058F8040BCDE906230591FFF725FF069A74
S3150800A050079B05990132A9E758F8040B05930BF1FC
S3150800A060010BFFF735FF059BAFE7029B13B96FF0AE
S3150800A0708B0077E7349BB9F1000F4ED0C3F80090F8
S3150800A08070E70EB1002333600FB100233B604FF039
S3150800A090100B00232A462146DAF80000CDF800B056
S3150800A0A00DF036FF08BB0EB1C6F800B02B68224A81
S3150800A0B0934224D166B15FB13B462146DAF80000E7
S3150800A0C018AA0EF04BF880B93B6832689B1A3B60B9
S3150800A0D0D5E90223DDE90310834208BF8A4216D078
S3150800A0E0A4F50624A4F6FF4499E7144B984206D033
S3150800A0F01233984203D0133B9842E9D030E7214601
S3150800A100DAF800000EF070F80028E1D0AFE7029BFD
S3150800A11013B16B68012B03D0349B1C60002021E728
S3150800A1206FF084001EE700BF244900200071080074
S3150800A130FC2600201C270020105D175EFFDF00F0BC
S3150800A140006D0800EC1000202DE9F04F87B082461C
S3150800A150894698461646DDF840B02AB1002B4ED0FF
S3150800A16040F26C739A424DD8BBF1010F4DD80024CA
S3150800A17006F110073946012005942DF0B4FC054672
S3150800A180002845D021463A4632F001FB05ABCDE919
S3150800A190014300942B46012250464946FFF7BCFE70
S3150800A1A0044680B110F18C0F08BF6FF08D043A4653
S3150800A1B00021284632F0EBFA28462DF0A5FC204669
S3150800A1C007B0BDE8F08F144BC5E902A92B60C5F8A6
S3150800A1D004B02EB13246414605F1100032F0B0FA0D
S3150800A1E00E483B462A46059900680DF0F9FD18B950
S3150800A1F00598FFF751FEDAE76FF09104D7E76FF09D
S3150800A2008604DCE76FF09104D9E76FF08504D6E79A
S3150800A2106FF08C04D3E700BF105D175EEC100020CA
S3150800A2202DE9F0438DB08146DDE914780C461546D4
S3150800A2301E469BB1B8F1000F05D16FF08604204683
S3150800A2400DB0BDE8F083002FF7D0B7F1005FF4D367
S3150800A250C3F1005303F580239F42EED81022002154
S3150800A26008A832F094FA002207AB029305AB0193D3
S3150800A27006AB21460093484608ABCDE90522FFF711
S3150800A2804BFE04460028DAD10599DEB1A94203D867
S3150800A2900029D2D115B1D0E70029FBD0491BB1421C
S3150800A2A028BF3146069B0948C8F8001000913A466F
S3150800A2B0079900682B440DF02BFE002818BF6FF095
S3150800A2C09104BCE7A942E9D2B7E700BFEC10002029
S3150800A2D030B58DB00C4605461022002108A832F08C
S3150800A2E056FA002207AB029305AB019306AB21464B
S3150800A2F00093284608ABCDE90522FFF70DFE044674
S3150800A300D0B9099B012B1AD0104B079918680DF084
S3150800A3106BFFB8B9012207980D49A0F50623A3F5E6
S3150800A32050635B0900F01F05AA4051F823506A40A4
S3150800A33041F82320FFF7CCFD20460DB030BD6FF065
S3150800A3408404F9E76FF09104F6E700BFEC100020EB
S3150800A350FC26002030B5048804F4E043B3F5005F1A
S3150800A36034D1C4F30223042B30D181F0AA6383F4D9
S3150800A370807333F47E1309D081F0AA6383F40073E3
S3150800A38033F47E130CBF0123002300E001230BB135
S3150800A390C1F30543164D21F47E11A94221D1B4F526
S3150800A3A0105F1ED14188B1F5807F03D021F04001AE
S3150800A3B0802919D1191F0C2916D8DB0714D4073A96
S3150800A3C0062A8CBF6FF08600002030BD42F20403D7
S3150800A3D09C4204D181F0052383F48013D0E700233F
S3150800A3E0D5E76FF08500F0E76FF08600EDE700BF70
S3150800A3F0000140052DE9F04F2DED028B99B08146FD
S3150800A400DDE9287608EE102A1D468B46DDF8A88079
S3150800A410DDF8BCA041B138B1249B2BB1269B0BB902
S3150800A420279B0BB91FB94EB16FF0860486E02EB193
S3150800A430B8F1000FF8D02B9B002BF5D02C9B002BE6
S3150800A440F2D0BAF1000FEFD02E9B002BECD02D9B4B
S3150800A450002BE9D0B9F8003003F4E042B2F5005F0A
S3150800A46072D1C3F30222042A6ED185F0AA6383F45B
S3150800A470807333F47E1309D085F0AA6383F40073DE
S3150800A48033F47E130CBF0123002300E001230BB134
S3150800A490C5F3054329464846259ACAF80030FFF70A
S3150800A4A059FF0446002849D1202201460DEB020037
S3150800A4B032F06DF92022214610A832F068F908A872
S3150800A4C029F047FC002858D118EE102A5946484664
S3150800A4D010AB00F0D3FA044600282FD12B9B9E42DE
S3150800A4E04ED8DAF800302E9A934249D8474508D212
S3150800A4F0BB19984505D239463246404632F02DF901
S3150800A5004746214B25F47E159D4228D1DAF80030BE
S3150800A510324606932D9B0397CDE90483279B10A902
S3150800A5200293269B08A80193259B0093249BFFF77B
S3150800A530AFFA21281BD0E8B92C9B1E60204619B01B
S3150800A540BDEC028BBDE8F08F42F20402934204D1BF
S3150800A55085F0052383F4801392E7002397E76FF0CD
S3150800A560880400232C9A1360CAF80030E6E76FF0D7
S3150800A5708604F6E76FF09204F3E76FF09204DDE7DE
S3150800A5806FF08904DAE700BF000140052DE9F04FB6
S3150800A59099B08A46DDE926659346984681462A9FFC
S3150800A5A028B96FF08604204619B0BDE8F08F002957
S3150800A5B0F7D0229B002BF4D0249B13B9259B002BA4
S3150800A5C0EFD10EB9002DECD117B92B9B002BE8D192
S3150800A5D02C9B002BE5D0289B002BE2D04146484611
S3150800A5E0239AFFF7B7FE04460028DCD1202201464D
S3150800A5F00DEB020032F0CBF82022214610A832F0EB
S3150800A600C6F808A829F0A5FB10B16FF09204CAE7AE
S3150800A6105A465146484610AB00F030FA0446002820
S3150800A620C1D12B9B9D422AD8BE4208D273199F429C
S3150800A63005D231462A46384632F08FF83E46144B44
S3150800A64028F47E1898451DD1299B2A460693289BEF
S3150800A6500396CDE90473259B10A90293249B08A8A9
S3150800A6600193239B0093229BFFF7C8FA212898D0D1
S3150800A6702C280AD00028C8D12C9B1D6093E76FF0C0
S3150800A680890490E76FF088048DE76FF094048AE7F1
S3150800A69000014005084B984202D0084B984207D162
S3150800A6A00B88B3F5105F0CBF00206FF0850070476C
S3150800A6B06FF08500704700BF004440040013C004D3
S3150800A6C02DE9F04F98460023A3B08246DDE92E75A2
S3150800A6D0DDE93069CDE90633CDE90833CDE90A333A
S3150800A6E0CDE90C33DDF8C8B005920491002900F0D5
S3150800A6F0E580002A00F0E28017B9002D40F0DE80E0
S3150800A7002C9B1BB92D9B002B40F0D8801EB9B9F1A4
S3150800A710000F40F0D380BBF1000F00F0CF80514608
S3150800A7204046FFF7B7FF044678B90146202212A82B
S3150800A73032F02DF8202221461AA832F028F812A85D
S3150800A74029F007FB28B16FF09204204623B0BDE834
S3150800A750F08F5046DDE904121AAB00F08FF9044673
S3150800A7600028F2D11A9829F047FE04460028ECD1B1
S3150800A77015B9CBF80000E8E7B7420BD27B199E4221
S3150800A78008D24D4500F29A8039462A46304631F0BD
S3150800A790E4FF37464F4B98451BD003F54073984561
S3150800A7A017D04D4B984540F08C804D4500F2868079
S3150800A7B015F00F0240F082802B46CDE900761AA9E3
S3150800A7C012A8FFF73BF80746002846D1CBF80050F9
S3150800A7D0BBE700234D45CDE90E33CDE910336DD8DF
S3150800A7E03E4B98452D9B46D10D2B67D101238DF8FD
S3150800A7F038302C9B0DF1390203F10C0153F8040B88
S3150800A8008B4242F8040BF9D11B78137001238DF89B
S3150800A810473015F00F0825F00F0A55D007EB0A0345
S3150800A8200DF1280C03F1100E6246186859680833B2
S3150800A83003C273459446F7D1BAF1000F2ED006AB82
S3150800A84001930EABCDE902760093524600231AA96E
S3150800A85012A8FFF74BF80746E8B14A4600213046EA
S3150800A86031F095FF0023012FCBF800307FF46BAF52
S3150800A8706FF08B0469E7102B20D12C9B0DF1380C57
S3150800A88003F1100E624618685968083303C2734507
S3150800A8909446F7D1BDE7B8F1000F97D00AAB0293FB
S3150800A8A006AB06EB0A0201930EAB039200934246EF
S3150800A8B000231AA912A8FFF719F884E76FF086048F
S3150800A8C043E76FF0850440E7BAF1000F3FF47EAF27
S3150800A8D0B5E700BF0010C004004440040013C004DC
S3150800A8E02DE9F04F994600239FB08246DDE9286599
S3150800A8F0DDE92A78CDE90633CDE90833CDE90A330F
S3150800A900CDE90C33DDF8B0B00592049129B96FF0A2
S3150800A910860420461FB0BDE8F08F059B002BF6D0B5
S3150800A9200EB9002DF3D117B9B8F1000FEFD1BBF16D
S3150800A930000FECD051464846FFF7ACFE0446002807
S3150800A940E7D1014620220EA831F021FF2022214618
S3150800A95016A831F01CFF0EA829F0FBF9002844D1EF
S3150800A960DDE90412504616AB00F088F804460028C4
S3150800A970CFD1169829F040FD04460028C9D115B94B
S3150800A980CBF80000C5E7BE420AD273199F4207D228
S3150800A9904545BCD831462A46384631F0DEFE3E46A5
S3150800A9A0344B99454BD003F54073994520D0324B2B
S3150800A9B0994556D1454557D82B07A8D12B4601228C
S3150800A9C0CDE9006716A90EA8FEF738FF0646CBF8AC
S3150800A9D0005000289DD042460021384631F0D7FE67
S3150800A9E00023012ECBF8003041D06FF0920490E797
S3150800A9F00D3D454538D801238DF8283033460DF1ED
S3150800AA00290206F10C0153F8040B8B4242F8040B99
S3150800AA10F9D11B780D36137000238DF836300123D3
S3150800AA208DF8373006AB01930AAB00932A4600230C
S3150800AA30CDE9026716A90EA8FEF758FFC6E7103D2E
S3150800AA40454511D833460DF1280C06F1100E62461D
S3150800AA5018685968083303C273459446F7D1103607
S3150800AA60E0E76FF0850454E76FF0890451E76FF06B
S3150800AA708B044EE70010C004004440042DE9F04161
S3150800AA80154600221C4643688AB01B0A07460E462E
S3150800AA90019204D0012B3CD06FF08B0078E022465F
S3150800AAA02946019529F0D1FC002871D10335C4E95E
S3150800AAB0030625F003056561019D002C00F0C6809C
S3150800AAC0002D00F0C3802022002102A831F05FFE8D
S3150800AAD02946384602AA29F0B8FC002840F0B68074
S3150800AAE02368029A9A4240F0B1806368039A9A42B0
S3150800AAF040F0AC80A368049A9A4240F0A780A36904
S3150800AB00089A9A4240F0A280E369099A9A423FD08D
S3150800AB109CE0032D40F29F8091F80080B8F1010F68
S3150800AB2040F0A3804978002979D0F7390829B3D8A5
S3150800AB3001A353F821F000BFCFAB000897AB00087C
S3150800AB4099AA0008B3AB000899AA00085DAB0008EB
S3150800AB5099AA0008EBAB000805AC00081C220021E6
S3150800AB6003A831F014FE424B4FF41050029303230E
S3150800AB70CDE90403FC2306930AAD02AB1A4603CAC1
S3150800AB80AA4220606160134604F10804F6D1002049
S3150800AB900AB0BDE8F0811C22002103A831F0F7FDB8
S3150800ABA0334B4FF4105202930323CDE90423F823C1
S3150800ABB0E1E71C22002103A831F0E9FD10234FF03C
S3150800ABC0807E02930323CDE904E3FA23D3E71C220C
S3150800ABD0002103A831F0DBFD20234FF00077029314
S3150800ABE00323CDE90473F723C5E71C22002103A834
S3150800ABF031F0CDFD1E4B1F4D02930323CDE90453BF
S3150800AC00FE23B8E700211C2203A831F0C0FD184B2B
S3150800AC10194902930323CDE90413FF23ABE72B2D30
S3150800AC2019D92022204631F0B2FD7368103D236001
S3150800AC30B3681036636056F8043C2046C4E9023807
S3150800AC402661656101A929F093F838B1202200210F
S3150800AC50204631F09CFD6FF0860099E7019B6269FA
S3150800AC601C339A42BFF428AFF0E76FF091008FE7E4
S3150800AC7020000080004400020044000310B54FF491
S3150800AC802F720021044631F082FD8023C4F88C30EF
S3150800AC90054B04F19C00C4F88430012384F88830FD
S3150800ACA0BDE8104028F0A4BD6019040810B5D0F816
S3150800ACB0A0400A4674B929F015FF044640B12D286C
S3150800ACC096BF074B074953F8201007482AF059F84A
S3150800ACD0204610BDD0F8A4101046A0470024F7E778
S3150800ACE0141A040871190408AA41040873B590F8DF
S3150800ACF0805004461DB10025284602B070BD29F0D3
S3150800AD0021FD0028F7D1012384F8803094F8883093
S3150800AD1033B1D4F884101A4884F888502AF031F8E8
S3150800AD204FF0FF36D4F8B402421C22D0C4F8B462FD
S3150800AD3010F0FF011BD02046019129F000FD2046A6
S3150800AD40019900F0A7FB0028ECD0204629F008FD61
S3150800AD5094F888303BB1D4F8841009482AF011F8E1
S3150800AD60002384F88830002384F88030C4E701255E
S3150800AD70D8E729F0EBFF431CDAD10125F3E700BF3A
S3150800AD80413E0408F8B50B780546302B0E461746A3
S3150800AD9004D14B7803F0DF03582B12D02A49721ED0
S3150800ADA012F8014F002C38D10A222146304628F0E5
S3150800ADB0A9F8202D03460A4634D1631A5842584149
S3150800ADC017E04A1C204912F8013F9BB9304631F07A
S3150800ADD006FD1E4B02382B40032B15D16B1C48BFB2
S3150800ADE02B1D9B1083420BD1B07837288CBF0020CF
S3150800ADF00120F8BD5B5C13F04403E4D11846F8E77C
S3150800AE00CCBF01200020F4E7002DB8BF0335B0EB16
S3150800AE10A50FD4BF01200020EBE7635C13F0040301
S3150800AE20BED1EBE727B1084302D0013B61F100022E
S3150800AE30012000FA05F5013D1D40002A08BF9D4284
S3150800AE4018BF0020D5E700BF0FA50408030000803F
S3150800AE5070B503787B2B16D10546022100220B4ECE
S3150800AE6015F8014F7D2C05D1435C63B9D04300F03A
S3150800AE70010070BDA35D13F0440302D00132013115
S3150800AE80EEE7202CFBD00020F3E700BF0FA504084F
S3150800AE9070B506460D4631F0A2FC0446304629F048
S3150800AEA070FF044EAC4200D370BD304629F069FFEE
S3150800AEB00134F7E7683504082DE9F84F04460221FE
S3150800AEC05048FFF7E5FF1E212068FFF7E1FF63689A
S3150800AED0586829F056FF4C4829F053FF67683B7BB2
S3150800AEE0FD2B12D8D7F808804FF0FF36404631F0D0
S3150800AEF076FC0546DFF80C91DFF86CA1DFF844B163
S3150800AF000C3717F8013BFF2B01D1BDE8F88F212B31
S3150800AF1017D8212B33D8DFE803F06D736F11181A91
S3150800AF201C1E323232323232323220222426282A6B
S3150800AF302C2E32323232323232326930334C1DB331
S3150800AF401FE0FE2B5AD0324CF9E7324CF7E7324C69
S3150800AF50F5E7324CF3E7324CF1E7324CEFE7324C87
S3150800AF60EDE7324CEBE7324CE9E7324CE7E7324C97
S3150800AF70E5E7324CE3E7324CE1E7324CDFE7244CB5
S3150800AF8005B10136202BBCD002214846FFF780FFC9
S3150800AF901E214846FFF77CFF504629F0F2FE594627
S3150800AFA0204631F012FC2849002818BF21462748B8
S3150800AFB029F0E7FE3B78202B02D12B2029F0D5FE7D
S3150800AFC0234829F0DEFE4DB118F806301F2B05D0B0
S3150800AFD018F806001F2801D0AE4203DB0A4829F0FC
S3150800AFE0D0FE8EE729F0C1FE0136F1E7002D88D0A4
S3150800AFF0184CC6E7184CA2E7184CA0E7184C9EE771
S3150800B000184C9CE77B0C0408831F0408E21A040802
S3150800B010CC1A0408311B0408E81A0408291B04087A
S3150800B020251B04081C1B0408121B0408081B04081B
S3150800B0301D1B0408131B0408091B0408FE1A040830
S3150800B040F71A0408EE1A0408DF1A0408413E040831
S3150800B0501F300408D41A0408E11A0408E71A040879
S3150800B06035CB0308301B0408124504082DE9F04FB8
S3150800B0709DB00546884691460026049331F0AFFBFD
S3150800B080269F049B07901E6028463E600CAA0BA9C3
S3150800B09029F098FE0446002840F0C2800C9831F04A
S3150800B0A09EFB2646049B01941860D5F89C300393B2
S3150800B0B0039B1BB920461DB0BDE8F08F039B9B6818
S3150800B0C00293002B77D02E4416F8013B202B13D081
S3150800B0D000260C237343029AD15802EB030B00296E
S3150800B0E064D00B9B019A069393425FDB9BF808306A
S3150800B0F033B106F1010A3FE03B6801333B60E3E701
S3150800B1003B68D5F894201CA8D21A049B05911A60AE
S3150800B110019B00EB830353F8403C1846099331F032
S3150800B12066FB82460028E4D105990846089131F065
S3150800B13056FBDBF80430024693F80CC00593BCF1C5
S3150800B140FE0FD7F800B0DDE908131AD1069800F10A
S3150800B150FF3E0198864514D0059A184612680BF1E9
S3150800B160010B029231F03BFB584438603B68EA5CBD
S3150800B17022B1019B013301935646AAE701333B608E
S3150800B180F4E7D5F894300991A3EB0B0393420892A0
S3150800B19021DC404631F023FB089A099910447B28A4
S3150800B1A00DD9494640461F4A28F053FB079BEA1823
S3150800B1B02B4693422DD1039B1B68039378E70A46D7
S3150800B1C04046494628F045FB49464046164A01345A
S3150800B1D028F03FFB8DE7BCF1FE0F8AD1069B019A4A
S3150800B1E0013B934285D1059BD3F800A05AF80C2B56
S3150800B1F022B9079B3B60049B1A60D7E7494640463D
S3150800B20028F027FB49464046074A28F022FB013426
S3150800B210ECE7197811B94FF0200119700133C8E726
S3150800B220344647E7371B0408683504082DE9F04714
S3150800B230002486B01C60DDE90EA8064689468AF811
S3150800B24000401168154888F8004017461D468DF8D5
S3150800B2501740FCF77FF918B901242B6801332B60D6
S3150800B2600020D6F89C6036B914B1012388F800305E
S3150800B27006B0BDE8F087B06868B14B460021CDE955
S3150800B28002A8CDE900750DF1170229F0CAFB9DF851
S3150800B2901730002BE8D13668E5E700BF3C1B0408E9
S3150800B2A02DE9F04700260446ADF5447D7C2231465B
S3150800B2B005A80DF10808049631F069FA802220469F
S3150800B2C0CDF8008003AB04A9FFF7D0FE01283ED1D4
S3150800B2D004A831F084FA0399D8F80030471A0B44C9
S3150800B2E0234427EAE777054604A801443A46184660
S3150800B2F031F026FAC655D4F89060039BD8F80010AA
S3150800B300D4F890201944B14212DCD4F89410E81A03
S3150800B3100244C4F89020014404AAC4F89410D4182E
S3150800B32025182B1B002B0DDC0DF5447DBDE8F08799
S3150800B330A05C29F01AFDD4F8903001360133C4F820
S3150800B3409030DAE714F8010B29F00FFDE9E7EBDD99
S3150800B35024AD80223146284631F019FA44AB4FF421
S3150800B36000721846314631F012FA0DF1100A0346FA
S3150800B37052464FF0010912F8017B002F48D143F8D5
S3150800B380296004A831F02BFA29463B461AF8016BC6
S3150800B39044AF57F8042B824243D10133994501F84B
S3150800B3A0016BF3DAD4F89060039BB34242DC234680
S3150800B3B0364A04A9364829F0E4FC284631F00FFA43
S3150800B3C0039ED8F8007035443744861B26EAE67291
S3150800B3D0E3191744E01904F1900188424FD904F1A2
S3150800B3E098018B424BD218466A1E99190B1A002BE4
S3150800B3F039DD12F8013F00F8013BD4F890300133EB
S3150800B400C4F89030D4F894300133C4F89430EDE79A
S3150800B410202F06F1010604BF43F8296009F1010946
S3150800B420A9E70DF1100C6244D25CB242B1D00022F9
S3150800B430EA54B7E7D4F890300136E05C29F095FC79
S3150800B440D4F890300133C4F89030ADE7D4F89020A2
S3150800B450013B0132C4F89020D4F894200132C4F894
S3150800B4609420002BF2DC00232E44E355731B002B9B
S3150800B4707FF75AAF15F8010B29F077FCF6E718465F
S3150800B480294631F05DF93346EBE700BF6019040839
S3150800B490411B04082DE9F843D0E9245604460F4613
S3150800B4A0002294F89830012B06D10A2F06D10020E5
S3150800B4B084F89800BDE8F88300F2A0801B2F03D11A
S3150800B4C0022384F898303BE0A7F10D02534253411A
S3150800B4D0082F84F8983035D1002D30DDB5420FD1CC
S3150800B4E0384629F042FC202029F03FFC384629F04E
S3150800B4F03CFC0023013D6355013EC4E924561FE088
