:1040000000100020454E0000E9900000ED900000F7
:1040100011A30200F1900000F990000011A302002A
:1040200011A3020011A3020011A3020011A30200B8
:10403000FD9000000459030011A3020011A3020027
:1040400011A3020011A3020011A3020015530000E6
:1040500011A3020011A3020011A3020011A3020088
:1040600011A3020011A3020075A40000A14D0000DD
:10407000C79F020011A3020011A3020011A30200B6
:1040800011A3020011A3020011A3020011A3020058
:1040900011A302007559000011A3020011A3020030
:1040A00011A3020011A3020011A3020011A3020038
:1040B00011A30200AFF4020011A30200B59E01009B
:1040C000B5F40200B1F4020075960100C1F40200DB
:1040D000B9F40200799E0100BDF40200AD84010034
:1040E000F59E010011A3020011A302000992000035
:1040F00011A3020011A3020011A3020011A30200E8
:1041000011A3020011A3020011A3020011A30200D7
:1041100011A3020011A3020011A3020011A30200C7
:1041200011A3020011A3020011A3020011A30200B7
:1041300011A30200000000002DE9F04F2DED088BC7
:104140008DB09DED1E7B09EE903ADDE920430A9388
:10415000229B09EE100A8A460792069351EC170B30
:1041600053EC172BB0EE478AF0EE678A25F0B0F9D2
:1041700080B14FF0FF3251EC180BCF4B25F0D0F946
:1041800040B94FF0FF326FF4801351EC180B25F05B
:10419000A9F998B1069B514622930A9B19EE100A81
:1041A000CDE9204319EE903A079A8DED1E8B0DB0A4
:1041B000BDEC088BBDE8F04F00F0A2B9002200234F
:1041C00051EC180B25F08EF9002800F0448118EE10
:1041D000903A18EE108A03F10049069BC9F30A5081
:1041E00013F48063A0F2FF3008BF06240B9324F081
:1041F0009DFEA1A3D3E9002324F002FFA0A3D3E9ED
:10420000002324F047FDC9F313050F4645F07F5105
:1042100006460022A94B404641F4401124F038FDE7
:1042200099A3D3E9002324F0EBFE02460B46304667
:10423000394624F02FFD25F07DF9834624F076FEE3
:1042400093A3D3E9002306460F4624F0D9FE0022AB
:104250009B4B24F01FFD25F06DF98FA3D3E90023BC
:1042600005463946304624F0CBFE064628460F4622
:1042700024F05CFE8AA3D3E9002324F0C1FE0246A9
:104280000B463046394624F003FD02460B460646EF
:104290000F4624F0B5FE324641EC1A0B3B46304641
:1042A000394624F0F7FC002241EC1B0B854B51EC06
:1042B0001A0B24F0CFFF0022834B24F0EBFC0246C4
:1042C0000B4651EC1A0B24F0C5FF00227F4B24F063
:1042D000E1FC02460B4651EC1A0B24F0BBFF3246C0
:1042E00041EC1A0B3B4600204FF0804124F0D0FCFB
:1042F00002460B4651EC1A0B24F0CCFC02460B464E
:1043000051EC1B0B24F0A6FF05F2FF350022704B89
:1043100024F0C0FC00222B0524F072FE42464B46DE
:1043200006460F4625F0FCF8002840F09780CDE9BE
:1043300008670BF16303C72B069B34BF04250525D3
:10434000190521D558A3D3E900234046494625F055
:10435000DDF8002800F0BE8055A3D3E900234046D5
:10436000494625F0BFF8002800F0B48000255C45E0
:10437000CCBFA4EB0B000024AB46069BC8BF00F1EA
:10438000FF3443F4806306930A9B9D4238BF5E1B53
:10439000069B28BF002613F0020702D0002D18BF8D
:1043A0000026BBF1000F07D0DDE90823404649464F
:1043B00024F050FF804689460022002351EC180B60
:1043C00025F090F810B109F100439946069B51463B
:1043D00023F40063CDE9036319EE100A19EE903A55
:1043E000CDE90089079A029400F08AF875B3069B1C
:1043F000024613F0200F00F1010619EE903A14BFA7
:1044000045206520514619EE104AA0470523002299
:1044100005930A238BEAEB70CDE90232A0EBEB7037
:104420004FEADB73013D0193009019EE903A32465A
:10443000514619EE100A049529F063FE37B1079B27
:10444000C51A079B58190A9BAB424CD80DB0BDEC5E
:10445000088BBDE8F08F59EC188BBEE60022304681
:104460003946194B24F0F6FE0BF1FF3BCDE908016C
:104470005FE700BFAFF30080FB799F501344D33F49
:10448000B3C8608B288AC63F61436F63A787D23F5A
:1044900071A379094F930A401655B5BBB16B024021
:1044A000EF39FAFE422EE63F2D431CEBE2361A3F6F
:1044B0000000000080842E41FFFFEF7F0000F83FE6
:1044C0000000E03F00002C400000244000001840A5
:1044D0000000F03F002C3FF457AF0B9B002B3FF444
:1044E00053AF013C50E7024619EE903A5146202066
:1044F00019EE104AA0470135A3E700BF00000000F5
:104500002DE9F04F2DED088B8FB0DDE920AB08EEE3
:10451000100A0F4608EE902A09EE103ADDE9225300
:104520005246049350465B465946249E24F0D0FFE1
:10453000A0B9049B2396229303232193B84B209385
:1045400018EE902A19EE103A394618EE100A0FB0FC
:10455000BDEC088BBDE8F04F29F00BBD4FF0FF32EA
:104560006FF480135046594624F0BCFF30B1049BD1
:104570002396229304232193AA4BE0E74FF0FF32C6
:1045800050465946A84B24F0CBFF70B1A74A06F01D
:104590000403002B08BF0322A54B1CBF13460422B3
:1045A00004992396CDE92121C9E7504698A3D3E980
:1045B0000023594624F0B4FF38B997A3D3E9002368
:1045C0005046594624F08EFF98B1049B18EE902A6D
:1045D000CDE92253394619EE103A18EE100ACDE90A
:1045E00020AB24960FB0BDEC088BBDE8F04FFFF771
:1045F000A3BD002200235046594624F073FF002833
:1046000000F081805B4652460020002124F040FBF0
:10461000012382468B46059316F4806F08BF06255A
:104620003021A94606ABA5F12002B9F1090FA5EB8F
:10463000090406D909F1FF394A4503F8011BF4D1F1
:1046400020245946504624F075FF7A4B054603EB6B
:10465000C90393ED007BB0EE47AAF0EE67AA24F001
:1046600065FC02460B465046594624F011FB53ECBC
:104670001A2B24F0C5FC02460B4643EC1B2B24F0FE
:1046800081FF804624F042FC02460B4651EC1B0B96
:1046900024F0FEFA02460B4643EC1B2B0022664B2D
:1046A00024F03EFF88B308F10108404624F02EFCB8
:1046B00002460B4651EC1A0B24F01EFF10B14FF0CE
:1046C00000080135B9F1000F51D1284624F02EFC25
:1046D00002460B465046594624F0DAFA0022564B61
:1046E0008046894624F0FEFE30B10022404649460D
:1046F000514B24F015FF10B1E80700D5013506AB8A
:104700000A2223445AE0059086E7002251EC1B0B55
:10471000494B24F0E7FE0028D4D1B8F1000F02D0B5
:1047200018F0010FCED008F10108CBE7B8FBF1F08B
:1047300001FB1082B8F1090F02F1300209F1FF39D3
:1047400004F1010403F8012B28D83021A14406AA62
:10475000202C11D04C4504F1010321D104F1380281
:104760000DEB02042E2204F8202C1C46C7E70A2178
:1047700006AB2344202CD9D106F00303012B06AB52
:1047800039D1049A002A36D0059A12B916F00C0FC6
:1047900002D0049A013A0492302214E08046E9E7FC
:1047A000A1541C46D4E795FBF2F102FB11553035BC
:1047B00003F8015B01340D460029DDD0202CF2D135
:1047C000DAE71A5501340499A14214D9202CF8D102
:1047D000049A0093CDE9014219EE103A18EE902A9E
:1047E000394618EE100A039629F0C3FB0FB0BDEC52
:1047F000088BBDE8F08F202CEAD0059AF2B12D216C
:1048000004F138026A4402F8201C0134E0E700BFDA
:104810000000000065CDCD410000000065CDCDC198
:104820005DA1030061A10300FFFFEF7F58A103001A
:1048300054A1030068A103000000E03F710704D504
:1048400004F138022B216A44DDE73207C0D504F1B8
:10485000380220216A44D6E770B58EB02C220021A0
:1048600003A82CF0DBFF64234FF0023201210893F0
:104870008DF81010CDE905230B238DF83430504B03
:104880001B88D80700F1958008464E4C18F09CFA1A
:104890004D4B0A224D494E481A704FF42873ADF81B
:1048A000123015F0A1FB206020B940F231214948B7
:1048B00004F018FB052120682AF09FF920B14FF47D
:1048C0000F71444804F00EFB20680C2500F074FAC8
:1048D000414B206819682AF008FA19F035F9684345
:1048E000099019F031F968430DEB05010790206834
:1048F0000FF020FF20B140F25121364804F0F2FAC7
:104900000022364920682AF07AFA20B140F2532179
:10491000304804F0E7FA324E40F20353314D96F935
:1049200000002B8005237F28AB7001D118F0ACFB71
:104930003378EB7019F008F900EB80008000A88054
:1049400019F002F90023C0004FF0FF31E8804FF06A
:10495000FF30AB6018A3D3E9002318F0F3FB224922
:1049600020682AF03EFE02A920682AF022FA20B12F
:1049700040F28621174804F0B5FA042220680DEBB6
:1049800002012AF09FF9042804D040F2892111483D
:1049900004F0A8FA01A901202AF0DCFF04F0E8FBEA
:1049A000012019F043FB25F0F2FE19F069FB18F025
:1049B00091FA0EB070BD00BF0A0020FF4203000054
:1049C0008E3B002058370020D73F0020F5CD010056
:1049D000881200205DC3030008110020DC3F002086
:1049E000671500204437002095CF010010B5054C15
:1049F000237833B9044B13B1044800E000BF01230E
:104A0000237010BD9819002000000000C8C60300E4
:104A100008B5034B1BB10349034800E000BF08BDC4
:104A2000000000009C190020C8C60300A3F5803ACE
:104A3000704700BF174B002B08BF134B9D46FFF775
:104A4000F5FF00218B460F461348144A121A2CF02A
:104A5000E5FE0E4B002B00D098470D4B002B00D0ED
:104A600098470020002104000D000D48002802D0C6
:104A70000C4800E000BF24F049FF2000290025F089
:104A800065FA24F02FFF00BF0000080000000000BE
:104A900000000000001000202C1700201040002013
:104AA000000000000000000007B5064B01900093D5
:104AB00001210420044B054A08F086FB03B05DF891
:104AC00004FB00BF959B0300A8190300AD19030068
:104AD00030B50A4C0A4B22680A4D1A600A4B85B061
:104AE0002B600A4B019303F041FC2B68029001A953
:104AF0002068039326F08EF805B030BDA410002086
:104B0000A02500209C250020981000202C53030095
:104B1000014B186826F092B8A410002038B503F0B5
:104B200025FC0446064D2B68D3F8B00203F012FCB6
:104B3000286826F096F82046BDE8384003F00ABC05
:104B4000A410002010B51E4C25F00AFD236F23F0A1
:104B5000070343F00203236725F009FDD4F8203151
:104B6000002023F0070343F00103C4F82031D4F8F8
:104B7000403123F0030343F00203C4F84031D4F87A
:104B8000603123F0030343F00203C4F86031D4F82A
:104B9000403223F0030343F00203C4F84032D4F858
:104BA000003223F0070343F00203C4F80032D4F8C4
:104BB000083223F0070343F00203C4F8083210BDA3
:104BC0000080005007B501A801F0C0FD9DF8053038
:104BD000012B27D1244A936DDB0313D4536B23F4A9
:104BE000FF0323F4FE4343F4BC1343F4A063536375
:104BF000136B23F4704343F440431363136B43F488
:104C0000E06313639DF8043063B94FF000531B68F1
:104C1000164B1B68164B1B68164B1B68164B1B6804
:104C2000164B1B68164AD2F8803043F00303C2F8D3
:104C3000803003F071FB25F02BFB03F057FB03F0F2
:104C400013FB03F019FBFFF77DFF03F0FBFA25F0E0
:104C50001DFB00F027FB03F07DFE00F0D5FE03B046
:104C60005DF804EB04F034BD00C0005000400020AB
:104C70000080002000C00020000001200040012032
:104C80000080005030B5204D95B00DAC0FCD0FC455
:104C900095E80700032384E8070001248DF84D30D0
:104CA0001A4A1B4B0021CDE903231A4B102209A8F5
:104CB000CDE905342CF0B2FD4FF48021164B0DAA3E
:104CC000CDE907130B238DF824300C238DF8253004
:104CD000124B07A90A9320230B93114B1148009301
:104CE00003AB8DF8314003F057FD04469DF8323098
:104CF0004FF4E130002B0CBF0321002125F0F9FA1D
:104D0000204615B030BD00BF8C5303000080055015
:104D1000210005000600040224800550083C002004
:104D2000701C0020C81C0020831E012B10B512D857
:104D3000012910D8114B04221B6905210020C3F35F
:104D4000401301F073FB0E4B1B681868A8B1BDE857
:104D50001040436A18478B1E012B0CD801280CD831
:104D6000BDE810400022054B05211B691046C3F326
:104D7000401301F05BBB0129E5D910BD00C0035011
:104D8000B010002008B50449044804F04BFDBDE80C
:104D90000840FFF777BF00BFA8100020C01C00200C
:104DA000014826F054BC00BFC81C0020014B1A6A01
:104DB00018681047C81C002008B50FF0F1FC00224D
:104DC000014B1A7008BD00BF283C0020014825F0A7
:104DD0003FBB00BFA85303001FB50949034608881D
:104DE000897803AAADF80C008DF80E100092062108
:104DF0004222012007F0A6F805B05DF804FB00BFD1
:104E0000C05303000A46014925F0B1B9FF58030019
:104E10000A46014925F0ABB9FC58030007B5082044
:104E200025F0FDFA02238DF80030054B684601930A
:104E300025F02FFA082003B05DF804EB25F0FBBA4B
:104E4000006A181008B500F02DF8124B12498B4279
:104E500012D30020114B12498B4218D3FFF7EAFD01
:104E6000186850F82240586840F82240013298688B
:104E70008242F5D30C33EAE70022F8E71C6844F8D5
:104E8000220001325C68A242F8D30833E4E7002232
:104E9000F8E700BFD0C60300DCC60300DCC6030091
:104EA000DCC603006FF00100104B114A10B59A6088
:104EB000D3F888200F4942F47002C3F8882001F526
:104EC0000052106641F2FF7050660220C3F8D00015
:104ED000BFF34F8FBFF36F8F08244FF44033064862
:104EE000C0F88041D36004600B6110BD00ED00E0AC
:104EF000004000000080004400E100E0014B186821
:104F0000704700BFD4100020014B1860704700BFED
:104F1000D4100020084B1B6F03F00703022B04D0B2
:104F2000032B05D0012B05D0FEE7044B1868704712
:104F3000034BFBE70348704700800050D41000206B
:104F4000D8100020002D310108B5FFF7E3FF054B15
:104F50001B6FC3F301330133B0FBF3F0024B186056
:104F600008BD00BF00800050D010002000487047EE
:104F700000B4C404014B1868704700BFD81000206B
:104F8000054B1860054B1B6F03F00703032B01D182
:104F9000FFF7DABF704700BFD81000200080005034
:104FA00000487047002D3101174B9868C0F304404A
:104FB0000C2822D8DFE800F0092121212121071740
:104FC00019211B1D1F00114870479B6803F0407397
:104FD000B3F1807F13D0B3F1007F12D00C4A002BC5
:104FE00008BF104670470B4870470B4870470B4886
:104FF00070470B4870470B487047002070470A48BD
:1050000070470A48704700BF0040015A405DC60023
:1050100000093D000024F400C0EA210180BA8C019F
:105020000048E801005A620280841E0040420F00DE
:10503000014B1868704700BFDC100020BFF34F8F92
:105040000549064BCA6802F4E0621343CB60BFF324
:105050004F8F00BFFDE700BF00ED00E00400FA0540
:1050600000239B6AB3F5804F03D21968064A914228
:1050700003D00023037083607047012202709A6896
:105080009B694260F7E700BF07B0CD5E73B5494B3F
:1050900004461A781AB102221A7002B070BDCDE926
:1050A00000220028F9D001261E7025F079FA424D21
:1050B000424B186012F0D4F82B785BB900F0A4FCD6
:1050C00040B93F4808233F4A3F4900680EF048FD79
:1050D00000B92E703D4B5A68E2603D4A9A601A6EE4
:1050E00022605A6E6260D3F87021A2601B6E5C046D
:1050F00040D5384AD368D807FCD4374B1A68531CBC
:105100003DD04FF480139340344A13660423334C4C
:1051100023664FF48063236625F01EF901300ED01C
:1051200025F01AF940F20113984208D04FF4804359
:1051300023664FF4004323661023C4F87031102314
:10514000264C4FF0804223664FF400536846236696
:1051500001A92266636625F0E4F8009B2366019BA3
:1051600063662B78002B98D0164B1A6822665B6812
:10517000636692E71A4AD368D907FCD4BDE7194B96
:105180001B78002BC2D1184B5A68144B12B94FF43C
:1051900080121A66154A526812B94FF400121A6644
:1051A000134B5B68002BB1D14FF480020B4B1A6696
:1051B000ACE700BF2B3C0020293C0020041D002050
:1051C000E4100020FC1C0020007108000080004456
:1051D00055CEAC0000000440E010002000900044D8
:1051E000000004502A3C00200080055000C00550FB
:1051F0000000065038B5224D04462B78012B02D012
:1052000001232B7038BD0028FCD025F0A5F8013013
:1052100009D025F0A1F840F20113984203D0194AB1
:10522000D368DB07FCD42268174B1A6662685A669B
:10523000A268C3F87021E268D40744BF00229A60D4
:10524000124B1A68013213D1114A127882B91149EE
:105250004968C80748BF1A600F4A5268D10744BF5F
:1052600001221A600D4A5268D20744BF02221A6016
:1052700011F0FEFF0A4B186825F098F90023C0E7EB
:105280002B3C00200000044000800044E01000207F
:105290002A3C00200080055000C005500000065048
:1052A000041D002070B50024A36AB3F5804F22D2FC
:1052B0001A68124B9A421ED1114E337813F0FD0535
:1052C00017D11048FFF7E2FE08214FF480330E4A51
:1052D0000E48C2F88011C36011600D4A1361AB6AB9
:1052E000DB69984704460748FFF784FF0CB90123A0
:1052F0003370204670BD4FF48174FAE707B0CD5E7D
:105300002A3C0020EC1C002000E100E000A000444A
:105310000090004413B51F4B1B7803B9FEE7002330
:105320001D4CCDE900336A4608231C4920680EF065
:1053300017FCF0B91A4AD2F84031D2F840211F2B9D
:105340004FF0010310D9203A9340019A134301937F
:1053500008236A46114920680EF0B8FB4FF000534D
:10536000104A1A60FFF76AFE9340009A13430093B5
:10537000EEE70D4B9842F1D1094AD2F84031D2F80C
:1053800040211F2B4FF0010302D9203A9340DEE762
:105390009340ECE72B3C0020E41000200071080053
:1053A000008000440B020FF00BE000F070B5D0B1AC
:1053B000C9B10E4E431E013913F8014F2046A25DBC
:1053C00002F00302012A11F8012F08BF04F12000A6
:1053D000B55C05F00305012D08BF2032801A01D10C
:1053E000002CE9D170BD0120FCE700BF5EC50300C1
:1053F00008B5032101230422002001F017F8002042
:1054000025F0ECF80122244B0C20C3F84424234A55
:10541000D2F8803043F00303C2F8803000F04EFD34
:105420001F4B00F5D520D3F8F02000F2FC4042F0ED
:105430000102C3F8F020D3F8FC2042F08072C3F8D8
:10544000FC20184AA3F55D431A60174B0222B0FBFB
:10545000F3F0164B01381861C3F8F0204FF4807256
:10546000C3F804234FF06043114A0020C3F8B02F63
:10547000104AC3F8802ED3F8002E42F48072C3F88D
:10548000002EFF2283F82020D3F8002E22F4807211
:10549000C3F8002E08BD00BF00D0035000800050AC
:1054A00000ED00E0FF030040F8590D00000004E0AB
:1054B00055CEACC5090001004FF06043D3F8802EF3
:1054C00030B5D20715D501240B4D8440D5F8FC200A
:1054D00042F08072C5F8FC20D3F8002E2243C3F8B6
:1054E000002E53F82020002AF0D003F820100020CE
:1054F00030BD1120FCE700BF00ED00E010B5012237
:1055000043780178847830209A40054B00FB0133C2
:105510001CB942F210015A5010BD41F21001FAE7D5
:1055200000C0035010B50122437801788478302000
:105530009A40054B00FB01331CB941F210015A504F
:1055400010BD42F21001FAE700C003502DE9F04F00
:105550009A46564B85B01B7806460F461546DDF831
:105560003C909DF844B0DDF85080002B00F08D8019
:10557000072A00F28C800E9B002B00F08880B9F186
:10558000000F00F08480129BB3F5006F7FDC0128D0
:1055900002D1109B002B7AD0454B03EB05131B7BEC
:1055A000002B76D0434C1022002168462CF036F9AF
:1055B00004EB45141022002F59D1394620462CF017
:1055C0002DF943F210036380BBF1000F03D1E378A0
:1055D00043F00303E370374A0E9B02EB451CCCE912
:1055E0000193129B6901013BC3F30A009DF84C3003
:1055F000012E03F003034FEA836343EA001E53586E
:105600002D48CDF800A000EA03004EEA00035350F5
:1056100041D113230CF1100ECCF80C309CE80F0094
:105620008EE80F006FF00301DCF81C20109B61F383
:105630009F02012FCCF81C20CCF8143003D1CCF8F9
:105640001890CCF804300027194A290102EB051301
:1056500042F80180159A28465A60694622469F60A2
:105660005E7300F071FF384605B0BDE8F08F002191
:1056700020462CF0D3F84FF444736380BBF1000F45
:10568000A9D1E37843F03003A4E70C48ECE70C48D9
:10569000EAE70C48E8E7B8F1000FD4D19CF80230F3
:1056A00068F304138CF80230CDE700BF2C3C0020D7
:1056B000081D0020881D00200F80FFF3028000F0ED
:1056C000018000F0078000F038B5124B05461B78CA
:1056D000DBB1E0B124F064FF0F4A00231146147BD4
:1056E00054B92B6001251A0101EB03131D738C5073
:1056F00024F05CFF204638BD0133082B02F1100274
:10570000EDD124F053FF0548F5E70548F3E70548D8
:10571000F1E700BF2C3C0020081D0020048000F0B1
:10572000028000F0018000F013B524F039FF00235F
:105730000B4A147B7CB90133082B02F11002F8D11B
:10574000019000F0B5FE074B01981C7024F02EFF6D
:10575000204602B010BD24F029FF0348F9E700BF3E
:10576000081D00202C3C0020058000F00D4B10B5DA
:105770001B78044693B1072812D824F011FF0A4B76
:1057800003EB04131A7B2AB100241C7324F00EFFD0
:10579000204610BD24F00AFF0448FAE70448F8E761
:1057A0000448F6E72C3C0020081D0020068000F08D
:1057B000028000F0018000F0154B13B5186800233B
:1057C00001908DF8043024F0EBFE124B1C7824B1CC
:1057D00024F0ECFE104802B010BD01221A7024F033
:1057E000E5FE0E4B01A81C731C7783F82C4083F850
:1057F0003C4083F84C4083F85C4083F86C4083F86D
:105800007C4008238DF8073000F074FE2046E2E764
:10581000545903002C3C0020038000F0081D002098
:105820000A4A08B512785AB107280BD8084A02EB81
:1058300000131B7B43B1002100F04EFE002008BD89
:105840000448FCE70448FAE70448F8E72C3C002049
:10585000081D0020028000F0018000F0078000F0A9
:105860000A4A08B512785AB107280BD8084A02EB41
:1058700000131B7B43B1012100F02EFE002008BD68
:105880000448FCE70448FAE70448F8E72C3C002009
:10589000081D0020028000F0018000F0078000F069
:1058A0000A4A08B5127852B107280AD8084A02EB0A
:1058B00000131B7B3BB100F095FE002008BD05489E
:1058C000FCE70548FAE70548F8E700BF2C3C002054
:1058D000081D0020028000F0018000F0078000F029
:1058E0000D4B1B7893B1072812D889B10B4B03EBF2
:1058F00000131B7B73B10A4B1A6D012303FA00F0EE
:1059000010401ABF00200B700870704705487047A0
:1059100005487047054870472C3C0020081D0020B2
:1059200000000450028000F0018000F0078000F0C9
:105930000B4A10B512780C4662B107280CD859B141
:10594000084A02EB00131B7B43B100F05DFE2070A0
:10595000002010BD0448FCE70448FAE70448F8E7D3
:105960002C3C0020081D0020028000F0018000F087
:10597000078000F0204B2DE9F0471F6D5A6D1F4C3A
:10598000174010D54FF000411D4A1165D868C0F38B
:1059900004200301E35804EB00125BB3BDE8F047B9
:1059A00000215268184701260025DFF85480DFF8EF
:1059B0005490374217D02368C8F850609BB1A16853
:1059C000284601316268A1609847637B012B0AD1A8
:1059D00048B909EB45131A7B60F341021A731A7F29
:1059E00060F341021A770135082D4FEA460604F1AB
:1059F0001004DED1BDE8F08700000450081D00202F
:105A000000200450881D0020024B1968024B1868C2
:105A10000DF086BFE8100020E410002037B592009A
:105A200004460D4601922BF0B7FF431C0BD060B922
:105A300029462046019A2BF0BAFE0028044808BFE8
:105A4000002003B030BD0348FBE70348F9E700BF7F
:105A500010E000F021E000F024E000F010B5044672
:105A60002BF092FF431C10D088B900F07DFE234636
:105A700020F003002044984201D1002010BD53F8CB
:105A8000042B0132F7D00348F8E70348F6E7034850
:105A9000F4E700BF0EE000F021E000F024E000F0A9
:105AA00008B524F06EFD014B186008BDC824002025
:105AB000014B186824F069BDC824002041F67133F9
:105AC00010B5104C104AA0428CBF4FF48014002433
:105AD000D169D363936801F4803123F440132343E5
:105AE00093600A4B98420A4BD3F818228CBF42F0BD
:105AF000020222F00202C3F8182211B10022024B66
:105B0000DA6310BD005A62020000035080F0FA020E
:105B100000C007502E4B98424AD022D82D4B9842B5
:105B200040D014D82C4B984239D00AD82B4B9842ED
:105B300032D02B4B98422FD02A4B98422CD00020A9
:105B40007047294B9842FAD1284B186F7047284B61
:105B500098422AD0274B9842F1D1244BD3F88000A9
:105B60007047254B98422BD009D8244B984223D01C
:105B7000234B9842E3D11D4BD3F88C007047214B47
:105B8000984221D003F5740303F510539842D6D1FF
:105B9000164BD3F898007047144B986D7047134B11
:105BA000586E7047114B586F7047104B986F704785
:105BB0000E4BD3F8840070470C4BD3F88800704725
:105BC0000A4BD3F890007047084BD3F89400704705
:105BD0000048E8010024F400C0CF6A0080841E0061
:105BE00000093D0040420F00405DC6000080E00F0C
:105BF000C0EA210180BA8C01007E560380D54302A1
:105C0000006CDC020090D00338B5134B0546D3F886
:105C100020010C4600F00700042804D8DFE800F05B
:105C20001A0A0E1216000023184605B1286004B1A6
:105C3000236038BDFFF762F90423F6E7FFF79AF90E
:105C40000323F2E7FFF7B0F90523EEE7FFF7A8F922
:105C50000223EAE70123E8E70080005037B50C464D
:105C60000021124A0191D2F88021054602F0030278
:105C7000022A0ED0032A11D0012A14D101A8FFF75D
:105C8000C3FF0D230DB1019A2A6004B1236003B054
:105C900030BDFFF789F905230190F3E7FFF780F99D
:105CA00002230190EEE70B46ECE700BF00800050B6
:105CB00038B5104B0546D3F840310C4603F00303CA
:105CC000022B0BD0032B0DD0012B0FD124F023FB83
:105CD000082305B1286004B1236038BDFFF7A8F997
:105CE0000723F6E724F01AFB0923F2E7012300203B
:105CF000EFE700BF0080005038B5104B0546D3F8E1
:105D000060310C4603F00303022B0BD0032B0DD0A4
:105D1000012B0FD124F0FFFA082305B1286004B14C
:105D2000236038BDFFF784F90723F6E724F0F6FA7D
:105D30000923F2E701230020EFE700BF00800050B5
:105D400038B5144B0546D3F800020C4600F00700A6
:105D5000042804D8DFE800F01B0A0E121600002306
:105D6000184605B1286004B1236038BD24F0D3FA89
:105D70000823F6E7FFF75CF90723F2E724F0CEFAF1
:105D80000923EEE7FFF7E0F80C23800AE9E7012397
:105D9000E7E700BF0080005038B5144B0546D3F844
:105DA00008020C4600F00700042804D8DFE800F0E1
:105DB0001B0A0E1216000023184605B1286004B114
:105DC000236038BD24F0A7FA0823F6E7FFF730F97F
:105DD0000723F2E724F0A2FA0923EEE7FFF7B4F86D
:105DE0000C23800AE9E70123E7E700BF00800050A9
:105DF00038B5104B0546D3F840320C4603F0030388
:105E0000022B0BD0032B0DD0012B0FD124F083FAE2
:105E1000082305B1286004B1236038BDFFF708F9F5
:105E20000723F6E724F07AFA0923F2E7002318465D
:105E3000EFE700BF0080005038B5104B0546D3F89F
:105E400000310C4603F00303022B0BD0032B0DD0C3
:105E5000012B0FD1FFF78EF8032305B1286004B1A1
:105E6000236038BDFFF7E4F80723F6E724F051FA82
:105E70000623F2E701230020EFE700BF0080005077
:105E8000032814D005D8012805D0022809D0002005
:105E900005E00F28FBD1084B186FC0F3013001302B
:105EA0007047054BD3F89000C0F30460F7E7024B4E
:105EB000186FC0F38020F2E7008000501FB5002368
:105EC0000193252817D8DFE800F0131A1D262B357B
:105ED0003A50555A5F646977161A3F1616551A26B6
:105EE0002B26351A5026773A3A3A3A2626265A5F12
:105EF000FFF710F80190019805B05DF804FBFFF77B
:105F000023F8F7E7FFF706F802460220FFF7B8FF8D
:105F1000B2FBF0F0EEE7FFF717F802460320F5E7D3
:105F2000FFF712F802460320FFF7AAFFB2FBF0F0DA
:105F30004008DFE7002101A8FFF790FEDBE7002122
:105F400001A8FFF761FED6E702934FF0E0231B693B
:105F50005B0705D5FEF7F8FF0290029B0193CAE7A5
:105F600003A902A8FFF7A4FEF7E7002101A8FFF7A5
:105F70009FFEC0E7002101A8FFF7BEFEBBE700219E
:105F800001A8FFF7DDFEB6E7002101A8FFF704FF37
:105F9000B1E7002101A8FFF74FFFACE7094BD3F8A9
:105FA000803003F00303022BA9D0032B01D0002083
:105FB000A0E7FEF7F9FF9DE7002101A8FFF718FF12
:105FC00099E700BF0080005008B50120FFF776FF79
:105FD000BDE80840034988428CBF0221012103200B
:105FE00000F002B880F0FA02032810B50C4627D062
:105FF00004D8012804D0022817D010BD0F28FCD1E6
:1060000024F0A2FA24F0A8FA124B013C196F21F4F3
:10601000405141EA04341C67FEF796FF0021FFF768
:106020004DFDBDE81040FFF7CFBF0A4B013CD3F850
:10603000901021F0F85141EA0464C3F89040DCE785
:10604000044B013C196F21F4806141EA84241C67F0
:10605000D3E700BF008000501FB50023019325281F
:1060600021D8DFE800F013202020202A2F454A4FB6
:1060700054595E7120203420204A202020202A20DC
:106080004520712F2F2F2F2020204F54314B1B6F75
:1060900003F00703013B032B05D8DFE803F00C02F4
:1060A000080A04230193019805B05DF804FB03235B
:1060B000F8E70623F6E70223F4E7002001A9FFF73B
:1060C000CDFDF0E7002001A9FFF79EFDEBE702936D
:1060D0004FF0E0231B695B0705D5FEF735FF0B2367
:1060E0000393039BDEE703A902A8FFF7E1FDF8E7AE
:1060F000002001A9FFF7DCFDD5E7002001A9FFF78B
:10610000FBFDD0E7002001A9FFF71AFECBE7002036
:1061100001A9FFF741FEC6E7002001A9FFF78CFEA9
:10612000C1E70C4BD3F8803003F00303022B03D0FC
:10613000032B05D00023B5E7FEF706FF0B23B1E7DD
:10614000FEF732FF0523ADE7002001A9FFF750FE5F
:10615000A9E700BF0080005038B50546FFF7DAFC1C
:10616000214B04465A68012A04D120494A609A69A1
:106170009207FCD10020FFF76FFF042803D124F021
:10618000E3F924F0E9F91A4A24F04073954221D04A
:10619000184A954221D0184AD16811F0060FFBD158
:1061A00090689360916803F4F81301F4F8118B423E
:1061B00016D12846FEF7A8FE0020FFF74DFF042861
:1061C00010D1FEF7C1FE0021FFF778FCBDE8384092
:1061D000FFF7FABE43F00073DDE743F08073DAE7C0
:1061E0009060E9E738BD00BF00C0015000E00150F9
:1061F00040420F0080841E000000015070B504462C
:106200000020FFF729FF03287CD045F60E0302216A
:10621000414AC2F88030414B9962012103F5805315
:106220009962936DD903FCD4D4E900131B0543EAAA
:106230000163E17B94F822500B43217B94F82360A7
:1062400043EA0143617B43EA0133A17B43EA8113C3
:1062500013619169D4E904031B0643EA806301F0EA
:1062600000410B43A17EE07E0B43217E43EA0143C4
:10627000617E43EA01239361136AE26923F00D030F
:10628000002A0CBF0021082143EA020343EA8003ED
:10629000214A43EA0103136294F820304FEA431382
:1062A00031D1906A94F8211020F0330043EA0113B1
:1062B000034343F001039362194B916D33EA0101EB
:1062C000FBD10221154B9962936D5B00FCD41069E0
:1062D000A36820F4700040EA035010614FF00042C0
:1062E0000E4B9A611DB9022203F580539A6216B9CA
:1062F00001220C4B9A6294F824301BB1064B0A4AD7
:10630000C3F8802070BD916A21F0330131430B4303
:1063100043EA45039362EEE700C0005000D000500E
:106320000300014000E00050F1A7FFFF014B93F98B
:10633000000070472D3C0020F0B5D0E901434FF438
:10634000D1560227164A417805785662154E4F29D4
:1063500077604FF0010728BF4F2106F58056776020
:106360001669F603FCD441EA052151611B01417B0A
:1063700043EA04230B43017B43EA41039360C37B5D
:10638000817B1B0143EA4113417C0B43017C43EABF
:1063900041035360837C13B16FF4D1535362F0BD5A
:1063A0000000025000100250014B1880704700BFDF
:1063B000D2140020014B1880704700BFD014002079
:1063C0000A4A10B51369044643F00403136103F04D
:1063D000EBFB24F0EEF830BF24F0ECF803F000FC07
:1063E0001CB9BDE81040FEF7AFBD10BD00ED00E0E8
:1063F000084A10B51369044643F00403136103F01F
:10640000D3FB30BF03F0ECFB1CB9BDE81040FEF736
:106410009BBD10BD00ED00E0034A0179D36E23F06F
:1064200030030B43D366704700400050F8B5044674
:106430000D461F4616464AB101238B403021194AAA
:1064400001FB0022FFB141F21001535004EB440361
:10645000072D4FF00F014FEA031317D8A80006FAD3
:1064600000F281401048184424F0A7F856B90121E1
:1064700030230C4801FA05F503FB040077B141F223
:106480001003C550F8BD42F21001DEE7A5F1080087
:10649000800006FA00F281400448E4E742F210036B
:1064A000EFE700BF00C0035004C003500CC003500E
:1064B0004FF40012064BC3F88020BFF34F8FBFF399
:1064C0006F8F0022FF21034B5A6599625A60704713
:1064D00000E100E000000450044A054B002918BF09
:1064E0001346012202FA00F0186070474020045061
:1064F0004010045030B5047845788178C278012086
:106500000F4B41EA0541240658609C609961FF21C8
:1065100099620021996319644FF0004159654FF069
:10652000FF314FF4001003F50053196505491301BD
:10653000DBB2C1F8800181F81533086030BD00BFBF
:106540000000045000E100E02DE9F04101250C4677
:10655000C3B2DFF888E0D1F800809D408F7ACB7A13
:1065600094F80DC0097BCEF850500EF5005E4EF841
:1065700020804FF0300E184E1B050EFB006043EAE2
:10658000074343EA415322F00302C0F860C0C365E9
:10659000026724F005F8736D2B437365237A13B1FA
:1065A000336C2B433364637A13B1B36B2B43B36304
:1065B0002279A37943EA0243084A93616179E37936
:1065C00043EA014306498B61034B55639D64BDE873
:1065D000F04123F0EBBF00BF000004500020045046
:1065E0000010045010B50124C0B2844023F0D8FF3D
:1065F000044B5A6D22EA04025A659C62BDE81040C1
:1066000023F0D4BF0000045010B50124C0B2844070
:1066100023F0C6FF074BDA6A224209D15B6B34EAEA
:1066200003030CBF0124002423F0C0FF204610BD4B
:106630000024F9E70000045041F67132034BDA639D
:10664000012203F50053DA60704700BF00000350D9
:1066500041F671320121044BDA6303F50052D16037
:106660000022DA63704700BF00000350014BD3F8EB
:106670009400704700400050CB784A7810B55B0119
:106680000C7843EA82030A79234343EA02130C227B
:10669000424302F1B0421363012C02BF8A78024BDD
:1066A00043F8202010BD00BFD080035008B54FF044
:1066B000B0435A6802B960B15B680BB123F095FF33
:1066C0004FF0B04130B10120074B586023F08DFFEF
:1066D000C86008BD23F089FF0223CB6023F085FF4B
:1066E0000122024B5A60F4E70010005800200058C5
:1066F0004FF0B0435B6870B50BB123F076FF01211A
:10670000104B4578596083780679002BC37814BF05
:1067100002240024002B14BF042200224379DB0052
:1067200043EA06132B43234313434FF0B0429360D5
:10673000054B59600378002B14BF0B460223D3602E
:1067400070BD00BF0020005800100058054B5B6969
:10675000C3F38512827003F03F021B0B427003707B
:10676000704700BF00C007500120034B9B680A33ED
:1067700003F01F03984070470080E00F0D4B9842D4
:1067800008D1A3F50033C3F88411C36D43F080032F
:10679000C3657047084B984204D1A3F51033C3F882
:1067A0009411F2E7054B984204BFA3F52033C3F8D8
:1067B000A411EAE70080055000C005500000065013
:1067C00070B5054616461C4619B90320FFF776FB3F
:1067D0000146402C1BD003D8DCB1202C1BD070BD4F
:1067E000602CFCD1042303FB06F2560806EB411390
:1067F000B3FBF2F3094A203B02EAC303AA6822F082
:106800006002AA60AA681443AC60EB61E7E7062364
:10681000E9E71023E7E70823E5E700BFF8FF7F007B
:10682000012200F5805310B55A6040F6AA6341F288
:1068300005024361002312498360C365C26000F50D
:1068400000520361C361C36491640E498365884249
:1068500006D00D4CA04203D004F58044A0420BD1D9
:106860008842036506D0084B984203D003F5804365
:10687000984201D1002343650123536010BD00BF3E
:10688000FFFF01000080055000C0055070B50D46A7
:10689000FFF7C6FF012300F580567360AB7C04460A
:1068A0001BB1836843F080438360EB7C1BB12046BF
:1068B000297DFFF763FF2A8A6B7B20461343EA8911
:1068C0001343E3602B7BD5E90112FFF779FF6B7D62
:1068D0001BB1A36843F48033A360AB7D1BB1A368F5
:1068E00043F40043A360EB7D2A7E1B07120502F4EC
:1068F000E00203F0E0431343A3656A7E931E012B7D
:10690000214B20D89C421AD003F580439C4218D0DA
:1069100003F580439C420CBF02234FF0FF3341F24A
:10692000AC5102205B0103F1A04303F570335850D2
:10693000032A23D10423F3652B78636170BD002300
:10694000EDE70123EBE79C4214D0104B9C4213D09F
:1069500003F580439C420CBF02234FF0FF3342F209
:10696000AC5102205B0103F1A04303F57033585092
:10697000012ADEE70023F2E70123F0E7042204F511
:106980000053DA65D8E700BF0080055000C005500D
:1069900038B50446054D28F0B9F90FCC0FC594E879
:1069A0000F0085E80F00002038BD00BF7C250020C7
:1069B00047F6FF739A42F0B566D0022966D8344D87
:1069C000CF0015F8313005EBC100012B847813D1CD
:1069D0000025C3781B1B9D4202D3E018C0B2F0BD56
:1069E000591B4668A3EB510136F911609642D4BF9A
:1069F0000D4601F1FF33EEE740680028EFD0B0F913
:106A00000030934204DBB0F902309342B8BF134622
:106A100082883D44FF2A19BFC8214FF0280CB0F9E5
:106A20000610B0F908C0A1EB03020CBF0126002636
:106A300092FBFCF26D78324412B2954201DD002ADD
:106A400001DA6A1E12B24FF47A7700EBC206F188BF
:106A5000B668013213FB016112B221EAE1715C31C7
:106A60009542B1FBF7F104DD00EBC206B6888E4219
:106A7000EBD200EBC20232F8040C884228BF084671
:106A8000A04238BF2046A9E7FF20A8E70020A6E7DC
:106A90007C2500200229F0B553D82B4800EBC10417
:106AA00010F83110636801290FD1E078A478904282
:106AB00094BFC4EB0001C4EB0201001BCAB28242C6
:106AC000C8BF002233F91200F0BD002B39D0A178E5
:106AD000914202D3B3F90200F6E7E178B3F900007E
:106AE0009142F1D999886478A1F1FF06013C714285
:106AF00003F10405E4B2714103F10C071FFA82FCB3
:106B0000CEB2B44216D805EBC1014FF47A756A4390
:106B1000B1F902404968521A04EBD47102EB6102E8
:106B200092FBF4F29042CFDBB3F902009042CBDC4F
:106B300010B2C9E737F831E04E1CE645E3D33146E1
:106B4000DEE70248C0E700BF7C2500200080FFFF91
:106B500008B50448FFF71CFFBDE80840012028F0F5
:106B6000F8B800BF7C5903007FB50222084B0949E1
:106B7000CDE901234FF00073CDE90313052301A9EB
:106B80004FF0FF30059328F021F907B05DF804FBC2
:106B9000006A1800000204002DE9F0418CB088461C
:106BA000DDE912761D460446002847D0002945D06D
:106BB000002F43D0002E41D013F00F033ED12048C8
:106BC0002049A360002A18BF0146E361C4E900130D
:106BD000404609A923F09EFE68BB2046099923F090
:106BE00020FD2946204623F01CFD6946404623F03F
:106BF00030FF00BB6946204623F0FFFC404603A956
:106C000023F032FFB8B9204603A923F0F6FC06971B
:106C10000127204645F0005506A90797089523F05F
:106C2000ECFC204609A909960A970B9523F0EFFC86
:106C3000204623F0F9FD0CB0BDE8F0812120FAE7F1
:106C400000010104000100042DE9F04F97B08946CE
:106C500090461F460546DDF880A0002800F0BD8064
:106C6000002900F0BA803AB1229B002B00F0B580D9
:106C7000239B002B00F0B180BAF1000F00F0AD8033
:106C8000219B002B00F0A98077B13C680026229B55
:106C900043440293464509D3002F00F0A080002012
:106CA0003C6017B0BDE8F08F3C46EFE75CB1229B3B
:106CB000219A9B5D125D01345340239A04F00F0426
:106CC00093550136E6E7A8EB060BBBF10F0F58D939
:106CD000444B4846C5E90034AC60EC6113A923F08D
:106CE00019FE0028DDD1284613992BF00F0B23F055
:106CF00098FC5946284623F094FC484604A923F002
:106D0000A8FE0028CDD1284604A923F076FC4846E9
:106D100007A923F0A9FE0028C3D1284607A923F01C
:106D20006CFC01232299304ACDF828A00B930C92D9
:106D30008A190D9228464BF000520AA90E9303922D
:106D40000F9223F05AFC28460DA923F056FC239BF2
:106D5000039A99190123109111931292224A2846FD
:106D600010A9CDF84CA01493159223F050FC28469E
:106D700013A923F04CFC284623F056FD5E4400285E
:106D80008FD1229B03EB060B239B1E44029B5B458A
:106D900001D146467EE7ACB9219B2246CDE900A34E
:106DA000494610232846FFF7F7FE00287FF479AF05
:106DB0000AF1100212F8013D0133DBB213700BB976
:106DC0009245F7D1219A1BF8013B125D01345340E3
:106DD00006F8013B04F00F04D8E7212061E73846AC
:106DE0005FE700BF03030004100000202DE9F04F0F
:106DF00097B00F46144699468346209EDDF888805A
:106E0000DDF890A0269D002800F09F80002900F06A
:106E10009C801DB1259B002B00F09780B9F1000FDD
:106E200000F09380B8F1000F03D0219B002B00F0FD
:106E30008C803CB1239B002B00F08780BAF1000FBF
:106E400000F08380C6F10F02D2B2032A05D80121D7
:106E5000D20001FA02F2A24277D9022D75D0102D8C
:106E600073D815F0010270D1F11F06296DD8384989
:106E70000AEB0400884268D236493846CBE9001252
:106E8000CBF80820CBF81C2013A923F043FD0028E1
:106E900058D15846139923F0C4FB584645EA064199
:106EA00023F0BFFB4146584623F0BBFB2146584622
:106EB00023F0B7FB384601A923F0CBFD002841D1D0
:106EC000584601A923F099FB384604A923F0CCFDCC
:106ED000002837D10127584604A923F08EFB239BB5
:106EE00048F000520793219B584644F000540DA9E6
:106EF00046F00056089709940A930B970C92CDF828
:106F000034900E970F9623F078FB58460AA923F089
:106F100074FB584607A923F070FB259B584610A91F
:106F200045F00055CDF840A0119712941393149793
:106F3000159523F06CFB584613A923F068FB5846BF
:106F400023F072FC17B0BDE8F08F2120FAE700BFF4
:106F500000800120000005042DE9F04F99B00F4694
:106F600014469B468046229EDDF89890289D002876
:106F700000F0B280002900F0AF80279B002B00F0CA
:106F8000AB80BBF1000F00F0A780249B1BB1239BBB
:106F9000002B00F0A1803CB1259B002B00F09C80D1
:106FA000B9F1000F00F09880C6F10F03DBB2032B9C
:106FB00006D80121DB0001FA03F3A34240F28C80E2
:106FC000022D00F089806B1E0F2B00F2858015F0DA
:106FD000010A40F08180F31F062B7DD83F4B09EB5F
:106FE0000401994278D23E4B3846C8E9003AC8F8C5
:106FF00008A0C8F81CA015A923F08CFC03460028A3
:1070000066D14046159923F00CFB404645EA0641FF
:1070100023F007FB4046249923F003FB214640461A
:1070200023F0FFFA384603A923F013FD0346002896
:107030004ED1404603A923F0E0FA384606A923F0D2
:1070400013FD0346002843D10127404606A923F03B
:10705000D4FA259B4046099344F000530A970193C4
:107060000B93239B46F000560C93249B0D9743F003
:1070700000510E910FA9CDF83CB01097119623F056
:10708000BCFA40460CA923F0B8FA404609A923F0FF
:10709000B4FA019B404612A9CDF848901397149377
:1070A00023F0B5FA279B404615A945F000551593E6
:1070B0001697179523F0A1FA404623F0B5FB034637
:1070C00030B101902246514648462AF0A7FB019B69
:1070D000184619B0BDE8F08F2123F9E700800120A0
:1070E000000006047FB50E461D460446F0B102B905
:1070F000E3B901230192029345F000530393002367
:107100000B4AA360C4E90023E361204601A923F0F0
:1071100074FA3146204623F084FA2046294623F0AB
:1071200080FA204623F080FB04B070BD2120FBE7ED
:107130000000094330B5048804F4E043B3F5005F70
:1071400034D1C4F30223042B30D181F0AA6383F439
:10715000807333F47E1309D081F0AA6383F4007343
:1071600033F47E130CBF0123002300E001230BB195
:10717000C1F30543164D21F47E11A94221D1B4F586
:10718000105F1ED14188B1F5807F03D021F040010E
:10719000802919D1191F0C2916D8DB0714D4073AF6
:1071A000062A8CBF6FF08600002030BD42F2040337
:1071B0009C4204D181F0052383F48013D0E700239F
:1071C000D5E76FF08500F0E76FF08600EDE700BFD0
:1071D000000140052DE9F04F2DED028B99B081465D
:1071E000DDE9287608EE102A1D468B46DDF8A880DA
:1071F000DDF8BCA041B138B1249B2BB1269B0BB963
:10720000279B0BB91FB94EB16FF0860486E02EB1F3
:10721000B8F1000FF8D02B9B002BF5D02C9B002B46
:10722000F2D0BAF1000FEFD02E9B002BECD02D9BAB
:10723000002BE9D0B9F8003003F4E042B2F5005F6A
:1072400072D1C3F30222042A6ED185F0AA6383F4BB
:10725000807333F47E1309D085F0AA6383F400733E
:1072600033F47E130CBF0123002300E001230BB194
:10727000C5F3054329464846259ACAF80030FFF76A
:1072800059FF0446002849D1202201460DEB020097
:107290002AF0C4FA2022214610A82AF0BFFA08A832
:1072A00023F0D5FA002858D118EE102A594648463E
:1072B00010AB23F047FC044600282FD12B9B9E42A5
:1072C0004ED8DAF800302E9A934249D8474508D272
:1072D000BB19984505D23946324640462AF084FA11
:1072E0004746214B25F47E159D4228D1DAF800301F
:1072F000324606932D9B0397CDE90483279B10A963
:107300000293269B08A80193259B0093249BFFF7DB
:107310006DFD21281BD0E8B92C9B1E60204619B0BA
:10732000BDEC028BBDE8F08F42F20402934204D11F
:1073300085F0052383F4801392E7002397E76FF02D
:10734000880400232C9A1360CAF80030E6E76FF037
:107350008604F6E76FF09204F3E76FF09204DDE73E
:107360006FF08904DAE700BF000140052DE9F04F16
:1073700099B08A46DDE926659346984681462A9F5C
:1073800028B96FF08604204619B0BDE8F08F0029B7
:10739000F7D0229B002BF4D0249B13B9259B002B04
:1073A000EFD10EB9002DECD117B92B9B002BE8D1F2
:1073B0002C9B002BE5D0289B002BE2D04146484671
:1073C000239AFFF7B7FE04460028DCD120220146AD
:1073D0000DEB02002AF022FA2022214610A82AF002
:1073E0001DFA08A823F033FA10B16FF09204CAE72F
:1073F0005A465146484610AB23F0A4FB04460028E9
:10740000C1D12B9B9D422AD8BE4208D273199F42FC
:1074100005D231462A4638462AF0E6F93E46144B54
:1074200028F47E1898451DD1299B2A460693289B4F
:107430000396CDE90473259B10A90293249B08A809
:107440000193239B0093229BFFF786FD212898D070
:107450002C280AD00028C8D12C9B1D6093E76FF020
:10746000890490E76FF088048DE76FF094048AE751
:1074700000014005084B984202D0084B984207D1C2
:107480000B88B3F5105F0CBF00206FF085007047CC
:107490006FF08500704700BF004440040013C00433
:1074A0002DE9F04F98460023A3B08246DDE92E7502
:1074B000DDE93069CDE90633CDE90833CDE90A339A
:1074C000CDE90C33DDF8C8B005920491002900F035
:1074D000E580002A00F0E28017B9002D40F0DE8040
:1074E0002C9B1BB92D9B002B40F0D8801EB9B9F105
:1074F000000F40F0D380BBF1000F00F0CF80514669
:107500004046FFF7B7FF044678B90146202212A88B
:107510002AF084F9202221461AA82AF07FF912A81D
:1075200023F095F928B16FF09204204623B0BDE80E
:10753000F08F5046DDE904121AAB23F003FB04463A
:107540000028F2D11A9823F0B9FA04460028ECD1A9
:1075500015B9CBF80000E8E7B7420BD27B199E4281
:1075600008D24D4500F29A8039462A4630462AF024
:107570003BF937464F4B98451BD003F54073984570
:1075800017D04D4B984540F08C804D4500F28680D9
:1075900015F00F0240F082802B46CDE900761AA943
:1075A00012A8FFF7F9FA0746002846D1CBF8005099
:1075B000BBE700234D45CDE90E33CDE910336DD83F
:1075C0003E4B98452D9B46D10D2B67D101238DF85D
:1075D00038302C9B0DF1390203F10C0153F8040BE8
:1075E0008B4242F8040BF9D11B78137001238DF8FC
:1075F000473015F00F0825F00F0A55D007EB0A03A6
:107600000DF1280C03F1100E624618685968083312
:1076100003C273459446F7D1BAF1000F2ED006ABE2
:1076200001930EABCDE902760093524600231AA9CE
:1076300012A8FFF709FB0746E8B14A460021304689
:107640002AF0ECF80023012FCBF800307FF46BAF69
:107650006FF08B0469E7102B20D12C9B0DF1380CB7
:1076600003F1100E624618685968083303C2734567
:107670009446F7D1BDE7B8F1000F97D00AAB02935B
:1076800006AB06EB0A0201930EAB0392009342464F
:1076900000231AA912A8FFF7D7FA84E76FF086042F
:1076A00043E76FF0850440E7BAF1000F3FF47EAF87
:1076B000B5E700BF0010C004004440040013C0043C
:1076C0002DE9F04F994600239FB08246DDE92865F9
:1076D000DDE92A78CDE90633CDE90833CDE90A336F
:1076E000CDE90C33DDF8B0B00592049129B96FF003
:1076F000860420461FB0BDE8F08F059B002BF6D016
:107700000EB9002DF3D117B9B8F1000FEFD1BBF1CD
:10771000000FECD051464846FFF7ACFE0446002867
:10772000E7D1014620220EA82AF078F8202221462F
:1077300016A82AF073F80EA823F089F8002844D17F
:10774000DDE90412504616AB23F0FCF9044600288C
:10775000CFD1169823F0B2F904460028C9D115B943
:10776000CBF80000C5E7BE420AD273199F4207D288
:107770004545BCD831462A4638462AF035F83E46BB
:10778000344B99454BD003F54073994520D0324B8B
:10779000994556D1454557D82B07A8D12B460122EC
:1077A000CDE9006716A90EA8FFF7F6F90646CBF853
:1077B000005000289DD04246002138462AF02EF87D
:1077C0000023012ECBF8003041D06FF0920490E7F7
:1077D0000D3D454538D801238DF8283033460DF14D
:1077E000290206F10C0153F8040B8B4242F8040BFA
:1077F000F9D11B780D36137000238DF83630012334
:107800008DF8373006AB01930AAB00932A4600236C
:10781000CDE9026716A90EA8FFF716FAC6E7103DD4
:10782000454511D833460DF1280C06F1100E62467D
:1078300018685968083303C273459446F7D1103667
:10784000E0E76FF0850454E76FF0890451E76FF0CB
:107850008B044EE70010C0040044400410B54FF400
:107860002F720021044629F0D9FF8023C4F88C3000
:10787000054B04F19C00C4F88430012384F888305F
:10788000BDE8104022F091BD685A030010B5D0F851
:10789000A0400A4674B923F06CFB044640B12D2881
:1078A00096BF074B074953F82010074823F0B0FC58
:1078B000204610BDD0F8A4101046A0470024F7E7DA
:1078C000205B03007B5A0300DB81030073B590F853
:1078D000805004461DB10025284602B070BD23F03B
:1078E00078F90028F7D1012384F8803094F88830A3
:1078F00033B1D4F884101A4884F8885023F088FCF7
:107900004FF0FF36D4F8B402421C22D0C4F8B4625F
:1079100010F0FF011BD02046019123F057F92046BB
:10792000019900F0A7FB0028ECD0204623F05FF976
:1079300094F888303BB1D4F88410094823F068FCEF
:10794000002384F88830002384F88030C4E70125C0
:10795000D8E723F042FC431CDAD10125F3E700BF4E
:10796000727E0300F8B50B780546302B0E4617469D
:1079700004D14B7803F0DF03582B12D02A49721E32
:1079800012F8014F002C38D10A222146304622F04D
:1079900057F9202D03460A4634D1631A58425841FC
:1079A00017E04A1C204912F8013F9BB9304629F0E4
:1079B00047FF1E4B02382B40032B15D16B1C48BFD1
:1079C0002B1D9B1083420BD1B07837288CBF002031
:1079D0000120F8BD5B5C13F04403E4D11846F8E7DE
:1079E000CCBF01200020F4E7002DB8BF0335B0EB79
:1079F000A50FD4BF01200020EBE7635C13F0040364
:107A0000BED1EBE727B1084302D0013B61F1000290
:107A1000012000FA05F5013D1D40002A08BF9D42E6
:107A200018BF0020D5E700BF5EC50300030000803B
:107A300070B503787B2B16D10546022100220B4E30
:107A400015F8014F7D2C05D1435C63B9D04300F09C
:107A5000010070BDA35D13F0440302D00132013177
:107A6000EEE7202CFBD00020F3E700BF5EC503004B
:107A700070B506460D4629F0E3FE0446304623F075
:107A8000C7FB044EAC4200D370BD304623F0C0FBB0
:107A90000134F7E79C7503002DE9F84F04460221F5
:107AA0005048FFF7E5FF1E212068FFF7E1FF6368FC
:107AB000586823F0ADFB4C4823F0AAFB67683B7B7A
:107AC000FD2B12D8D7F808804FF0FF36404629F03A
:107AD000B7FE0546DFF80C91DFF86CA1DFF844B182
:107AE0000C3717F8013BFF2B01D1BDE8F88F212B94
:107AF00017D8212B33D8DFE803F06D736F11181AF4
:107B00001C1E323232323232323220222426282ACD
:107B10002C2E32323232323232326930334C1DB393
:107B20001FE0FE2B5AD0324CF9E7324CF7E7324CCB
:107B3000F5E7324CF3E7324CF1E7324CEFE7324CE9
:107B4000EDE7324CEBE7324CE9E7324CE7E7324CF9
:107B5000E5E7324CE3E7324CE1E7324CDFE7244C17
:107B600005B10136202BBCD002214846FFF780FF2B
:107B70001E214846FFF77CFF504623F049FB59463B
:107B8000204629F053FE2849002818BF21462748DF
:107B900023F03EFB3B78202B02D12B2023F02CFB43
:107BA000234823F035FB4DB118F806301F2B05D0C4
:107BB00018F806001F2801D0AE4203DB0A4823F064
:107BC00027FB8EE723F018FB0136F1E7002D88D064
:107BD000184CC6E7184CA2E7184CA0E7184C9EE7D3
:107BE000184C9CE7C35303007F600300EE5B030067
:107BF000D85B03003D5C0300F45B0300355C0300CD
:107C0000315C0300285C03001E5C0300145C03006D
:107C1000295C03001F5C0300155C03000A5C030081
:107C2000035C0300FA5B0300EB5B0300727E03005E
:107C300045700300E05B0300ED5B0300F35B0300B2
:107C4000CE1B03003C5C0300808303002DE9F04F52
:107C50009DB00546884691460026049329F0F0FD24
:107C6000269F049B07901E6028463E600CAA0BA925
:107C700023F0EFFA0446002840F0C2800C9829F067
:107C8000DFFD2646049B01941860D5F89C300393D1
:107C9000039B1BB920461DB0BDE8F08F039B9B687A
:107CA0000293002B77D02E4416F8013B202B13D0E3
:107CB00000260C237343029AD15802EB030B0029D0
:107CC00064D00B9B019A069393425FDB9BF80830CC
:107CD00033B106F1010A3FE03B6801333B60E3E763
:107CE0003B68D5F894201CA8D21A049B05911A6011
:107CF000019B00EB830353F8403C1846099329F09D
:107D0000A7FD82460028E4D105990846089129F08C
:107D100097FDDBF80430024693F80CC00593BCF1E4
:107D2000FE0FD7F800B0DDE908131AD1069800F16C
:107D3000FF3E0198864514D0059A184612680BF14B
:107D4000010B029229F07CFD584438603B68EA5CE4
:107D500022B1019B013301935646AAE701333B60F0
:107D6000F4E7D5F894300991A3EB0B039342089202
:107D700021DC404629F064FD089A099910447B28CB
:107D80000DD9494640461F4A22F036FB079BEA18A8
:107D90002B4693422DD1039B1B68039378E70A4639
:107DA0004046494622F028FB49464046164A0134DF
:107DB00022F022FB8DE7BCF1FE0F8AD1069B019ACF
:107DC000013B934285D1059BD3F800A05AF80C2BB8
:107DD00022B9079B3B60049B1A60D7E7494640469F
:107DE00022F00AFB49464046074A22F005FB0134CF
:107DF000ECE7197811B94FF0200119700133C8E789
:107E0000344647E7435C03009C7503002DE9F047C7
:107E1000002486B01C60DDE90EA8064689468AF873
:107E200000401168154888F8004017461D468DF837
:107E30001740FDF7BBFA18B901242B6801332B60FA
:107E40000020D6F89C6036B914B1012388F80030C0
:107E500006B0BDE8F087B06868B14B460021CDE9B7
:107E600002A8CDE900750DF1170223F021F89DF865
:107E70001730002BE8D13668E5E700BF485C030007
:107E80002DE9F04700260446ADF5447D7C223146BD
:107E900005A80DF10808049629F0C0FC80222046B0
:107EA000CDF8008003AB04A9FFF7D0FE01283ED136
:107EB00004A829F0C5FC0399D8F80030471A0B44F0
:107EC000234427EAE777054604A801443A461846C2
:107ED00029F07DFCC655D4F89060039BD8F80010BB
:107EE000D4F890201944B14212DCD4F89410E81A66
:107EF0000244C4F89020014404AAC4F89410D41891
:107F000025182B1B002B0DDC0DF5447DBDE8F087FB
:107F1000A05C23F071F9D4F8903001360133C4F835
:107F20009030DAE714F8010B23F066F9E9E7EBDDAE
:107F300024AD80223146284629F070FC44AB4FF432
:107F400000721846314629F069FC0DF1100A03460B
:107F500052464FF0010912F8017B002F48D143F837
:107F6000296004A829F06CFC29463B461AF8016BED
:107F700044AF57F8042B824243D10133994501F8AD
:107F8000016BF3DAD4F89060039BB34242DC2346E2
:107F9000364A04A9364823F03BF9284629F050FC1C
:107FA000039ED8F8007035443744861B26EAE672F3
:107FB000E3191744E01904F1900188424FD904F104
:107FC00098018B424BD218466A1E99190B1A002B46
:107FD00039DD12F8013F00F8013BD4F8903001334D
:107FE000C4F89030D4F894300133C4F89430EDE7FD
:107FF000202F06F1010604BF43F8296009F10109A9
:10800000A9E70DF1100C6244D25CB242B1D000225B
:10801000EA54B7E7D4F890300136E05C23F0ECF88E
:10802000D4F890300133C4F89030ADE7D4F8902004
:10803000013B0132C4F89020D4F894200132C4F8F6
:108040009420002BF2DC00232E44E355731B002BFD
:108050007FF75AAF15F8010B23F0CEF8F6E7184674
:10806000294629F0B4FB3346EBE700BF685A03000A
:108070004D5C03002DE9F843D0E9245604460F4631
:10808000002294F89830012B06D10A2F06D1002047
:1080900084F89800BDE8F88300F2A0801B2F03D17C
:1080A000022384F898303BE0A7F10D02534253417C
:1080B000082F84F8983035D1002D30DDB5420FD12E
:1080C000384623F099F8202023F096F8384623F01C
:1080D00093F80023013D6355013EC4E924561FE097
:1080E000FBDA05F1FF38384623F086F804EB080385
:1080F000A6EB08026119184629F076FB002201461A
:10810000A2554E48013E23F083F83546454501DC33
:108110004546E2E7082023F06FF8013DF6E7DCD1A1
:108120000020B7E77F2F1CD1002EF9DDB542F7DA2A
:108130006319691C721B2144184629F055FB002263
:108140000146A2553E4823F063F80820013E23F083
:1081500053F8B542F9D1D4F89430013BC4F89430C7
:10816000DEE70D2F01D00A2F0AD10D2023F044F8AD
:108170000A2023F041F800230120C4E9243389E7D1
:10818000092F03D12046FFF77BFEC9E7D4F88C30D6
:10819000013BB342C4DDB54204EB050805F101091A
:1081A0000CDB384688F80070D4F89430C4F890900E
:1081B0000133C4F8943023F01FF8B1E74146721B35
:1081C00004EB090029F010FB404623F021F80820B9
:1081D000013E23F011F8B542F9DDE2E7022B06D1AA
:1081E0005B2F01D103235CE784F8982049E7032B38
:1081F00096D1413F84F89820032F91D8DFE807F00B
:1082000002070A150121204622F09EFF88E74FF061
:10821000FF31F8E7B54283DA605D22F0EDFFD4F874
:1082200090300133C4F890307AE7002D7FF778AFB3
:10823000013D0820C4F89050BDE700BF565C030024
:108240002A71030013B50024064A6846536F43F0B1
:108250000103536700948DF80440FEF7DDF82046D3
:1082600002B010BD0040005008B50248FDF774FF91
:10827000002008BD00B4C40430B58BB06C46174D67
:108280000FCD0FC40FCD0FC495E8030084E80300A1
:10829000134BD3F84C21120317D4D3F85041E4B256
:1082A0008DF81940FEF742F8204480F308008DF85D
:1082B00018000C48FCF764FE6846FDF79FFF32206B
:1082C000FEF778F800200BB030BD074B1C884FF646
:1082D000FF739C4208BF8124E2E700BF5C5C03009F
:1082E0000080E00F00F049020001E00F30B5094DB9
:1082F00087B001AC0FCD0FC42B6801A823604F23BA
:108300008DF80530FEF718F86420FEF74DF80020D0
:1083100007B030BD845C03006FF00402502110B53B
:108320000A480B4C12F0800FD3B21BBF03F00F03AF
:10833000043BA3181B1802F101020CBF83F80013C1
:1083400019763D2AEED1002010BD00BF00ED00E0FF
:1083500000E100E010B5044622F013F9024B1C6066
:1083600022F013F9002010BDA425002010B522F042
:1083700008F9034B1C6822F008F9204610BD00BF25
:10838000A425002013B513460C4618B90192FFF737
:10839000EDFF019B0146224604480AF09BF90028A4
:1083A000D4BF3720002002B010BD00BFABB3020025
:1083B00030B51446054687B0104623F02AF86369A5
:1083C000024683423CBFD4E903315B181B1A7BB1E0
:1083D0000F49284603910021CDE90131012304947E
:1083E0000093D4E9001322F064F8002007B030BDF8
:1083F0000122627694F82D20002AF6D084F83530D8
:108400001321E369204698472046636A9847ECE7C2
:10841000B18300002DE9F04788B00446884617462E
:10842000994622F0BDF88246002F7AD0237E03F0D1
:10843000FF02002B00F0A280204622F0EAFF6669CE
:10844000B04205D1637ED4E903521544AD1B01E06F
:10845000F9D9851BBD4228BF3D4622F0A1F894F80A
:108460002D300646002B6DD12A464046616929F021
:10847000AEF963692F462B44636121E0037803F072
:10848000FD0111295BD1216B814205D1A3F11101BD
:108490004B424B4184F83430013F6369216B013218
:1084A0008B4203F1010308BF236363619542606956
:1084B000E4D1D4E90323216B1344994200D1226310
:1084C0000025D4E9032361691344994208BF62611E
:1084D000207A6576FDF7A4F9204622F09AFF6369B9
:1084E000834232D1257694F82D30E568656103B179
:1084F00025632046636A9847214B2A46039300234D
:1085000002932369216801930123207A0093049444
:10851000636821F0CEFF207AFDF7A2F9304622F001
:1085200045F85046C9F8007022F040F8D9F80030FC
:10853000002B0CBF1B20002008B0BDE8F08708F816
:10854000013BAAE72F460022B0E70123207A2376D9
:108550000DF11E01FDF7ECF99DF81E30002BDAD06D
:108560000DF11F01207AFDF7BBF99DF81F100029BE
:10857000D1D12246207AFFF71BFFCCE71746D0E780
:10858000B1830000002808DB0123420900F01F002E
:1085900003FA00F0014B43F82200704700E100E0CD
:1085A000002809DB0122430900F01F0002FA00F055
:1085B000024A603342F82300704700BF00E100E048
:1085C00070B504460568FFF7D1FE844202D1002051
:1085D000FFF7C0FE95F93600FFF7E2FF95F9363058
:1085E000002B0DDB01215A0903F01F0301FA03F3ED
:1085F0001849203241F82230BFF34F8FBFF36F8FFD
:1086000095F93700FFF7CCFF95F93730002B0DDBDC
:1086100001215A0903F01F0301FA03F30D49203227
:1086200041F82230BFF34F8FBFF36F8F287AFDF7E9
:1086300037F9287AFDF79AF8FDF776F800232846EF
:10864000C4E90033C4E90433A360AB6ABDE87040F9
:10865000184700BF00E100E02DE9F0410C46154647
:10866000064686B04022002120461F4629F0D6F853
:1086700095E8030000232A692376EB6884E8030069
:10868000C4E904232A7DE36084F82C20AA7D2363B7
:10869000012384F8343084F835300C9B84F82D2085
:1086A00023620D9BE76163620E9BA3622B7A84F8C1
:1086B00036306B7A84F837302D4B346073602D4B35
:1086C000B3602D4B33612D4B73612D4BF360FDF780
:1086D00073F838B12B4B984204D01024204606B0D2
:1086E000BDE8F081002104F10800FCF7EDFF07462A
:1086F0000028F2D14FF00108234B3362234B84F85A
:108700003C80B361224BF3619DF8403084F839001E
:1087100084F83B309DF83C30204684F83A30697D3F
:1087200084F8388022F085FE95F90900FFF738FFBC
:1087300095F90900FFF726FF164B0494CDE9027363
:108740002369CDE900836368E2682168207A21F01B
:10875000B0FE04460028C0D195F90800FFF720FFBD
:1087600095F90800FFF70EFF3046FFF7F3FDB5E778
:1087700083B402001584000001B4020007B40200B3
:10878000C1850000038000F0D7B3020033B40200BB
:108790000DB40200B18300002DE9F0414FF0010853
:1087A0001C46584B86B00293574B0C9D0193574B78
:1087B000174600930A46CDE903882946544BFFF734
:1087C0004BFF0646002876D1236804222B642379C8
:1087D00085F84430A17985F84610607985F8450020
:1087E000237A85F84830E37985F84730A37A85F80D
:1087F0004A30637A85F84930237B85F84C30E37A38
:1088000085F84B304346FDF711FE43460222217A9C
:10881000E079FDF70BFE3E7039462068FEF736F82A
:108820001421A27B3B4B03EB4210C0F8AC1594F82B
:1088300006C061792E3203EB421341EA0C415960C4
:10884000227AE37943EA0243C0F8BC3585F84D60EB
:108850007B7E032B53D8DFE803F01F02324D012348
:10886000002785F84D3000230222A17A607AFDF7B7
:10887000DDFDA17A627AA37B42EA014241F2B45162
:108880005B0103F1A04303F570335A5004222368BF
:1088900003F58053DA65AFB963792A6C85F8453002
:1088A000A379052185F84630D36C206843F0040392
:1088B000D36421F0DDFE304606B0BDE8F08102232E
:1088C00085F84D3000230422217BE07AFDF7AEFDD0
:1088D00041F2AC520221A37B5B0103F1A04303F5FB
:1088E00070339950217BE27A42EA014241F2B85159
:1088F0005A50D1E70323012785F84D30B3E72326EB
:10890000D9E700BFADB50200A1B5020031B6020043
:1089100025B6020000C0035007B501F0D7FB6A4638
:1089200001F03AFC18B15221034800F0DBFADDE90E
:10893000000103B05DF804FB985C030008B501F08A
:1089400001FB18B17A21024800F0CCFA002008BDE2
:10895000985C030008B500F029FA0E4A536A43F404
:1089600070235362EFF308834FF0CD310A4A043B82
:1089700093420BD20222094B1A6700F04DFCFFF71D
:10898000DDFFBDE808400648FEF702B843F80419C9
:10899000EEE700BF00ED00E00000002000400050C6
:1089A0007C59030007B5042200200DEB020126F0DC
:1089B00089F9042804D040F26711044800F092FAC3
:1089C000019800F0D5FB03B05DF804FB985C030050
:1089D000082310B548400A0A0649C0B200F0010455
:1089E000400804B14840013B13F0FF03F6D150406A
:1089F00010BD00BF2083B8ED2DE9F0470025144CD1
:108A0000144FDFF85890DFF858802246494600207E
:108A100057F8043BEEB222F0D1FC2378A246013491
:108A2000002BFAD19AF801307BB10B4906F003060E
:108A3000032E08BF4146002022F0C0FC9AF8013006
:108A40000135002BE1D1BDE8F0874146F3E700BFD7
:108A5000646903000010002059960300FB5C0300CA
:108A60007E60030040F605226A4B2DE9F0411B8829
:108A700093420ED8B3F5206F0DD840F202529342C4
:108A800018D040F20172934220D040F2015293423A
:108A90000AD0BDE8F081A3F602235F4C032B1ED859
:108AA000DFE803F0376396B25C490020BDE8F0418F
:108AB00022F084BC00205A4922F080FC564B1A6CEC
:108AC0000020BDE8F041574922F078BC524A00200E
:108AD000D2E92423BDE8F041534922F06FBC0020C5
:108AE000524922F06BFC94F868309E0703D50020B1
:108AF0004F4922F063FC94F86B305D0603D50020EB
:108B00004C4922F05BFC94F96B30002BC1DA4A49E6
:108B1000CBE70020494922F051FC94F864309807D3
:108B200004D00020226C3F4922F048FC94F96430C4
:108B3000002B04DA0020226F414922F03FFC00257F
:108B40000126404FDFF80881626E06FA05F31342F2
:108B500007D057F8252013781BB14146002022F09A
:108B60002DFC0135082DEFD193E73749002022F085
:108B700025FC2C490020226C22F020FC94F8653062
:108B8000590703D50020314922F018FC94F96530CB
:108B9000002B04DA0020226F294922F00FFC08255F
:108BA000284E2B4F636EEB40DA0707D556F8252089
:108BB00013781BB13946002022F000FC0135102D3E
:108BC000F0D194F8640000287FF463AF21496DE789
:108BD0002149002022F0F2FB0020226C114922F0F2
:108BE000EDFB1025174E1A4F636EEB40DB0707D5E0
:108BF00056F8252013781BB13946002022F0DEFB01
:108C000001351A2DF0D144E70020144922F0D6FB9B
:108C1000226C55E7C437002000100020055D0300DA
:108C2000435D0300745D03008F5D0300AB5D0300D3
:108C3000C45D0300FF5D0300335E0300705E03004C
:108C4000965E0300D8670300BD5E0300D55E030097
:108C5000B45E03001C5F03004D5F0300675F030009
:108C60002DE9F04F434C85B0636BD4F83CA05A0714
:108C700044BF0026B046D4F84CB05FBFD4F838A04B
:108C8000D4F848B0D4F850803B4E54BFDFF8109170
:108C9000DFF8109113F0080F384B394A18BF1A4605
:108CA000B6EB08071FBF64237D0803FB0B55B5FB1C
:108CB000F7F50CBF3D46ADB24B4632490020CDE939
:108CC000016ACDF80080BFB222F078FB2B4600206D
:108CD000CDE900972C491FFA8BF222F06FFBB245C9
:108CE00001D8C24504D24A460020284922F066FB3A
:108CF000D4E9170318433AD00020254922F05EFB3F
:108D000000250126234FDFF8A080E26D06FA05F367
:108D1000134207D057F8252013781BB14146002095
:108D200022F04CFB0135202DEFD100250126194FF3
:108D3000DFF87480226E06FA05F3134209D007EBC0
:108D40008503D3F8802013781BB14146002022F020
:108D500035FB01351D2DEDD100200F4922F02EFBF2
:108D600000200D4905B0BDE8F04F22F027BB0B49AC
:108D7000F4E700BF00100020001000208E5F030009
:108D8000955F03009D5F0300CF5F03000960030050
:108D900028600300706803007F60030058600300D0
:108DA000895F0300288A0300717E030010B5FDF778
:108DB0005DFC044621F013FC0022012101FA02F3BC
:108DC000234018D0204B214933F81230062B18D0FD
:108DD00040F20722934211D14FF000524FF20F00A0
:108DE000548884420AD11088984207D14CF23C330F
:108DF0005380088010BD0132102ADFD1134A13803E
:108E000012E04FF000534FF20F025888904218D1F1
:108E10001B88B3F5406F28BF4FF4C0630B804CF242
:108E20003C324FF000535A80084B1A8840F20173CD
:108E30009A4201BF064B074AD2E90001C3E900018B
:108E4000D8E74FF4C063E9E7306A0300C437002075
:108E5000A825002090100020014B1888704700BF03
:108E6000C4370020014B1888000A7047C43700201F
:108E7000044B05481B881A0AB3F5406F38BF00EB56
:108E800082007047C4370020506A0300044B1888E2
:108E9000044B020A53F82230C0B203EB8000704743
:108EA000C43700204068030010B5044621F070FB71
:108EB0004FF000534FF20F021C805A80BFF35F8FB8
:108EC000BFF34F8F0549064BCA6802F4E0621343B3
:108ED000CB60BFF34F8F00BFFDE700BF00ED00E0A8
:108EE0000400FA0538B504460D4600F0C7F921F034
:108EF0004FFB2B4622460549002022F05FFA294607
:108F00002046BDE8384022F01EBC00BF6E60030062
:108F10006C4A2DE9F0416C4B55686C4C5D65516AAB
:108F200099656B49D1F80002D865D1F80412586BE5
:108F30001966916A10F0040F5966D16A4FF000006B
:108F40009966116BD966516B1967D26BD8645A67F1
:108F5000D3E90E2108BF11465E4A91421A655DD3DE
:108F600001F12000A04259D88869C5F308051864AA
:108F7000CE69062D5E6455D1574DA84252D3574D48
:108F8000A8424FD205884DF6426085424AD1186802
:108F9000C3F890005868C3F8940040F20170A242F0
:108FA000154604D22E680432B6F1CD3FF7D0002228
:108FB000C3E91E22C3E92022C3E92222641B434ED7
:108FC000DFF814C1DFF814E19C648E422DD8D3E998
:108FD0001EC7D3E92065D3E922414FF0000E013AC4
:108FE000D2B2FF2A3DD1BEF1000F05D0C3E91EC7A2
:108FF000C3E92065C3E92241B3F85430C3F3080341
:109000000C2B3CD8022B52D9DA1E092A4FD8DFE8A4
:1090100002F0553241444E4E4E4E4E4B0021C3E9B4
:1090200010112C494FF42060B9E756F8044D6445FF
:10903000CBD37445C9D2E507C7D50625284F57F8C5
:10904000048BA045C1D0013D15F0FF05F7D10AB949
:10905000052201E0013AD2B202F11E0543F8254093
:10906000B3E7E0464FF0010EBC4637462E46254694
:109070000C464146B3E740F60220BDE8F0813B2BA9
:1090800015D1184B9B6913F0020F40F2025318BF21
:109090001846F2E740F60320EFE740F60423B0F568
:1090A000206F08BF1846E8E740F60520E5E740F6E0
:1090B0000722013B4B2B98BF1046DEE740F601200C
:1090C000DBE700BF00ED00E00010002000100020F2
:1090D00000E100E000000020344100006C190300B2
:1090E000781000200080015A00F00CB800F00AB897
:1090F00000F008B800F006B800F004B800F002B8BC
:1091000000F000B872B61EF0080F09D01EF0040F70
:109110000DD0DFF850E0AEE8FF1F6FF002000CE06A
:10912000DFF840E0AEE8FF1F6FF00E0005E0DFF86B
:1091300034E0AEE8FF1F6FF006006946EFF30982E6
:109140008EE8070086460848084C854501D3A545AA
:1091500001D384F30888FFF7DBFE84F30888FFF768
:10916000A3FE00000010002040000020001000209E
:1091700082B2074B4AB1000C1A8008BF4FF6CE22CC
:10918000044B14BF18801A8070474BF6EF62F2E769
:10919000D4140020D61400200B4BB3F900201888FB
:1091A000002AB8BF80F0620042001A80074AB2F974
:1091B000001013880029BCBF83F4805383F00B0395
:1091C0005900118058407047D4140020D614002054
:1091D00008B501F0A9F960B10A4B0344072B0DD87B
:1091E000072B0BD8DFE803F004060A080A0A0A0C6A
:1091F000C22008BDC320FCE7C420FAE7C520F8E779
:10920000C120F6E7FF1FFF0F024B9A6903F50053D9
:109210009A6170470080015A1FB50D240021224633
:10922000684628F0FBFA01238DF800300323104A2A
:109230008DF809408DF80A30D2F800320D4C23F039
:10924000070343F0010369462046C2F8003221F0CB
:1092500043FA4FF400610223074A04F50050C2F8B4
:1092600084118361516004F58054E36104B010BD42
:10927000008000500080015A00E100E0014821F028
:109280001ABA00BF0080015AF0B519B3002820DADD
:109290002D23B0F1004F137000D04042012119E09E
:1092A000801B8642ECB205F10105F9D914B9BCF175
:1092B000000F05D04FF0010C4D1C30345454E9B26E
:1092C000013B13F0FF0309D130305054481CC0B2A9
:1092D000F0BD002109234FF0000C024F002557F884
:1092E000046BDEE7886A03002DE9F04F002495B097
:1092F0002146029480461646A1464422274603A8EA
:1093000002AC9B46254628F089FA0DF1480A3178CF
:1093100059B9641BE4B2224629460020C047002800
:1093200040F0AF803C44E0B2ACE025291AD0B9F15E
:10933000000F1BD1204600F8011B04465445C0F025
:10934000F580641BE4B2294622460020C04701464E
:10935000002840F09680274448222846FFB228F093
:109360005DFAE2E0B9F1000F00D101363278782AD7
:1093700006D8612A07D8252A5DD039D8002AC8D056
:109380004FF00009DAE7A2F162011629F8D801A32B
:1093900053F821F043940000D5940000319500006B
:1093A000819300008193000081930000819300006D
:1093B00081930000819300008193000031950000AB
:1093C000819300008193000081930000E7940000E6
:1093D0008193000081930000E794000081930000D6
:1093E00031950000819300008193000027940000D4
:1093F000392A16D82F2AC3D9717801F0DF015829EC
:1094000040F0C380322A06F1010940F0AB805BF8DE
:10941000041B2046042289B222F0B5F904464E46C8
:10942000AEE7582AACD15BF8041B02222046C9B231
:1094300022F0A9F955E0214601F8022B62700C4692
:109440009EE74FF00009DBF800300193DBF80430B1
:109450000093009B994502D10BF1080B90E7019B0B
:109460002046022213F8091022F08DF950450446D7
:1094700012D3441BE4B2294622460020C0470146CD
:1094800018B1002015B0BDE8F08F482228462744C7
:1094900028F0C4F92C46FFB2009B5A1E4A4581BFF2
:1094A0002046202200F8012B044654450FD3641BAC
:1094B000E4B2294622460020C04701460028E0D1F8
:1094C00048222846274428F0A9F92C46FFB209F182
:1094D0000109BEE75B4653F8042B20469B4600F883
:1094E000012B04464CE7621BD2B2294600205BF8F0
:1094F000049B0092C04704460028C2D1009A01464E
:10950000174428464822FFB228F088F9E2B219F839
:10951000020001340028F9D149460092C0470028D2
:10952000AFD18146009A1744FFB22C460136EEE6D1
:109530006C2ADBF800000BF104090ED17378752B4F
:1095400014BF0121002101D0642B00D10136224635
:10955000FFF79AFECB46044412E7752A0CBF0021A0
:109560000121F4E7342A10D15E4656F804BB0422E8
:109570004FEA1B41204622F006F91FFA8BF1042224
:1095800022F001F9B346044649E74FF00109D5E658
:1095900008B5054813460A460021FFF7A5FEB0FAB4
:1095A00080F0400908BD00BF7BB70200054B1A7868
:1095B0002AB95B78002B14BF0220032070470120DA
:1095C000704700BF363C00200329F8B598BF124B06
:1095D00005460E468CBF00245C5C032805D8DFE8F6
:1095E00000F002080B0E44F002040C4B1F684FB948
:1095F000F8BD44F00804F8E744F02004F5E744F02F
:109600008004F2E77B681A68144203D0314628468A
:109610005B6898473F68EAE7AC6A0300D4250020FE
:1096200038B5104D2B78ABB10F4C23781BB100F03F
:109630000FFB00232370002022F0C4F80B4C50B124
:1096400000F058FB0023012120782B70FFF7BCFFAE
:109650000123237038BD0122054B1A702278054B77
:109660001A70F7E7353C0020303C00202E3C0020EB
:10967000343C00203A3C002010B520F082FF064B1D
:1096800004461B781BB1BDE8104020F07EBFFFF7F9
:10969000C7FF2046F7E700BF2F3C0020002814BF7B
:1096A0000121FF21074A13780B44137008D0064BA1
:1096B0001B78012B04D9054B1B780BB9FFF7B0BF02
:1096C000704700BF363C00202E3C0020343C002078
:1096D00070B520F056FF124E054633789BB900F066
:1096E00031FC044620B1284620F04FFF204670BDD3
:1096F0000C4820F05AFE00F0D7FE0B4B1C6000F027
:10970000FFFC0A4B186000F0B3F922F05DF8084B3B
:109710000024186001232846337020F036FFE5E767
:10972000313C0020D4250020DC250020D825002055
:10973000D025002000292DE9F34114BF0121FF218C
:10974000254A00F1FF30135C0B4413543AD0234EEA
:109750003178012936D9FFF729FF0128044634D88A
:109760001F4F20F00EFF3B781BB31E4D2B781BB90B
:1097700001222A701C4A1370DFF8708098F80030BC
:1097800033B1019000F064FA0023019888F80030AA
:1097900020F0FBFE012022F015F820F0F2FE2B78DD
:1097A0002BB1019000F0A6FA002301982B70002342
:1097B0003B7020F0EAFE3078844203D02146FFF768
:1097C00003FF347002B0BDE8F0810329F3D1022811
:1097D000F1D121F0FDFFEEE7363C00202E3C0020C9
:1097E000353C00202F3C0020343C0020303C002041
:1097F00068B520F0C6FE094B06461B78012B04D83D
:1098000020F0C3FE0025284668BD054B1D6800F00A
:10981000AFFA0544304620F0B8FEF4E72E3C0020B5
:10982000DC25002038B54160044620F0AAFE05463C
:109830002146044820F0BCFD2846BDE8384020F011
:10984000A4BE00BFD4250020054B1B685843054B20
:1098500000F5742000F23F20B0FBF3F0704700BF2A
:10986000D825002040420F002DE9F04385B0EFF3EA
:10987000108672B600E000BF20F0ABFB002800F0BD
:109880008980674D674F2B7823B10020FFF706FFD3
:1098900000232B70FFF78AFE0446002800F0818029
:1098A000841EE4B2012C40F28380FFF77FFE012882
:1098B000804604D95C4B1B780BB900F067F95B4C10
:1098C000DFF888912078404507D099F8003013B927
:1098D0004146FFF779FE84F80080B8F1010F0FD9F7
:1098E000DFF8448198F8003053B9514B1B7823B905
:1098F00000F0A8F901224F4B1A70012388F80030BC
:10990000207800F01FFA99F8003013B14A4B1B7809
:10991000237000E000BF06B962B6EFF3108672B69E
:10992000464B1A7852B100221A70434B20781B78AC
:10993000984203D101212170FFF746FE384600F01E
:109940003BFB20F05BFB804600289CD1364F3B78E8
:109950009BB189F80000DFF8DC9099F800301BB16A
:1099600000F076F989F80080002021F02BFF002814
:109970004DD000F0BFF900233B702B7823B10020BD
:10998000FFF78CFE00232B7000212078FFF71CFED0
:109990000023237000E000BF06B962B605B0BDE841
:1099A000F0832B78002B80D0FFF778FE2C707CE7BB
:1099B000002003A900F044FB044600287FF475AFA3
:1099C0001F4B039A1B689A4205D80120FFF766FED9
:1099D00001232B7069E71B4BD3F8008000F0C8F916
:1099E000039B80449845F0D200F0DAF900280CBFC0
:1099F00000230423039943F00203CDE900433846D2
:109A00002346114AA1EB080121F0E3FE4DE70120B6
:109A100000F098F906B962B6EFF3108672B6A3E7C4
:109A2000393C0020B0250020353C00202E3C002091
:109A3000383C0020303C00203A3C0020333C0020E1
:109A4000D0250020DC25002079960000343C002041
:109A500010B520F096FD0022044B1C781A7020F0FF
:109A600094FD00F06FFC2043C0B210BD323C0020DA
:109A70003B4A3C49136F70B503F007030B60D2F803
:109A80000011394801F0030101603849384D8969F6
:109A9000032BC1F3400129705AD0D2F8203103F0D2
:109AA0000703981E43424341D2F88022314C02F012
:109AB000010213434FF4C8702370FFF7C5FE2E4B0D
:109AC0002E4A18600A2316682D49013B13F0FF0344
:109AD00041F8040BF9D100EBC003304418442B7853
