:020000040800F2
:1060000000100020AD6F0008BDC00008C1C000082E
:1060100023370308C5C00008CDC000082337030894
:1060200023370308233703082337030823370308DC
:10603000D1C000086CCB03082337030823370308BB
:10604000A174000823370308233703082337030804
:1060500023370308233703082337030823370308AC
:1060600023370308196E0008453403082337030853
:10607000233703082337030823370308233703088C
:10608000233703082337030823370308233703087C
:10609000233703085D7B00082337030823370308F1
:1060A000233703082337030823370308233703085C
:1060B0002337030849890108659301082F890308DC
:1060C0002B890308318B01083B89030833890308B6
:1060D0003D93010837890308A59301080994010835
:1060E0002337030823370308DDC1000823370308DB
:1060F000914603082337030823370308233703088F
:1061000023370308233703082337030823370308FB
:1061100023370308233703082337030823370308EB
:1061200023370308233703082337030823370308DB
:1061300023370308233703082337030823370308CB
:10614000233703082337030823370308B94D03080F
:10615000B579010823370308458603084B860308F1
:10616000233703082337030823370308233703089B
:10617000013800D0FCE770472DE9F04F2DED088B7A
:106180008DB09DED1E7B09EE903ADDE920430A9328
:10619000229B09EE100A8A460792069351EC170BD0
:1061A00053EC172BB0EE478AF0EE678A2CF0A6FD71
:1061B00080B14FF0FF3251EC180BCF4B2CF0C6FDE5
:1061C00040B94FF0FF326FF4801351EC180B2CF0F4
:1061D0009FFD98B1069B514622930A9B19EE100A27
:1061E000CDE9204319EE903A079A8DED1E8B0DB044
:1061F000BDEC088BBDE8F04F00F0A2B900220023EF
:1062000051EC180B2CF084FD002800F0448118EEAE
:10621000903A18EE108A03F10049069BC9F30A5020
:1062200013F48063A0F2FF3008BF06240B932CF018
:1062300093FAA1A3D3E900232CF0F8FAA0A3D3E9A1
:1062400000232CF03DF9C9F313050F4645F07F51AB
:1062500006460022A94B404641F440112CF02EF98D
:1062600099A3D3E900232CF0E1FA02460B4630460D
:1062700039462CF025F92CF073FD83462CF06CFA8E
:1062800093A3D3E9002306460F462CF0CFFA002251
:106290009B4B2CF015F92CF063FD8FA3D3E9002361
:1062A0000546394630462CF0C1FA064628460F46C8
:1062B0002CF052FA8AA3D3E900232CF0B7FA024655
:1062C0000B46304639462CF0F9F802460B46064696
:1062D0000F462CF0ABFA324641EC1A0B3B463046E7
:1062E00039462CF0EDF8002241EC1B0B854B51ECAC
:1062F0001A0B2CF0C5FB0022834B2CF0E1F8024670
:106300000B4651EC1A0B2CF0BBFB00227F4B2CF000
:10631000D7F802460B4651EC1A0B2CF0B1FB324673
:1063200041EC1A0B3B4600204FF080412CF0C6F8A0
:1063300002460B4651EC1A0B2CF0C2F802460B46F3
:1063400051EC1B0B2CF09CFB05F2FF350022704B2F
:106350002CF0B6F800222B052CF068FA42464B468A
:1063600006460F462CF0F2FC002840F09780CDE95D
:1063700008670BF16303C72B069B34BF0425052573
:10638000190521D558A3D3E90023404649462CF0EE
:10639000D3FC002800F0BE8055A3D3E9002340467B
:1063A00049462CF0B5FC002800F0B48000255C457F
:1063B000CCBFA4EB0B000024AB46069BC8BF00F18A
:1063C000FF3443F4806306930A9B9D4238BF5E1BF3
:1063D000069B28BF002613F0020702D0002D18BF2D
:1063E0000026BBF1000F07D0DDE9082340464946EF
:1063F0002CF046FB804689460022002351EC180B06
:106400002CF086FC10B109F100439946069B5146D9
:1064100023F40063CDE9036319EE100A19EE903AF4
:10642000CDE90089079A029400F08AF875B3069BBB
:10643000024613F0200F00F1010619EE903A14BF46
:1064400045206520514619EE104AA0470523002239
:1064500005930A238BEAEB70CDE90232A0EBEB70D7
:106460004FEADB73013D0193009019EE903A3246FA
:10647000514619EE100A049531F062F837B1079BC6
:10648000C51A079B58190A9BAB424CD80DB0BDECFE
:10649000088BBDE8F08F59EC188BBEE60022304621
:1064A0003946194B2CF0ECFA0BF1FF3BCDE9080112
:1064B0005FE700BFAFF30080FB799F501344D33FE9
:1064C000B3C8608B288AC63F61436F63A787D23FFA
:1064D00071A379094F930A401655B5BBB16B0240C1
:1064E000EF39FAFE422EE63F2D431CEBE2361A3F0F
:1064F0000000000080842E41FFFFEF7F0000F83F86
:106500000000E03F00002C40000024400000184044
:106510000000F03F002C3FF457AF0B9B002B3FF4E3
:1065200053AF013C50E7024619EE903A5146202005
:1065300019EE104AA0470135A3E700BF0000000094
:106540002DE9F04F2DED088B8FB0DDE920AB08EE83
:10655000100A0F4608EE902A09EE103ADDE92253A0
:106560005246049350465B465946249E2CF0C6FB87
:10657000A0B9049B2396229303232193B84B209325
:1065800018EE902A19EE103A394618EE100A0FB09C
:10659000BDEC088BBDE8F04F30F00ABF4FF0FF3282
:1065A0006FF48013504659462CF0B2FB30B1049B77
:1065B0002396229304232193AA4BE0E74FF0FF3266
:1065C00050465946A84B2CF0C1FB70B1A74A06F0C3
:1065D0000403002B08BF0322A54B1CBF1346042253
:1065E00004992396CDE92121C9E7504698A3D3E920
:1065F000002359462CF0AAFB38B997A3D3E900230E
:10660000504659462CF084FB98B1049B18EE902A12
:10661000CDE92253394619EE103A18EE100ACDE9A9
:1066200020AB24960FB0BDEC088BBDE8F04FFFF710
:10663000A3BD00220023504659462CF069FB0028D8
:1066400000F081805B465246002000212BF036FF8F
:10665000012382468B46059316F4806F08BF0625FA
:106660003021A94606ABA5F12002B9F1090FA5EB2F
:10667000090406D909F1FF394A4503F8011BF4D191
:106680002024594650462CF06BFB7A4B054603EB11
:10669000C90393ED007BB0EE47AAF0EE67AA2CF099
:1066A0005BF802460B46504659462BF007FF53EC69
:1066B0001A2B2CF0BBF802460B4643EC1B2B2CF09C
:1066C00077FB80462CF038F802460B4651EC1B0B4A
:1066D0002BF0F4FE02460B4643EC1B2B0022664BCC
:1066E0002CF034FB88B308F1010840462CF024F864
:1066F00002460B4651EC1A0B2CF014FB10B14FF074
:1067000000080135B9F1000F51D128462CF024F8CA
:1067100002460B46504659462BF0D0FE0022564BFF
:10672000804689462CF0F4FA30B1002240464946B2
:10673000514B2CF00BFB10B1E80700D5013506AB2F
:106740000A2223445AE0059086E7002251EC1B0BF5
:10675000494B2CF0DDFA0028D4D1B8F1000F02D05B
:1067600018F0010FCED008F10108CBE7B8FBF1F02B
:1067700001FB1082B8F1090F02F1300209F1FF3973
:1067800004F1010403F8012B28D83021A14406AA02
:10679000202C11D04C4504F1010321D104F1380221
:1067A0000DEB02042E2204F8202C1C46C7E70A2118
:1067B00006AB2344202CD9D106F00303012B06ABF2
:1067C00039D1049A002A36D0059A12B916F00C0F66
:1067D00002D0049A013A0492302214E08046E9E79C
:1067E000A1541C46D4E795FBF2F102FB115530355C
:1067F00003F8015B01340D460029DDD0202CF2D1D5
:10680000DAE71A5501340499A14214D9202CF8D1A1
:10681000049A0093CDE9014219EE103A18EE902A3D
:10682000394618EE100A039630F0C2FD0FB0BDECE9
:10683000088BBDE8F08F202CEAD0059AF2B12D210B
:1068400004F138026A4402F8201C0134E0E700BF7A
:106850000000000065CDCD410000000065CDCDC138
:1068600052E3030856E30308FFFFEF7F4DE30308FD
:1068700049E3030860E303080000E03F710704D523
:1068800004F138022B216A44DDE73207C0D504F158
:10689000380220216A44D6E770B58EB02C22002140
:1068A00003A836F0EAF864234FF00232012108937E
:1068B0008DF81010CDE905230B238DF83430504BA3
:1068C0001B88D80700F1958008464E4C18F02CFF25
:1068D0004D4B0A224D494E481A704FF42873ADF8BB
:1068E000123012F053FE206020B940F231214948A5
:1068F00005F0E4FA0521206831F0BDFB20B14FF42A
:106900000F71444805F0DAFA20680C2500F096FA79
:10691000414B2068196831F025FC19F0CBFD684324
:10692000099019F0C7FD68430DEB05010790206839
:106930000DF05AF820B140F25121364805F0BEFA68
:1069400000223649206831F094FC20B140F25321F6
:10695000304805F0B3FA324E40F20353314D96F908
:1069600000002B8005237F28AB7001D119F03CF883
:106970003378EB7019F09EFD00EB80008000A8805A
:1069800019F098FD0023C0004FF0FF31E8804FF070
:10699000FF30AB6018A3D3E9002319F083F8224934
:1069A000206832F05BF802A9206831F041FC20B188
:1069B00040F28621174805F081FA042220680DEB89
:1069C000020131F0BCFB042804D040F289211148B7
:1069D00005F074FA01A9012033F03CF805F0B2FB90
:1069E000012019F0F1FF2DF000F91AF025F818F048
:1069F00021FF0EB070BD00BF0A0020FF420300005F
:106A0000BA550020BC4E0020E158002055F701087F
:106A1000981200209328040834110020E858002020
:106A200073160020A84E0020F5F8010810B5054C9B
:106A3000237833B9044B13B1044800E000BF0123AD
:106A4000237010BD482A002000000000642B0408B9
:106A500008B5034B1BB10349034800E000BF08BD64
:106A6000000000004C2A0020642B0408A3F5803AA3
:106A7000704700BF174B002B08BF134B9D46FFF715
:106A8000F5FF00218B460F461348144A121A35F0C1
:106A9000F4FF0E4B002B00D098470D4B002B00D07D
:106AA00098470020002104000D000D48002802D066
:106AB0000C4800E000BF2CF047FB200029002CF020
:106AC00076FC2CF02DFB00BF000008000000000049
:106AD0000000000000100020A824002034590020ED
:106AE000000000000000000008B50E4B1B78012BD1
:106AF00006D0022B11D033B90B482CF08DFE02E0EA
:106B000009482CF08CFEFF21084808F031FE084BA4
:106B10001968BDE808401BF0CBBA03482CF082FE90
:106B2000F1E700BF4A56002038CB0308642A002052
:106B30009C10002008B5FF2306481A46064908F0B5
:106B4000E7FDFF21034808F013FEBDE808400021DF
:106B50001BF0AEBA642A0020E96A000838B5144672
:106B60000022054608782270052829D8DFE800F0C1
:106B700003060B0E151E144B1A7038BD0122124B62
:106B80001A700020F9E702220F4BF9E70E4A12783B
:106B90001A70237801332370F3E70C4A1946012059
:106BA000126832F048FF23780433F4E70120013102
:106BB00032F050FF08B9032D04D8044B1860E0E709
:106BC0007020DAE70220D8E74A5600209C10002007
:106BD00010B5274C01F018FD01F03AFF236F23F0A8
:106BE000070343F0030323672CF09FFE214B002093
:106BF0009B6ADB015EBF4FF480321F4B9A62D4F870
:106C0000203123F0070343F00203C4F82031D4F805
:106C1000283123F0070343F00203C4F82831D4F8E5
:106C2000403123F0030343F00203C4F84031D4F8A9
:106C3000603123F0030343F00203C4F86031D4F859
:106C4000403223F0030343F00203C4F84032D4F887
:106C5000003223F0070343F00203C4F80032D4F8F3
:106C6000083223F0070343F00203C4F8083210BDD2
:106C7000008000500040005A0060005A07B501A88B
:106C800002F008FA9DF80530012B14D19DF804306C
:106C90008BB94FF48012164B1649586E03F580538A
:106CA0005A664B6B23F0E05343F040634B63C302DF
:106CB0005CBF114B5A6603F07BFF2CF0EFFC03F036
:106CC000FFFE03F05FFF2DF0E1FC03F021FFFFF773
:106CD0007FFF03F00BFF2CF0D6FC00F0A5FB04F0C7
:106CE00093FD00F085FF03B05DF804EB06F0D4B926
:106CF000008000500040005A00A0005030B5214DE7
:106D000095B00DAC0FCD0FC495E80700032384E8C0
:106D100007008DF84D3029231B4A1C49CDE9022379
:106D200040F20153CDE904130021102209A8069175
:106D300035F0A3FE4FF48020154B07A9CDE90703DA
:106D400009238DF824300A238DF82530114B0DAA24
:106D50000A9320230B9301238DF831300E4B0F48FB
:106D6000009302AB04F0ACFA04469DF832304FF4C5
:106D7000E130002B0CBF032100212CF0C3FC204686
:106D800015B030BD1CCB030800C005500008000939
:106D900024C005504B560020842A0020E02A002001
:106DA000831E012B10B512D8012910D8114B0422D3
:106DB0001B6C08210020C3F3002302F001F80E4BE6
:106DC0001B681868A8B1BDE81040436A18478B1EBD
:106DD000012B0CD801280CD8BDE810400022054B2F
:106DE00008211B6C1046C3F3002301F0E9BF012901
:106DF000E5D910BD00C00350C410002008B50449F7
:106E0000044806F00FFABDE80840FFF777BF00BF5F
:106E1000AC100020D82A002001482DF011BE00BF80
:106E2000E02A0020014B1A6A18681047E02A002067
:106E3000014B1878704700BF6B56002008B50CF066
:106E400009FE0022014B1A7008BD00BF6B560020DE
:106E500001482CF0DEBC00BF38CB030807B5082082
:106E60002CF0BEFC02238DF80030054B68460193E0
:106E70002CF018FC082003B05DF804EB2CF0BCBC2F
:106E8000006A18102DE9F043434D89B001AC0FCDD5
:106E90000FC495E80700012584E8070001213A2086
:106EA00001F06EF93D4F0121292001F069F93C4BB9
:106EB000384601A903938DF8125002F0CDF92B4604
:106EC00029460422022001F07BFF02212A460846BF
:106ED000002301F075FF2B4604220321022001F05C
:106EE0006FFF04222B461146022001F069FF2D4C52
:106EF0002D4B1026C4F834374FF00213C4F8303746
:106F0000A3F58033C4F838371C2304F50059C4F8BE
:106F100020374FF4487007F093FB04F58058142095
:106F2000C9F8A06007F08CFB2320C8F8A06007F028
:106F300087FBB9213846C9F8A0602CF0B3FD0023C7
:106F400029461A460220C8F8A06001F039FF002344
:106F500002211A46084601F033FF2B460022032186
:106F6000022001F02DFF2B4600220421022001F017
:106F700027FF384602F0EEF800212920C4F8341724
:106F8000C4F83017C4F83817C4F8201701F0F8F81F
:106F900009B0BDE8F08300BF50CB030800C0055026
:106FA00000127A0000C003500200030008B500F090
:106FB0002DF8124B12498B4212D30020114B12496B
:106FC0008B4218D3FFF756FD186850F822405868D6
:106FD00040F82240013298688242F5D30C33EAE748
:106FE0000022F8E71C6844F8220001325C68A242E3
:106FF000F8D30833E4E70022F8E700BF6C2B04085D
:10700000782B0408782B0408782B04084FF480416F
:107010004FF0FF30114B124A10B59A60D3F8882018
:1070200042F47002C3F888200E4A91660E4901F5B9
:10703000005210660D4850660220C3F8D000BFF31E
:107040004F8FBFF36F8F01244FF440330848C0F8CF
:107050008041D36004600B6110BD00BF00ED00E013
:10706000006000080090005000800044F7FF3700E7
:1070700000E100E0014B1868704700BFCC10002011
:10708000084B1B6F03F00703022B04D0032B05D022
:10709000012B05D0FEE7044B18687047034BFBE754
:1070A0000348704700800050CC100020D010002012
:1070B000002D310108B5FFF7E3FF054B1B6FC3F34C
:1070C00003330133B0FBF3F0024B186008BD00BF7F
:1070D00000800050C81000200048704700B4C4046D
:1070E000014B1868704700BFD0100020054B186096
:1070F000054B1B6F03F00703032B01D1FFF7DABF2A
:10710000704700BFD010002000800050004870473A
:10711000002D31014FF0B4439868C0F304400C28AF
:1071200022D8DFE800F009212121212107171921A8
:107130001B1D1F000F4870479B6803F04073B3F19D
:10714000807F13D0B3F1007F12D00B4A002B08BF11
:10715000104670470948704709487047094870470A
:107160000948704709487047002070470848704731
:1071700008487047405DC60000093D000024F40047
:10718000C0EA210180BA8C010048E801005A62027D
:1071900080841E0040420F00014B1868704700BFFA
:1071A000D4100020BFF34F8F0549064BCA6802F484
:1071B000E0621343CB60BFF34F8F00BFFDE700BF1A
:1071C00000ED00E00400FA054FF000639B6A03F154
:1071D0007842B2F5C04F03D21968064A914203D0F3
:1071E0000023037083607047012202709A689B69D4
:1071F0004260F7E707B0CD5E73B54F4B04461A788F
:107200001AB102221A7002B070BDCDE90022002826
:10721000F9D001261E702CF0ACFB484D484B18608D
:107220000FF0E8FA2B785BB900F0E2FC40B9454872
:107230000823454A454900680BF08CFD00B92E70C3
:10724000434B5A6E62619B6E424AA3614FF4804386
:107250009366414B5968E16140499960196E21601C
:10726000596E6160D3F87011A160196CE160596CBE
:1072700021613B49086C1864496C596401215166CD
:107280001B6E9C0441D5374AD368D807FCD4364BD3
:107290001A68531C3ED04FF480139340334A136650
:1072A0004FF400730426314C266623662CF061FAF5
:1072B00001300DD02CF05DFA40F20113984207D056
:1072C0004FF4005323664FF480432366C4F8706183
:1072D0000823264C684623664FF4805323664FF0FC
:1072E000006323664FF4002301A963662CF022FAA1
:1072F000009B2366019B63662B78002B83D0124B87
:107300001A6822665B6863667DE7194AD368D90705
:10731000FCD4BCE7174B1B78002BC1D14FF4007293
:107320000C4B5A6603F5A6235B68002BB8D14FF4CB
:1073300080120E4B1A66B3E76E5600206C56002082
:107340002C2B0020E0100020242B002000710800CE
:1073500000800050009000500080004455CEAC00EA
:1073600000C0005400000440D810002000900044E9
:10737000000004506D56002070B5224D04462E7852
:10738000012E02D001232B7070BD0028FCD02CF000
:10739000F0F901300BD02CF0ECF940F201139842D7
:1073A00005D0194B194A5E66D368DE07FCD4226803
:1073B000174B1A6662685A66A268C3F87021E268C1
:1073C0001A6422695A64E269D00744BF00229A60B5
:1073D000104B1A68013207D10F4A127822B90F49AF
:1073E0004968C90748BF1A6062690D4B5A66A269AD
:1073F0009A660FF007FA0B4B18682CF0C0FA0023BE
:10740000C1E700BF6E56002000900040000004401D
:1074100000800044D81000206D56002000C00550A8
:10742000008000502C2B002070B54FF00064A36A40
:1074300003F17842B2F5C04F21D21A68124B9A423A
:107440001DD1124E337813F0FD0F1BD11048FFF7FA
:10745000D3FE01254FF480330E4A0F49C2F8805104
:10746000CB6015600D4A1361A36ADB699847044637
:107470000748FFF781FF04B93570204670BD4FF40F
:107480008174FAE70024F8E707B0CD5E6D5600205E
:10749000042B002000E100E000A000440090004424
:1074A00013B51F4B1B7803B9FEE700231D4CCDE934
:1074B00000336A4608231C4920680BF04BFCF0B9E6
:1074C0001A4AD2F84031D2F840211F2B4FF0010365
:1074D00010D9203A9340019A1343019308236A4636
:1074E000114920680BF0ECFB4FF00053104A1A6072
:1074F000FFF758FE9340009A13430093EEE70D4BBD
:107500009842F1D1094AD2F84031D2F840211F2BDC
:107510004FF0010302D9203A9340DEE79340ECE7B5
:107520006E560020E010002000710800008000442A
:107530000B020FF00BE000F005490A68131805482C
:1075400083428CBF4FF0FF320B601046704700BF84
:10755000DC1000200000042010B501213A2000F0CA
:107560000FFE012304220321002001F029FC00204A
:107570002CF01EFA0122314B3149C3F844244FF458
:107580000022A3F550335A66D1F8FC202C4C12F09F
:1075900080721EBFD1F8FC3023F08073C1F8FC303C
:1075A0002849D1F8803023F0030343F00203C1F8E7
:1075B00080302AB1D4F8FC3043F08073C4F8FC303A
:1075C0004FF4607000F0F8FDD4F8F0301E4A43F03C
:1075D0000103C4F8F030D4F8FC3000F5D52043F0B6
:1075E0008073C4F8FC30194B00F2FC401A60184B51
:1075F0000222B0FBF3F0174B01381861C3F8F020FA
:107600004FF48072C3F804234FF06043124A002005
:10761000C3F8B02F114AC3F8802ED3F8002E42F4DD
:107620008072C3F8002EFF2283F82020D3F8002EAA
:1076300022F48072C3F8002E10BD00BF00D00350AA
:1076400000ED00E000800050FF030040001000E06B
:10765000F8590D00000004E055CEACC5090001004A
:107660004FF06043D3F8802E30B5D20715D50124F2
:107670000B4D8440D5F8FC2042F08072C5F8FC2008
:10768000D3F8002E2243C3F8002E53F82020002AFE
:10769000F0D003F82010002030BD1120FCE700BF1F
:1076A00000ED00E010B501224378017884783020A5
:1076B0009A40054B00FB01331CB903F501531A60D6
:1076C00010BD03F58253FAE700C0035010B5012244
:1076D00043780178847830209A40054B00FB0133D1
:1076E0001CB903F582531A6010BD03F50153FAE784
:1076F00000C003500122437801789A403023594357
:10770000014B5A50704700BF40F003501021302306
:107710000246007813FB0013054950785B58C340BC
:1077200003F0010093780BB980F00100704700BFAF
:1077300030C003502DE9F04F9A46564B85B01B7868
:1077400006460F461546DDF83C909DF844B0DDF83E
:107750005080002B00F08D80072A00F28C800E9B59
:10776000002B00F08880B9F1000F00F08480129B9C
:10777000B3F5006F7FDC012802D1109B002B7AD07B
:10778000454B03EB05131B7B002B76D0434C10229B
:107790000021684635F071F904EB45141022002FE2
:1077A00059D13946204635F068F943F21003638019
:1077B000BBF1000F03D1E37843F00303E370374AD2
:1077C0000E9B02EB451CCCE90193129B6901013B26
:1077D000C3F30A009DF84C30012E03F003034FEA77
:1077E000836343EA001E53582D48CDF800A000EAF9
:1077F00003004EEA0003535041D113230CF1100E45
:10780000CCF80C309CE80F008EE80F006FF00301FD
:10781000DCF81C20109B61F39F02012FCCF81C2088
:10782000CCF8143003D1CCF81890CCF804300027F1
:10783000194A290102EB051342F80180159A2846DE
:107840005A60694622469F605E7301F057FB3846D6
:1078500005B0BDE8F08F0021204635F00EF94FF459
:1078600044736380BBF1000FA9D1E37843F0300388
:10787000A4E70C48ECE70C48EAE70C48E8E7B8F165
:10788000000FD4D19CF8023068F304138CF8023056
:10789000CDE700BF6F560020302B0020B02B00201A
:1078A0000F80FFF3028000F0018000F0078000F0FD
:1078B00038B5124B05461B78DBB1E0B12CF059F816
:1078C0000F4A00231146147B54B92B6001251A017D
:1078D00001EB03131D738C502CF051F8204638BD7A
:1078E0000133082B02F11002EDD12CF048F80548C5
:1078F000F5E70548F3E70548F1E700BF6F560020BC
:10790000302B0020048000F0028000F0018000F0A5
:1079100013B52CF02EF800230B4A147B7CB90133ED
:10792000082B02F11002F8D1019001F089FA074BFF
:1079300001981C702CF023F8204602B010BD2CF0EA
:107940001EF80348F9E700BF302B00206F560020D7
:10795000058000F00D4B10B51B78044693B1072845
:1079600012D82CF006F80A4B03EB04131A7B2AB149
:1079700000241C732CF003F8204610BD2BF0FFFFF1
:107980000448FAE70448F8E70448F6E76F56002091
:10799000302B0020068000F0028000F0018000F013
:1079A000154B13B51868002301908DF804302BF0A7
:1079B000E0FF124B1C7824B12BF0E1FF104802B01D
:1079C00010BD01221A702BF0DAFF0E4B01A81C73B8
:1079D0001C7783F82C4083F83C4083F84C4083F8B4
:1079E0005C4083F86C4083F87C4008238DF80730B6
:1079F00001F052FA2046E2E7BCCB03086F560020A4
:107A0000038000F0302B00200A4A08B512785AB1E2
:107A100007280BD8084A02EB00131B7B43B1002157
:107A200001F02CFA002008BD0448FCE70448FAE7FE
:107A30000448F8E76F560020302B0020028000F049
:107A4000018000F0078000F00A4A08B512785AB1A8
:107A500007280BD8084A02EB00131B7B43B1012116
:107A600001F00CFA002008BD0448FCE70448FAE7DE
:107A70000448F8E76F560020302B0020028000F009
:107A8000018000F0078000F00A4A08B5127852B170
:107A900007280AD8084A02EB00131B7B3BB101F010
:107AA0007BFA002008BD0548FCE70548FAE70548D1
:107AB000F8E700BF6F560020302B0020028000F056
:107AC000018000F0078000F00D4B1B7893B1072870
:107AD00012D889B10B4B03EB00131B7B73B10A4B1C
:107AE0001A6D012303FA00F010401ABF00200B703A
:107AF000087070470548704705487047054870474B
:107B00006F560020302B002000000450028000F04F
:107B1000018000F0078000F00B4A10B512780C4687
:107B200062B107280CD859B1084A02EB00131B7B3D
:107B300043B101F043FA2070002010BD0448FCE777
:107B40000448FAE70448F8E76F560020302B00207D
:107B5000028000F0018000F0078000F0204B2DE94A
:107B6000F0471F6D5A6D1F4C174010D54FF0004164
:107B70001D4A1165D868C0F304200301E35804EBE3
:107B800000125BB3BDE8F047002152681847012698
:107B90000025DFF85480DFF85490374217D023686F
:107BA000C8F850609BB1A168284601316268A160A5
:107BB0009847637B012B0AD148B909EB45131A7B1F
:107BC00060F341021A731A7F60F341021A7701359C
:107BD000082D4FEA460604F11004DED1BDE8F08717
:107BE00000000450302B002000200450B02B002057
:107BF000024B1968024B18680AF08CBFE410002091
:107C0000E010002037B5920004460D46019234F092
:107C100077FF431C0BD060B929462046019A34F007
:107C2000F5FE0028044808BF002003B030BD03481B
:107C3000FBE70348F9E700BF10E000F021E000F0A7
:107C400024E000F010B5044634F052FF431C10D07D
:107C500088B901F045FA234620F0030020449842F9
:107C600001D1002010BD53F8042B0132F7D0034896
:107C7000F8E70348F6E70348F4E700BF0EE000F03A
:107C800021E000F024E000F008B52BF063FE014B8A
:107C9000186008BDF0320020014B18682BF05EBE62
:107CA000F0320020044BD3F88420D206FBD4D3F862
:107CB0008400C0F3811070470040005038B5104B6D
:107CC0000546D3F880300C4603F00303022B0BD09B
:107CD000032B0DD0012B0FD1FFF7D2F90E2305B1E5
:107CE000286004B1236038BDFFF714FA0723F6E7D4
:107CF000FFF7C0F90623F2E700231846EFE700BFBD
:107D00000080005038B5184B0546D3F820010C46CA
:107D100000F00700062805D8DFE800F0230B0F1756
:107D2000131B1F000023184605B1286004B123600F
:107D300038BDFFF79FF90523F6E7FFF7D1F90323D5
:107D4000F2E7FFF7E7F90723EEE7FFF7DFF9022392
:107D5000EAE7FFF78FF90623E6E7FFF7C1F9042307
:107D6000E2E70123E0E700BF0080005038B5174B81
:107D70000546D3F828310C4603F00703013B052BD9
:107D800020D8DFE803F003131B0F0B17FFF772F97E
:107D9000052305B1286004B1236038BDFFF76AF9F7
:107DA0000623F6E7FFF7B6F90723F2E7FFF798F99E
:107DB0000323EEE7FFF794F90423EAE7FFF7A6F9B8
:107DC0000223E6E700231846E3E700BF00800050E7
:107DD00073B50D460021114B0191D3F88041064641
:107DE00004F00304022C13D0032C0CD0012C13D16B
:107DF00001A8FFF787FF10240EB1019B336005B186
:107E00002C6002B070BDFFF785F907240190F3E7FD
:107E1000FFF77CF90190EFE70C46EDE7008000509A
:107E2000002337B50193164B0546D3F820320C4694
:107E300003F00703042B04D8DFE803F0200B11162E
:107E40001B0000230DB1019A2A6004B1236003B026
:107E500030BD002101A8FFF789FF1223F2E7FFF7E9
:107E600059F907230190EDE72BF05EFC0A230190FE
:107E7000E8E7FFF791F909230190E3E70123E1E740
:107E80000080005038B5104B0546D3F840310C4601
:107E900003F00303022B0BD0032B0DD0012B0FD1CA
:107EA0002BF042FC0A2305B1286004B1236038BDE1
:107EB000FFF772F90923F6E72BF039FC0C23F2E700
:107EC00001230020EFE700BF00800050002337B5FA
:107ED0000193164B0546D3F860320C4603F00703B6
:107EE000013B032B1FD8DFE803F0020E1914002119
:107EF00001A8FFF707FF10230DB1019A2A6004B112
:107F0000236003B030BD002101A8FFF7BBFF1123A0
:107F1000F2E7FFF7FFF807230190EDE7FFF7F6F828
:107F200002230190E8E70023E6E700BF008000504D
:107F3000002337B50193164B0546D3F894320C460F
:107F400003F00703013B032B1FD8DFE803F0020E09
:107F50001914002101A8FFF7D5FE10230DB1019AD5
:107F60002A6004B1236003B030BD002101A8FFF7EF
:107F700089FF1123F2E7FFF7CDF807230190EDE722
:107F8000FFF7C4F802230190E8E70023E6E700BF0B
:107F90000080005038B5144B0546D3F800020C465B
:107FA00000F00700042804D8DFE800F01B0A0E12D6
:107FB00016000023184605B1286004B1236038BDBF
:107FC0002BF0B2FB0A23F6E7FFF7E6F80923F2E706
:107FD0002BF0ADFB0C23EEE7FFF76CF80F23800AC4
:107FE000E9E70123E7E700BF0080005038B5144BF4
:107FF0000546D3F808020C4600F00700042804D810
:10800000DFE800F01B0A0E1216000023184605B127
:10801000286004B1236038BD2BF086FB0A23F6E705
:10802000FFF7BAF80923F2E72BF081FB0C23EEE708
:10803000FFF740F80F23800AE9E70123E7E700BFD5
:108040000080005038B5104B0546D3F840320C463E
:1080500003F00303022B0BD0032B0DD0012B0FD108
:108060002BF062FB0A2305B1286004B1236038BD00
:10807000FFF792F80923F6E72BF059FB0C23F2E700
:1080800001230020EFE700BF0080005038B5104BFF
:108090000546D3F860310C4603F00303022B0BD0E6
:1080A000032B0DD0012B0FD12BF03EFB0A2305B182
:1080B000286004B1236038BDFFF76EF80923F6E7A6
:1080C0002BF035FB0C23F2E701230020EFE700BF84
:1080D00000800050B0F5207F1FD009D8B0F5007F98
:1080E00015D003D868B1B0F5C07F0AD000200CE0ED
:1080F000B0F5607FFAD10B4BD3F88000C0F30110CC
:1081000003E0084B186FC0F3033001307047054B94
:10811000D3F89000C0F30460F7E7024B186FC0F388
:108120008020F2E70080005002464FF48030104B70
:1081300010B598660020FFF7CDFF504341F671322D
:108140000C4BDC69DA635A6804F4803422F4401280
:1081500059B9094988428CBF4FF480100020104360
:1081600058600CB10022DA6310BD0449F2E700BF89
:108170000090005000000350005A6202002D3101AF
:10818000430905D0012B0DD0022B094B18BF00234A
:1081900000F01F0041B103F58053012202FA00F004
:1081A00018607047034BF3E703F50053F5E700BF92
:1081B00068800050648000501FB50021802804466C
:1081C000CDE9001100F0A58035D85E2846D85E289C
:1081D00044D8DFE800F0A2434343434343434343CF
:1081E000434343434343434343434343434343435F
:1081F000434343434343A2AAA2AAB9B9B9B9B9AA0E
:10820000C34DD9714DAAAAAA4343434343434343B1
:10821000AAAAAA79E3AA43434343434343434343BC
:10822000434343B9A2A2A2DE4D4DE8885EBE43435C
:1082300043434399A200B0F5B06F00F08F802DD872
:10824000B0F5207F71D00CD8B0F5C07F65D0B0F507
:10825000007F65D0B0F5807F00F08580009804B085
:1082600010BDB0F5607F6AD00DD8B0F5407FF5D174
:10827000FEF720FF02464FF42070FFF72BFFB2FB02
:10828000F0F0400847E0B0F5806F5DD0B0F5A06F2A
:10829000E4D100216846FFF7C3FDDFE7B0F5106FBA
:1082A00077D016D8B0F5E06F78D00AD8B0F5C06FA7
:1082B0006AD0B0F5D06FD1D100216846FFF76AFED1
:1082C000CCE7B0F5F06FC9D100216846FFF7DEFEBC
:1082D000C4E7B0F5406F3CD013D8B0F5206F62D042
:1082E000B0F5286FBAD10021314B0391D3F8703229
:1082F00003F00303012B02D103A8FFF7C3FD039B87
:108300003BE0B0F5486FA9D100216846FFF710FEA9
:10831000A4E7FEF7B5FE0090A0E7FEF7CBFEFAE774
:10832000FEF7AEFE0246204604E0FEF7C3FE02461C
:108330004FF42070FFF7CEFEB2FBF0F0EBE701A8A0
:10834000FFF7BCFC019AEEE700216846FFF7DAFC74
:1083500084E700216846FFF709FD7FE700216846B2
:10836000FFF736FD7AE74FF0E02302911B695B07C8
:1083700005D5FEF79FFE0290029B00936EE703A9CE
:1083800002A8FFF77FFDF7E700216846FFF77AFDB7
:1083900064E700216846FFF729FE5FE70021684691
:1083A000FFF750FE5AE700216846FFF78FFD55E7BB
:1083B0000080005008B58020FFF7FEFE034B984276
:1083C0009EBF4FF48032024B1A6708BD005A62020A
:1083D00000A000501FB50023B0F5807F019300F08E
:1083E000C38064D85D2855D84C2807D82D2847D895
:1083F00023282BD8019805B05DF804FB4D381028D0
:10840000F8D801A353F820F05F850008F583000831
:10841000F5830008F583000811850008F58300083E
:10842000F5830008E58500082F850008D58400083D
:10843000DB850008F5830008F5830008F583000854
:10844000F5830008F5830008EF8500082438092823
:10845000D0D801A353F820F05F8500085F8500089D
:108460005F8500085F8500085F850008F5830008C8
:1084700055850008F5830008F184000895850008FB
:108480003D2800F082803E28B4D1002001A9FFF7EA
:10849000D9FDAFE78028ADD15A4B1B6F03F007031E
:1084A000013B032BA6D8DFE803F05350878FB0F5CC
:1084B000F06F6AD021D8B0F5B06F4BD00FD8B0F5BF
:1084C000607F00F0858095D3B0F5806F47D0B0F520
:1084D000A06F8FD1002001A9FFF7A2FC8AE7B0F5B9
:1084E000D06F57D0B0F5E06FCFD0B0F5C06F81D16D
:1084F000002001A9FFF7C6FC7CE7B0F5206F71D022
:108500000BD8B0F5086F4AD0B0F5106F7FF472AF9A
:10851000002001A9FFF76AFD6CE7B0F5406F5CD061
:10852000B0F5486F63D0B0F5286F7FF463AF0021DA
:10853000344B0391D3F8703203F00303012B5BD06B
:10854000022B14BF0B46152300E00523019351E7CE
:108550000223FBE7002001A9FFF73AFC4AE70020CD
:1085600001A9FFF7CFFB45E702934FF0E0231B691A
:108570005B0705D5FEF79EFD0D230393039BE5E7FF
:1085800003A902A8FFF77EFCF8E7002001A9FFF786
:108590007DFD2FE7002001A9FFF7FCFC2AE7194B1E
:1085A000D3F8003103F00303022B07D0032B09D0CB
:1085B000012B0BD1FEF794FD0323C7E7FEF7ECFD7B
:1085C0000923C3E72BF0AEF80823BFE70123BDE77B
:1085D000184601A9FFF772FB0CE7002001A9FFF77D
:1085E000C5FB07E7002001A9FFF770FC02E70020A8
:1085F00001A9FFF79DFCFDE603A8FFF743FC11234B
:10860000A4E700BF008000504FF48012034B5A666D
:108610004FF48032024B9A62704700BF00900050C6
:108620000050005A38B504468020FFF7D3FE0328D7
:1086300000F08A804FF48012544B4FF0A0615A66CC
:1086400045F60E03524AC2F88030524B99624FF4FD
:10865000803103F580539962936DD903FCD4916DF9
:1086600011F08041FBD1D4E900031B0543EA00630C
:10867000E07B0343207B43EA0043607B43EA003313
:10868000A07B43EA801313619069D4E904531B066D
:1086900043EA856300F000400343A07EE57E034388
:1086A000207E43EA0043607E43EA00239361E06951
:1086B000136A00280CBF0022082223F00F0343EAAC
:1086C000000343EA850343EA0203314A324D136251
:1086D0003BD194F82430916A94F82000DB000D40DF
:1086E00043EA401394F821102B4343EA011343F467
:1086F00080339362294B916D33EA0101FBD14FF036
:108700008071244881621369A56823F4700343EAE9
:10871000055313614FF00043836194F822300BB985
:108720001F4B996294F823303BB94FF480321C4BB5
:108730009A62174A936D5B00FCD494F825301BB104
:10874000134B184AC3F8802038BD022808D11161A4
:10875000154891614FF408524FF47F412BF0C1F856
:108760000B4994F822308A6A94F820001B061540C1
:1087700043EA401394F824202B4343EAC20394F8BD
:10878000232043EA02438B62D7E700BF00900050EA
:108790000040005A0050005AC7FFFEFE03000100CF
:1087A0000060005AF1A7FFFF3440005A37B5194C5A
:1087B000A26AA36D13F4803F18BF4FF48031164BAB
:1087C00018BF99624FF080719962144BA56993F9B3
:1087D000003025F47F050344000280B225F47F4574
:1087E00083F30803284340EA0340A0610C48019248
:1087F0002BF077F8A36D019A13F4803F07D04FF464
:108800008031074803B0BDE830402BF06AB803B0B0
:1088100030BD00BF0040005A0050005A37160020FB
:108820002840005A37B5114C1148A26AA36D13F4C1
:10883000803F18BF4FF480310E4B18BF99624FF044
:1088400080719962A56901922BF04BF8A36D019A92
:1088500013F4803FC5F3072504D04FF4803104485A
:108860002BF03FF8284603B030BD00BF0040005A4F
:108870002840005A0050005A014B93F900007047FD
:10888000371600204FF4803311481249826A8B62F8
:10889000836D03F00303032BFAD14FF080738B62D7
:1088A0000B4B0D49986D31EA0000FBD101200949BD
:1088B0000865996D8907FCD4054B996D8807FCD52F
:1088C000996D8907FCD5054905482BF00AB800BF0A
:1088D0000040005A0050005A03000100000001014E
:1088E0002840005AF0B5D0E901434FF400061A4A77
:1088F0004178057856664FF4D156022702F5B83212
:108900005662164E4F2977604FF0010728BF4F215E
:1089100006F5805677601669F603FCD441EA052116
:1089200051611B01417B43EA04230B43017B43EA72
:1089300041039360C37B817B1B0143EA4113417C6C
:108940000B43017C43EA41035360837C13B16FF412
:10895000D1535362F0BD00BF009000500010025090
:10896000014B1880704700BFF2150020014B1880A2
:10897000704700BFF0150020B0F5207F10B50C4601
:1089800057D008D8B0F5007F48D003D830B3B0F541
:10899000C07F23D010BDB0F5607FFBD129492A48A4
:1089A000D1F8FC2012F080721EBFD1F8FC3023F009
:1089B0008073C1F8FC30D0F88030611E23F03004A1
:1089C00044EA0114C0F88040002AE3D01D4AD2F8DE
:1089D000FC3043F08073C2F8FC30DBE72AF092FFF2
:1089E0002AF09EFF4FF48031184B174A1967136F16
:1089F000611E23F4704444EA01341467FEF75AFB05
:108A00000446FFF74FF9C0F1020120462AF082FF29
:108A100000F02EF8BDE81040FFF7CCBC0A4A01393F
:108A2000D2F8903023F0F85444EA0164C2F8904040
:108A3000B0E7054B013C196F21F4806141EA8424C1
:108A40001C67A7E700ED00E0008000500090005098
:108A500008B50121022000F067F82AF053FF2AF040
:108A60005FFF4FF48032014B1A6708BD0090005041
:108A700008B54FF4C070FFF79FFBBDE808400449FC
:108A800088428CBF022101214FF42070FFF774BF90
:108A900080F0FA02024A536B0342FCD1704700BFD8
:108AA00000400950044A4178536F23F4407343EA6D
:108AB00001235367704700BF004000500A4A10B5B9
:108AC0001369044643F00403136104F0D7FD2AF050
:108AD00059FF30BF2AF057FF04F00AFE1CB9BDE869
:108AE0001040FEF7E7BA10BD00ED00E0084A10B5EF
:108AF0001369044643F00403136104F0BFFD30BF63
:108B000004F0F6FD1CB9BDE81040FEF7D3BA10BD65
:108B100000ED00E0034A0179D36E23F030030B43EC
:108B2000D366704700400050F8B504461C4BD3F89C
:108B30008420D106FBD4D3F88430C3F381139C4244
:108B40002CD0FEF79DFA012C064602D121462AF0D0
:108B5000E1FE2AF0FFFE4FF00072124B07465A6604
:108B600020462AF013FF4FF480630D4D621E9340A0
:108B70002B676B6E9A0103D4D5F884309B060AD517
:108B800038462AF0EBFE022C08D13046BDE8F8400A
:108B900000212AF0BFBED5F88430EAE7F8BD00BF57
:108BA000004000500060005007B518B90191FEF771
:108BB00067FA0199064B1B7843B1064B984205D8DA
:108BC000012003B05DF804EBFFF7AEBF0220F8E729
:108BD00070560020005A62020278034B01210020E7
:108BE0001A70FFF7E1BF00BF705600204FF000423F
:108BF00038B5244B244C5A664AF6CD33656C014691
:108C000005F00105236430BB0120FFF743FF6368D3
:108C1000DB0708D4002415B11B4B1C4A1A642FF043
:108C20008CFA204638BD1A4B58600846194B226B07
:108C3000D20705D4984201D10724ECE70130F6E7CA
:108C40009842E7D1F8E70132236B13F0080305D00F
:108C50008A42F8D1F0E700220E49F5E78A42EBD0CC
:108C600020210B4A91620121A2F5805251600649F0
:108C7000084A886A800603D49342DDD00133F8E7BE
:108C80009342DEE700900050004009503254FFFF4D
:108C90000060095040420F004FF0004238B5164BBB
:108CA00001465A664AF6CD33144C154A656C236466
:108CB00043780B205B0043F00103D363FFF7EAFE28
:108CC00063688A7823F4F87343EA02136360CA780E
:108CD0004B7943EA0223A3600A798B7943EA0223A2
:108CE00023610878FFF782FFEB0744BF054B23643D
:108CF0002FF023FA012038BD0090005000400950A9
:108D0000004000503254FFFF4FF00042124B70B54C
:108D10005D6E03F580535A664AF6CD3304460F491B
:108D200080204E6C0B64FFF7B5FE0B6A23F00F0337
:108D30000F2C94BF234343F00F030B62F30744BF90
:108D4000074B0B64002DA2BF4FF00042054B5A6643
:108D50002FF0F3F970BD00BF0080005000400950B3
:108D60003254FFFF00A000504FF00042104B70B58E
:108D70005D6E03F580535A664AF6CD3304460D49BD
:108D800080204E6C0B64FFF785FE0B6A23F4F853CA
:108D900043EA04230B62F30744BF074B0B64002D27
:108DA000A2BF4FF00042054B5A662FF0C6F970BDC6
:108DB00000800050004009503254FFFF00A00050D6
:108DC0002DE9F04105460F461E4690464AB1012363
:108DD0003022194C8B4002FB00443EB304F5825410
:108DE00023600F21072F05EB450388BFA7F1080477
:108DF0004FEA0313114895BFBC00A40004330C33A1
:108E000008FA04F2A14018442AF0C1FDB8F1000F9D
:108E10000AD101213020084A01FA07F700FB052298
:108E20003EB102F582521760BDE8F08104F50154AD
:108E3000D6E702F50152F6E700C0035030C00350F8
:108E40004FF400120B4B10B5C3F88020BFF34F8FC7
:108E5000BFF36F8F0024FF22074B21465C65202063
:108E60009A625C60FFF78CF92146BDE81040212032
:108E7000FFF786B900E100E000000450044A054B0A
:108E8000002918BF1346012202FA00F0186070474B
:108E9000402004504010045010B501210446202009
:108EA000FFF76EF901212120FFF76AF90122114B2A
:108EB0005A60227812069A606178A27842EA0142EA
:108EC0009A61FF229A6200229A631A644FF000426C
:108ED0005A654FF0FF324FF4001103F500531A6545
:108EE000054AC2F88011E3781B01DBB282F8153322
:108EF000116010BD0000045000E100E02DE9F041D8
:108F00000125C3B2D1F8008091F80AC00F7B91F817
:108F10000DE09D400C46CB7A1C491D4E0D6581002D
:108F200001F1A04101F58821C1F80480302101FB45
:108F300000601B0543EA0C4343EA475322F0030257
:108F4000C0F860E0C36502672AF013FD736D2B4320
:108F50007365237A13B1336C2B433364637A13B193
:108F6000B36B2B43B3632279A37943EA0243074AE5
:108F700093616179E37943EA014306498B61044BCC
:108F800055639D64BDE8F0412AF0F9BC002004500F
:108F9000000004500010045010B50124C0B28440F9
:108FA0002AF0E7FC044B5A6D22EA04025A659C62DF
:108FB000BDE810402AF0E3BC0000045010B50124C5
:108FC000C0B284402AF0D5FC074BDA6A224209D1AC
:108FD0005B6B34EA03030CBF012400242AF0CFFCAE
:108FE000204610BD0024F9E7000004504FF4803201
:108FF000054B9A6641F6713203F51C33DA630122A0
:1090000003F50053DA6070470090005041F671326A
:109010000121064BDA6303F50052D1600022DA63C6
:109020004FF48032A3F518339A667047000003505E
:10903000013831289ABF024B185C0020704700BFEE
:10904000E4CB030810B5C2F30623044602F007027E
:1090500041B942EA03220B4B42F44022063443F862
:10906000242010BD184611462AF0A3FC01461846DC
:10907000FFF7DEFF034B41EA0020163443F82400DB
:10908000EFE700BF00800350014BD3F89400704716
:10909000004000504FF48032064B5A6603F5E62339
:1090A0009B69C3F38512827003F03F021B0B427071
:1090B000037070470090005040F6B732064B5B6873
:1090C0009BB293429FBF4FF47A72B3FBF2F3034A11
:1090D000D05C88BF002070470080E00F16CC0308EA
:1090E0000120034B9B680A3303F01F03984070472D
:1090F0000080E00F70B5054616461C4621B94FF4B6
:109100002070FFF759F80146402C1BD003D8DCB182
:10911000202C1BD070BD602CFCD1042303FB06F275
:10912000560806EB4113B3FBF2F3094A203B02EA6F
:10913000C303AA6822F06002AA60AA681443AC6064
:10914000EB61E7E70623E9E71023E7E70823E5E714
:10915000F8FF7F00012100F5805310B5596040F6FB
:10916000AA6341F2050243610023094C8360C36591
:10917000C26000F500520361C361C3649464054C8E
:109180008365A04204BF03654365516010BD00BF05
:10919000FFFF010000C0055070B50D46FFF7DAFF74
:1091A000012300F580567360AB7C04461BB18368D5
:1091B00043F080438360EB7C5BB1244B9C4202BF55
:1091C0002A7DA3F51033C3F8C821E36D43F0800373
:1091D000E3652A8A6B7B20461343EA891343E360E5
:1091E0002B7BD5E90112FFF785FF6B7D1BB1A368CF
:1091F00043F48033A360AB7D1BB1A36843F4004309
:10920000A360EB7D2A7E1B07120502F4E00203F047
:10921000E0431343A3656B7E9A1E012A4FF00202BE
:1092200009D80B49032BC1F8202709D10423F36582
:109230002B78636170BD0749012BC1F82027F4E743
:10924000042204F50053DA65F2E700BF00C00550C0
:1092500000D0035000E0035038B50D46FFF77AFF09
:109260000122A97B00F580535A602A8A836800296D
:1092700014BF4FF48061002142F0010213432A7DA4
:109280000B43002A14BF4FF0005200228360836812
:10929000044613438360AB7C5BB1194B984202BF19
:1092A000EA7CA3F51033C3F8C821C36D43F08003F3
:1092B000C3652B7B2046D5E9011243F48053E3605C
:1092C0002AF0D1FB6B7B0BB1102363616B7D1BB16B
:1092D000A36843F48033A360AB7D1BB1A36843F460
:1092E0000043A360EB7D2A7E1B07120503F0E043D9
:1092F00002F4E0021343A3652B78636138BD00BF1D
:1093000000C00550054B9A689107FCD45A68920733
:10931000F9D4DA69002AF6D1704700BF00800A50FC
:1093200008B5FFF7EFFF0122024B03F580514A60B9
:109330001A6108BD00800A50074B5A68012A0AD1F9
:109340005A68D20702D5DA69002AF9D102221A61D5
:109350000122024B5A60704700800A5000A00A5058
:1093600010B5064CFFF7CEFF6368012B03D1FFF762
:10937000E3FFFFF7C7FF0378E36010BD00800A50EA
:10938000E8B94A680B7812B1127843EAC2034A7806
:10939000002A14BF0222002213438A6812B11278F5
:1093A00043EA82138A78002A14BF0422002213435E
:1093B000CA6812B1127843EA4223014A93647047A3
:1093C00000800A5008B9014B5964704700900A5058
:1093D00008B9014B5964704700A00A5008B9014B05
:1093E0001964704700A00A5010B9024B186C7047FE
:1093F0000020704700800A5048B911B1012903D0FC
:109400007047044BD86C7047024B186D70470020B2
:10941000704700BF00800A5040B911B1012903D044
:109420007047034BDA647047014B1A65704700BF01
:1094300000800A5010B9024B586D704700207047E9
:1094400000800A5038B50446054D2EF09CFE0FCC26
:109450000FC594E8030085E80300002038BD00BF75
:10946000A433002047F6FF739A42F0B566D0012975
:1094700066D8344DCF0015F8313005EBC100012B13
:10948000847813D10025C3781B1B9D4202D3E018BA
:10949000C0B2F0BD591B4668A3EB510136F911600B
:1094A0009642D4BF0D4601F1FF33EEE74068002835
:1094B000EFD0B0F90030934204DBB0F902309342B0
:1094C000B8BF134682883D44FF2A19BFC8214FF018
:1094D000280CB0F90610B0F908C0A1EB03020CBFCC
:1094E0000126002692FBFCF26D78324412B29542BE
:1094F00001DD002A01DA6A1E12B24FF47A7700EB1E
:10950000C206F188B668013213FB016112B221EA8A
:10951000E1715C319542B1FBF7F104DD00EBC2066D
:10952000B6888E42EBD200EBC20232F8040C8842BD
:1095300028BF0846A04238BF2046A9E7FF20A8E779
:109540000020A6E7A43300200129F0B553D82B480A
:1095500000EBC10410F83110636801290FD1E078E5
:10956000A478904294BFC4EB0001C4EB0201001B3D
:10957000CAB28242C8BF002233F91200F0BD002BEC
:1095800039D0A178914202D3B3F90200F6E7E1782D
:10959000B3F900009142F1D999886478A1F1FF06EE
:1095A000013C714203F10405E4B2714103F10C077F
:1095B0001FFA82FCCEB2B44216D805EBC1014FF4BB
:1095C0007A756A43B1F902404968521A04EBD471C2
:1095D00002EB610292FBF4F29042CFDBB3F902009E
:1095E0009042CBDC10B2C9E737F831E04E1CE645BB
:1095F000E3D33146DEE70248C0E700BFA4330020D2
:109600000080FFFF0148FFF71DBF00BF1CCC03080F
:109610007FB50222084B0949CDE901234FF0407381
:10962000CDE90313052301A94FF0FF3005932EF078
:109630000CFE07B05DF804FB006A1800000304008C
:1096400008B5B0B14FF480620B4B9A662AF0EDF981
:109650004FF098435A6CD202FCD54FF48062586D9B
:10966000064B10F470209A6604D0BDE808402AF03A
:10967000E7BA212008BD00BF0090005000A00050B4
:109680002DE9F0418CB08846DDE912761D4604468E
:10969000002847D0002945D0002F43D0002E41D0CC
:1096A00013F00F033ED120482049A360002A18BFC1
:1096B0000146E361C4E90013404609A92AF0B4FB5E
:1096C00068BB204609992AF0A7F9294620462AF0C6
:1096D000A3F96946404600F0E5FA00BB694620461A
:1096E0002AF086F9404603A92AF06CFCB8B9204656
:1096F00003A92AF07DF906970127204645F0005579
:1097000006A9079708952AF073F9204609A9099632
:109710000A970B952AF076F92046FFF791FF0CB0D7
:10972000BDE8F0812120FAE70001010400010004F6
:109730002DE9F04F97B0894690461F460546DDF863
:1097400080A0002800F0BD80002900F0BA803AB166
:10975000229B002B00F0B580239B002B00F0B180F2
:10976000BAF1000F00F0AD80219B002B00F0A98022
:1097700077B13C680026229B43440293464509D3B7
:10978000002F00F0A08000203C6017B0BDE8F08FF3
:109790003C46EFE75CB1229B219A9B5D125D013450
:1097A0005340239A04F00F0493550136E6E7A8EBE3
:1097B000060BBBF10F0F58D9444B4846C5E900349E
:1097C000AC60EC6113A92AF02FFB0028DDD12846FC
:1097D00013992BF00F0B2AF01FF9594628462AF04F
:1097E0001BF9484604A900F05DFA0028CDD12846AF
:1097F00004A92AF0FDF8484607A92AF0E3FB00284F
:10980000C3D1284607A92AF0F3F801232299304A48
:10981000CDF828A00B930C928A190D9228464BF094
:1098200000520AA90E9303920F922AF0E1F82846FB
:109830000DA92AF0DDF8239B039A991901231091B1
:1098400011931292224A284610A9CDF84CA01493E5
:1098500015922AF0D7F8284613A92AF0D3F82846FB
:10986000FFF7EEFE5E4400288FD1229B03EB060B30
:10987000239B1E44029B5B4501D146467EE7ACB963
:10988000219B2246CDE900A3494610232846FFF735
:10989000F7FE00287FF479AF0AF1100212F8013DBB
:1098A0000133DBB213700BB99245F7D1219A1BF843
:1098B000013B125D0134534006F8013B04F00F04F4
:1098C000D8E7212061E738465FE700BF03030004C3
:1098D000100000202DE9F04F97B00F46144699462E
:1098E0008346209EDDF88880DDF890A0269D002824
:1098F00000F09F80002900F09C801DB1259B002B6B
:1099000000F09780B9F1000F00F09380B8F1000FDC
:1099100003D0219B002B00F08C803CB1239B002BBB
:1099200000F08780BAF1000F00F08380C6F10F02CB
:10993000D2B2032A05D80121D20001FA02F2A242D2
:1099400077D9022D75D0102D73D815F0010270D182
:10995000F11F06296DD838490AEB0400884268D8FF
:1099600036493846CBE90012CBF80820CBF81C204A
:1099700013A92AF059FA002858D1584613992AF009
:109980004BF8584645EA06412AF046F84146584603
:109990002AF042F8214658462AF03EF8384601A9F6
:1099A00000F080F9002841D1584601A92AF020F89A
:1099B000384604A92AF006FB002837D1012758466B
:1099C00004A92AF015F8239B48F000520793219B25
:1099D000584644F000540DA946F0005608970994E3
:1099E0000A930B970C92CDF834900E970F9629F0AE
:1099F000FFFF58460AA929F0FBFF584607A929F09E
:109A0000F7FF259B584610A945F00055CDF840A01A
:109A10001197129413931497159529F0F3FF584654
:109A200013A929F0EFFF5846FFF70AFE17B0BDE86B
:109A3000F08F2120FAE700BFFFFF0320000005049C
:109A40002DE9F04F99B00F4614469B468046229E62
:109A5000DDF89890289D002800F0B280002900F0E1
:109A6000AF80279B002B00F0AB80BBF1000F00F014
:109A7000A780249B1BB1239B002B00F0A1803CB14D
:109A8000259B002B00F09C80B9F1000F00F098801E
:109A9000C6F10F03DBB2032B06D80121DB0001FA6C
:109AA00003F3A34240F28C80022D00F089806B1EEC
:109AB0000F2B00F2858015F0010A40F08180F31F22
:109AC000062B7DD83F4B09EB0401994278D83E4BD9
:109AD0003846C8E9003AC8F808A0C8F81CA015A97B
:109AE0002AF0A2F90346002866D14046159929F0CC
:109AF00093FF404645EA064129F08EFF40462499EF
:109B000029F08AFF2146404629F086FF384603A9FE
:109B100000F0C8F8034600284ED1404603A929F0BA
:109B200067FF384606A92AF04DFA0346002843D1BC
:109B30000127404606A929F05BFF259B4046099373
:109B400044F000530A9701930B93239B46F0005671
:109B50000C93249B0D9743F000510E910FA9CDF863
:109B60003CB01097119629F043FF40460CA929F00C
:109B70003FFF404609A929F03BFF019B404612A93F
:109B8000CDF848901397149329F03CFF279B40464B
:109B900015A945F0005515931697179529F028FF3C
:109BA0004046FFF74DFD034630B101902246514635
:109BB000484632F062FF019B184619B0BDE8F08FAD
:109BC0002123F9E7FFFF0320000006042DE9FF47EA
:109BD00000230E4617460446009300285BD00AB1C6
:109BE000002958D037F0030807F0030A25D04FF0BA
:109BF00000094FF0E063C4E90039012301962046D3
:109C0000029301A948F00053C4F80890C4F81C90CE
:109C1000039329F0F7FE4146204629F0FDFE204639
:109C2000FFF70EFD054640B142464946304632F048
:109C300024FF284604B0BDE8F0874FF00009BAF1D0
:109C4000000F2AD04FF0E063C4E900390123CDF8BA
:109C500004D00293124B204601A9C4F80890C4F81E
:109C60001C90039329F0CEFE0421204629F0D4FE57
:109C70002046FFF7E5FC054608B13A46D5E703461E
:109C800000994644DA00013321FA02F29A4506F8B7
:109C9000012BF7D1CDE72125CBE75546C9E700BF1A
:109CA00004000020A0B199B101234B60C368013BBF
:109CB000012B0AD88069074B18B1086000208B601F
:109CC0007047054A0A608B6070474FF00053F5E714
:109CD000212070470800002098CC0308012300F0E1
:109CE0001F02A0F506200949A0F5506040099340E5
:109CF00051F820201A4341F82020054951F820202E
:109D000022EA030341F82030704700BFBC33002033
:109D1000DC3300200122A0F506230E49A3F5506391
:109D20005B0900F01F0002FA00F051F823201043F5
:109D300041F8230000231946074A52F8040B013367
:109D4000082B0144F9D119B92022024832F095BEFE
:109D5000704700BFDC330020BC3300202DE9F04FFA
:109D6000A9B002921D46DDE9326704460822CDE91A
:109D70000301414021FA02F34B40980702F1080227
:109D800018BF9B00202A1C44F4D1784BE4B21B7806
:109D900004F5062404F55064002B40D1FDF728FF9C
:109DA000014620B16FF0910029B0BDE8F08F40224C
:109DB000059008A832F061FE4022059918A832F0FB
:109DC0005CFEDFF8C091DFF8C0A14B4603F10F0B3A
:109DD000102208A9DAF80000CDF800B005932DF0A4
:109DE0009AFF00220146059B09F110090DF1200898
:109DF000914247D1CDF800B01022DAF8000018A93E
:109E00002DF092FF4FF0000B03460DF160085B450B
:109E100044D1574B9945D8D10122544B1A704FF475
:109E200080784FF00009DFF860A1A4F506235149BE
:109E3000A3F55062520951F8221004F01F0C21FAC8
:109E40000CF1C9073FD44C4951F8220020FA0CF01C
:109E500010F001002BD0B9F1000F08BFA146A3F606
:109E6000FF44E4B204F50624B8F1010804F5506497
:109E7000DBD1029BEBB1B9F1000F1AD0349BC3F8D0
:109E800000906DE058F8040BCDE906230591FFF72B
:109E900025FF069A079B05990132A9E758F8040B9C
:109EA00005930BF1010BFFF735FF059BAFE7029B15
:109EB00013B96FF08B0077E7349BB9F1000F4ED0E8
:109EC000C3F8009070E70EB1002333600FB1002398
:109ED0003B604FF0100B00232A462146DAF80000C1
:109EE000CDF800B008F084FF08BB0EB1C6F800B092
:109EF0002B68224A934224D166B15FB13B4621468A
:109F0000DAF8000018AA09F099F880B93B683268BD
:109F10009B1A3B60D5E90223DDE90310834208BFA9
:109F20008A4216D0A4F50624A4F6FF4499E7144B00
:109F3000984206D01233984203D0133B9842E9D09E
:109F400030E72146DAF8000009F0BEF80028E1D039
:109F5000AFE7029B13B16B68012B03D0349B1C60ED
:109F6000002021E76FF084001EE700BF715600203B
:109F700000710800BC330020DC330020105D175E48
:109F8000FFDF00F0006D0800E01000202DE9F04F29
:109F900087B08246894698461646DDF840B02AB119
:109FA000002B4ED040F26C739A424DD8BBF1010F9A
:109FB0004DD8002406F110073946012005942CF0F5
:109FC0003AFB0546002845D021463A4632F055FD79
:109FD00005ABCDE9014300942B460122504649468A
:109FE000FFF7BCFE044680B110F18C0F08BF6FF084
:109FF0008D043A460021284632F03FFD28462CF0D9
:10A000002BFB204607B0BDE8F08F144BC5E902A931
:10A010002B60C5F804B02EB13246414605F1100060
:10A0200032F004FD0E483B462A460599006808F0C8
:10A0300047FE18B90598FFF751FEDAE76FF0910473
:10A04000D7E76FF08604DCE76FF09104D9E76FF093
:10A050008504D6E76FF08C04D3E700BF105D175E70
:10A06000E01000202DE9F0438DB08146DDE9147841
:10A070000C4615461E469BB1B8F1000F05D16FF096
:10A08000860420460DB0BDE8F083002FF7D0B7F16D
:10A09000005FF4D3C3F1005303F580239F42EED851
:10A0A0001022002108A832F0E8FC002207AB02933E
:10A0B00005AB019306AB21460093484608ABCDE9BA
:10A0C0000522FFF74BFE04460028DAD10599DEB1E0
:10A0D000A94203D80029D2D115B1D0E70029FBD07D
:10A0E000491BB14228BF3146069B0948C8F80010F9
:10A0F00000913A46079900682B4408F079FE002841
:10A1000018BF6FF09104BCE7A942E9D2B7E700BFDE
:10A11000E010002030B58DB00C460546102200211D
:10A1200008A832F0AAFC002207AB029305AB01930A
:10A1300006AB21460093284608ABCDE90522FFF780
:10A140000DFE0446D0B9099B012B1AD0104B07997C
:10A15000186808F0B9FFB8B9012207980D49A0F5B1
:10A160000623A3F550635B0900F01F05AA4051F8D0
:10A1700023506A4041F82320FFF7CCFD20460DB064
:10A1800030BD6FF08404F9E76FF09104F6E700BF8B
:10A19000E0100020BC33002030B5048804F4E04314
:10A1A000B3F5005F34D1C4F30223042B30D181F026
:10A1B000AA6383F4807333F47E1309D081F0AA6319
:10A1C00083F4007333F47E130CBF0123002300E0FB
:10A1D00001230BB1C1F30543164D21F47E11A942B1
:10A1E00021D1B4F5105F1ED14188B1F5807F03D035
:10A1F00021F04001802919D1191F0C2916D8DB073D
:10A2000014D4073A062A8CBF6FF08600002030BDB8
:10A2100042F204039C4204D181F0052383F48013AD
:10A22000D0E70023D5E76FF08500F0E76FF08600F8
:10A23000EDE700BF000140052DE9F04F2DED028B49
:10A2400099B08146DDE9287608EE102A1D468B4636
:10A25000DDF8A880DDF8BCA041B138B1249B2BB15A
:10A26000269B0BB9279B0BB91FB94EB16FF0860423
:10A2700086E02EB1B8F1000FF8D02B9B002BF5D063
:10A280002C9B002BF2D0BAF1000FEFD02E9B002BAD
:10A29000ECD02D9B002BE9D0B9F8003003F4E0425C
:10A2A000B2F5005F72D1C3F30222042A6ED185F0A9
:10A2B000AA6383F4807333F47E1309D085F0AA6314
:10A2C00083F4007333F47E130CBF0123002300E0FA
:10A2D00001230BB1C5F3054329464846259ACAF820
:10A2E0000030FFF759FF0446002849D120220146DB
:10A2F0000DEB020032F0C1FB2022214610A832F003
:10A30000BCFB08A829F0CCFC002858D118EE102A74
:10A310005946484610AB00F0D3FA044600282FD126
:10A320002B9B9E424ED8DAF800302E9A934249D8A1
:10A33000474508D2BB19984505D2394632464046B2
:10A3400032F081FB4746214B25F47E159D4228D1F2
:10A35000DAF80030324606932D9B0397CDE904834B
:10A36000279B10A90293269B08A80193259B009385
:10A37000249BFFF7AFFA21281BD0E8B92C9B1E6065
:10A38000204619B0BDEC028BBDE8F08F42F204020A
:10A39000934204D185F0052383F4801392E70023D0
:10A3A00097E76FF0880400232C9A1360CAF80030F6
:10A3B000E6E76FF08604F6E76FF09204F3E76FF0DC
:10A3C0009204DDE76FF08904DAE700BF0001400581
:10A3D0002DE9F04F99B08A46DDE926659346984607
:10A3E00081462A9F28B96FF08604204619B0BDE83F
:10A3F000F08F0029F7D0229B002BF4D0249B13B9B7
:10A40000259B002BEFD10EB9002DECD117B92B9B5A
:10A41000002BE8D12C9B002BE5D0289B002BE2D011
:10A4200041464846239AFFF7B7FE04460028DCD190
:10A43000202201460DEB020032F01FFB20222146B4
:10A4400010A832F01AFB08A829F02AFC10B16FF00E
:10A450009204CAE75A465146484610AB00F030FA1B
:10A4600004460028C1D12B9B9D422AD8BE4208D267
:10A4700073199F4205D231462A46384632F0E3FA34
:10A480003E46144B28F47E1898451DD1299B2A4638
:10A490000693289B0396CDE90473259B10A902938C
:10A4A000249B08A80193239B0093229BFFF7C8FAE3
:10A4B000212898D02C280AD00028C8D12C9B1D60B8
:10A4C00093E76FF0890490E76FF088048DE76FF0F1
:10A4D00094048AE700014005084B984202D0084BDB
:10A4E000984207D10B88B3F5105F0CBF00206FF0C6
:10A4F000850070476FF08500704700BF004440043E
:10A500000013C0042DE9F04F98460023A3B0824603
:10A51000DDE92E75DDE93069CDE90633CDE9083393
:10A52000CDE90A33CDE90C33DDF8C8B005920491CA
:10A53000002900F0E580002A00F0E28017B9002D24
:10A5400040F0DE802C9B1BB92D9B002B40F0D88067
:10A550001EB9B9F1000F40F0D380BBF1000F00F03D
:10A56000CF8051464046FFF7B7FF044678B9014611
:10A57000202212A832F081FA202221461AA832F0B5
:10A580007CFA12A829F08CFB28B16FF092042046C7
:10A5900023B0BDE8F08F5046DDE904121AAB00F09D
:10A5A0008FF904460028F2D11A9829F0CCFE04460F
:10A5B0000028ECD115B9CBF80000E8E7B7420BD280
:10A5C0007B199E4208D24D4500F29A8039462A46B0
:10A5D000304632F038FA37464F4B98451BD003F5DA
:10A5E0004073984517D04D4B984540F08C804D45B1
:10A5F00000F2868015F00F0240F082802B46CDE9F4
:10A6000000761AA912A8FFF73BF80746002846D1A2
:10A61000CBF80050BBE700234D45CDE90E33CDE923
:10A6200010336DD83E4B98452D9B46D10D2B67D1ED
:10A6300001238DF838302C9B0DF1390203F10C0108
:10A6400053F8040B8B4242F8040BF9D11B781370BA
:10A6500001238DF8473015F00F0825F00F0A55D06B
:10A6600007EB0A030DF1280C03F1100E624618687F
:10A670005968083303C273459446F7D1BAF1000F05
:10A680002ED006AB01930EABCDE902760093524675
:10A6900000231AA912A8FFF74BF80746E8B14A466B
:10A6A0000021304632F0E9F90023012FCBF80030C9
:10A6B0007FF46BAF6FF08B0469E7102B20D12C9BDC
:10A6C0000DF1380C03F1100E624618685968083312
:10A6D00003C273459446F7D1BDE7B8F1000F97D098
:10A6E0000AAB029306AB06EB0A0201930EAB039290
:10A6F0000093424600231AA912A8FFF719F884E72D
:10A700006FF0860443E76FF0850440E7BAF1000F6D
:10A710003FF47EAFB5E700BF0010C0040044400422
:10A720000013C0042DE9F04F994600239FB08246E4
:10A73000DDE92865DDE92A78CDE90633CDE908337E
:10A74000CDE90A33CDE90C33DDF8B0B005920491C0
:10A7500029B96FF0860420461FB0BDE8F08F059B35
:10A76000002BF6D00EB9002DF3D117B9B8F1000FB8
:10A77000EFD1BBF1000FECD051464846FFF7ACFEDD
:10A7800004460028E7D1014620220EA832F075F9D0
:10A790002022214616A832F070F90EA829F080FA7E
:10A7A000002844D1DDE90412504616AB00F088F8C9
:10A7B00004460028CFD1169829F0C5FD044600288C
:10A7C000C9D115B9CBF80000C5E7BE420AD273194A
:10A7D0009F4207D24545BCD831462A46384632F01A
:10A7E00032F93E46344B99454BD003F540739945B9
:10A7F00020D0324B994556D1454557D82B07A8D183
:10A800002B460122CDE9006716A90EA8FEF738FFF6
:10A810000646CBF8005000289DD04246002138461D
:10A8200032F02BF90023012ECBF8003041D06FF02D
:10A83000920490E70D3D454538D801238DF8283026
:10A8400033460DF1290206F10C0153F8040B8B423B
:10A8500042F8040BF9D11B780D36137000238DF8E4
:10A86000363001238DF8373006AB01930AAB0093E5
:10A870002A460023CDE9026716A90EA8FEF758FF65
:10A88000C6E7103D454511D833460DF1280C06F1B9
:10A89000100E624618685968083303C2734594461F
:10A8A000F7D11036E0E76FF0850454E76FF08904C4
:10A8B00051E76FF08B044EE70010C00400444004E1
:10A8C0002DE9F041154600221C4643688AB01B0A58
:10A8D00007460E46019204D0012B3CD06FF08B004E
:10A8E00078E022462946019529F056FD002871D1CD
:10A8F0000335C4E9030625F003056561019D002CBD
:10A9000000F0C680002D00F0C3802022002102A8A4
:10A9100032F0B3F82946384602AA29F03DFD002856
:10A9200040F0B6802368029A9A4240F0B180636892
:10A93000039A9A4240F0AC80A368049A9A4240F08D
:10A94000A780A369089A9A4240F0A280E369099A15
:10A950009A423FD09CE0032D40F29F8091F8008006
:10A96000B8F1010F40F0A3804978002979D0F73978
:10A970000829B3D801A353F821F000BF13AA000897
:10A98000DBA90008DDA80008F7A90008DDA8000879
:10A99000A1A90008DDA800082FAA000849AA0008FC
:10A9A0001C22002103A832F068F8424B4FF41050EB
:10A9B00002930323CDE90403FC2306930AAD02AB03
:10A9C0001A4603CAAA4220606160134604F10804D3
:10A9D000F6D100200AB0BDE8F0811C22002103A8B6
:10A9E00032F04BF8334B4FF4105202930323CDE96E
:10A9F0000423F823E1E71C22002103A832F03DF8EC
:10AA000010234FF0807E02930323CDE904E3FA2361
:10AA1000D3E71C22002103A832F02FF820234FF0A7
:10AA2000007702930323CDE90473F723C5E71C22C3
:10AA3000002103A832F021F81E4B1F4D029303237F
:10AA4000CDE90453FE23B8E700211C2203A832F00D
:10AA500014F8184B194902930323CDE90413FF237B
:10AA6000ABE72B2D19D92022204632F006F8736867
:10AA7000103D2360B3681036636056F8043C2046EE
:10AA8000C4E902382661656101A929F018F938B1D5
:10AA900020220021204631F0F0FF6FF0860099E778
:10AAA000019B62691C339A42BFF428AFF0E76FF054
:10AAB00091008FE720000080004400020044000362
:10AAC00007B5094B18689A889B7900906846ADF8DD
:10AAD00004208DF80630FEF7DFF80920FEF714F9A0
:10AAE000002003B05DF804FBA0CC030813B50024DC
:10AAF000064A6846536F43F00103536700948DF88C
:10AB00000440FEF707F8204602B010BD0040005098
:10AB100030B58BB06C46174D0FCD0FC40FCD0FC4A1
:10AB200095E8030084E80300134BD3F84C2112038B
:10AB300017D4D3F85041E4B28DF81940FDF79CFECC
:10AB4000204480F308008DF818000C48FCF7CEFA7A
:10AB50006846FDF767FD3220FDF708FF00200BB0C7
:10AB600030BD074B1C884FF6FF739C4208BF5F2423
:10AB7000E2E700BFA8CC03080080E00FC017530233
:10AB80000001E00F30B5094D87B001AC0FCD0FC407
:10AB90002B6801A823602C238DF80530FDF7A2FE59
:10ABA0006420FDF7DDFE002007B030BDD0CC0308E7
:10ABB0006FF00402502110B50A480B4C12F0800FC0
:10ABC000D3B21BBF03F00F03043BA3181B1802F101
:10ABD00001020CBF83F8001319764C2AEED1002035
:10ABE00010BD00BF00ED00E000E100E038B502F06C
:10ABF00035FF0446F0B903F09BF903F00FF84FF46A
:10AC0000167343430C4803F5742303F23F23B3FB4D
:10AC1000F0F30A4A0A4913600A220D680948013A0A
:10AC200012F0FF0240F8043BF9D103EBC3022B44BE
:10AC300013440B60204638BD40420F0030340020E2
:10AC40000034002004340020012208B5034B1A70A0
:10AC50002AF084F8024B186008BD00BF725600202D
:10AC60002C34002010B502F0D9FF044628F05FFD17
:10AC7000844207D92AF07EF820B10122024B1860E5
:10AC8000024B1A7010BD00BF2C34002072560020F9
:10AC9000F8B51C4C2378D3B12AF060F81A4B1B4D41
:10ACA0001B68C01A012838BF0120286002F0B6FFD7
:10ACB0004FF416735843164B00F5742000F23F20F2
:10ACC000B0FBF3F02968814202D900232370F8BD5C
:10ACD000104D114E2B78114F56F8232046F82310B3
:10ACE000501A0A213A680133121A3A600932B2FB4B
:10ACF000F1F20B48DBB20260B3FBF1F201FB12335D
:10AD00002B70E2E7725600202C340020FC33002028
:10AD100040420F007356002004340020003400200D
:10AD200030340020014B1868704700BF30340020D9
:10AD300020234FF48012042110B50F4C0F4884F8E3
:10AD40002C330F4B5A660F4B03F500525067516777
:10AD5000106711674FF48052C4F8842162609A181A
:10AD6000506751679A6A22F000729A629A6A42F4B6
:10AD700080529A6210BD00BF00E100E0010000A017
:10AD8000009000500040005A044B9A6D12F0050FDD
:10AD900002D10028F9D17047012070470040005AC5
:10ADA000154B10B51C6F14F004020FD003F50053BF
:10ADB0001A6708229A62FFF755FF02F08BFB02F038
:10ADC0006BFB012003F058F829F0D6FFE30706D506
:10ADD00001220A4B1A67FFF75BFF02F05DFB14F0DC
:10ADE00000521CBF054B1A67002CBEBF4FF000423B
:10ADF000024B1A6710BD00BF0040005A0060005AA5
:10AE000010B5044628F0A6FD024B1C6028F0A6FDF4
:10AE1000002010BD3434002010B528F09BFD034BFA
:10AE20001C6828F09BFD204610BD00BF3434002074
:10AE300013B513460C4618B90192FFF7EDFF019BBD
:10AE400001462246044806F09BFC0028D4BF372068
:10AE5000002002B010BD00BF0547030810B5002454
:10AE600000F024F80348044B84604360FFF7C8FFF8
:10AE7000204610BD383400207DAE000813B5064CC6
:10AE800023780093054B1B8829F059FC10B92378CF
:10AE90000133237002B010BD74560020F415002059
:10AEA000014B188000207047F415002008B5074BAF
:10AEB0001A6842B9012208201A6028F091FC04495E
:10AEC000044802F0AFF9002008BD00BF4C34002058
:10AED000181100204434002030B51446054687B0D0
:10AEE000104629F08BFC6369024683423CBFD4E9DB
:10AEF00003315B181B1A7BB10F49284603910021CF
:10AF0000CDE90131012304940093D4E9001328F022
:10AF10009DFC002007B030BD0122627694F82D2000
:10AF2000002AF6D084F835301321E369204698478B
:10AF30002046636A9847ECE7D9AE00082DE9F04750
:10AF400088B0044688461746994628F012FD824686
:10AF5000002F7AD0237E03F0FF02002B00F0A280A6
:10AF6000204629F04BFC6669B04205D1637ED4E9E6
:10AF700003521544AD1B01E0F9D9851BBD4228BF22
:10AF80003D4628F0F6FC94F82D300646002B6DD196
:10AF90002A464046616931F049FD63692F462B44DA
:10AFA000636121E0037803F0FD0111295BD1216B7E
:10AFB000814205D1A3F111014B424B4184F8343059
:10AFC000013F6369216B01328B4203F1010308BF2A
:10AFD0002363636195426069E4D1D4E90323216B63
:10AFE0001344994200D122630025D4E90323616907
:10AFF0001344994208BF6261207A6576FCF704FD2C
:10B00000204629F0FBFB6369834232D1257694F810
:10B010002D30E568656103B125632046636A984772
:10B02000214B2A460393002302932369216801934D
:10B030000123207A00930494636828F007FC207AA7
:10B04000FCF702FD304628F09AFC5046C9F8007023
:10B0500028F095FCD9F80030002B0CBF1B200020F5
:10B0600008B0BDE8F08708F8013BAAE72F460022A8
:10B07000B0E70123207A23760DF11E01FCF74CFD89
:10B080009DF81E30002BDAD00DF11F01207AFCF75D
:10B090001BFD9DF81F100029D1D12246207AFFF711
:10B0A0001BFFCCE71746D0E7D9AE0008002808DB25
:10B0B0000123420900F01F0003FA00F0014B43F89E
:10B0C0002200704700E100E0002809DB012243096B
:10B0D00000F01F0002FA00F0024A603342F8230039
:10B0E000704700BF00E100E070B504460568FFF757
:10B0F00093FE844202D10020FFF782FE95F93600CC
:10B10000FFF7E2FF95F93630002B0DDB01215A09DC
:10B1100003F01F0301FA03F31849203241F82230EB
:10B12000BFF34F8FBFF36F8F95F93700FFF7CCFF59
:10B1300095F93730002B0DDB01215A0903F01F036D
:10B1400001FA03F30D49203241F82230BFF34F8F4B
:10B15000BFF36F8F287AFCF797FC287AFCF7FAFB8D
:10B16000FCF7D6FB00232846C4E90033C4E90433C6
:10B17000A360AB6ABDE87040184700BF00E100E083
:10B180002DE9F0410C461546064686B040220021C6
:10B1900020461F4631F071FC95E8030000232A6920
:10B1A0002376EB6884E80300C4E904232A7DE36086
:10B1B00084F82C20AA7D2363012384F8343084F89A
:10B1C00035300C9B84F82D2023620D9BE761636270
:10B1D0000E9BA3622B7A84F836306B7A84F8373072
:10B1E0002D4B346073602D4BB3602D4B33612D4B71
:10B1F00073612D4BF360FCF7D3FB38B12B4B9842B6
:10B2000004D01024204606B0BDE8F081002104F1EE
:10B210000800FCF74DFB07460028F2D14FF001086B
:10B22000234B3362234B84F83C80B361224BF361A0
:10B230009DF8403084F8390084F83B309DF83C306C
:10B24000204684F83A30697D84F8388029F0E6FA9F
:10B2500095F90900FFF738FF95F90900FFF726FF78
:10B26000164B0494CDE902732369CDE9008363682A
:10B27000E2682168207A28F0E9FA04460028C0D163
:10B2800095F90800FFF720FF95F90800FFF70EFF7A
:10B290003046FFF7B5FDB5E76D4803083DAF000840
:10B2A000EB470308F1470308E9B00008038000F00A
:10B2B000C14703081D480308F7470308D9AE000833
:10B2C0002DE9F04101271C465C4B86B002935C4B94
:10B2D0000C9D01935B4B904600930A46CDE90377A2
:10B2E0002946594BFFF74CFF0646002840F0818065
:10B2F000236839462B6463683A206B64637A85F867
:10B300004930237A85F84830E37A85F84B30A37AC0
:10B3100085F84A30637B85F84D30237B85F84C30C7
:10B32000E37B85F84F30A37B85F84E30FCF728FF90
:10B330003B460422617A207AFDF742FD3B46022219
:10B34000E17AA07AFDF73CFD39466068FCF718FF0A
:10B3500088F8006041462068FDF71EFF1420617CDC
:10B360003A4B01F1390252019850607A227A03EB8C
:10B37000411342EA0042C3F83827E17AA27A42EA4E
:10B380000142C3F8302785F8506098F81930032B34
:10B3900052D8DFE803F01F02324C0123002785F862
:10B3A000503000230222617B207BFDF709FD617B89
:10B3B000227B637C42EA014241F228715B0103F186
:10B3C000A04303F570335A500422236803F58053D9
:10B3D000DA65AFB9237A2A6C85F84830637A05219B
:10B3E00085F84930D36C206843F00403D36428F017
:10B3F0004AFB304606B0BDE8F081022385F85030A4
:10B4000000230422E17BA07BFDF7DAFC0220617CB3
:10B410000E4B01F1B9025201985003EB411341F276
:10B420002C71E07BA27B42EA00425A50D2E7032310
:10B43000012785F85030B4E72326DAE79749030857
:10B440008B490308234A0308174A030800C0035026
:10B4500010B51C46044B18682CF02AF9002820600F
:10B460000CBF1B20002010BD2011002013B5064C7E
:10B4700023780093112329F062F910B9237801335E
:10B48000237002B010BD00BF9556002010B5FFF725
:10B490000DFD0F4C20602CF019F920220D490123DD
:10B4A0000D4806F0EFF90D4B18600D4B2046636018
:10B4B0000C4BA360FFF7A4FC28F04CFA01210446D2
:10B4C000084601F01DFE204628F048FA002010BD75
:10B4D0005034002075560020EACC030820110020CB
:10B4E0006DB4000851B4000800F0FD03112B05D025
:10B4F000182B03D0A0F17D03012B07D80122044BA8
:10B5000080F020001A70034B18707D20704700BF38
:10B510009D5600209E560020F8B50E461446204B3E
:10B5200000B3204A2049107000221A7022700A705D
:10B530004FF6FF721D4B1A801B4D2B78EBB91B4F3A
:10B540003046398829F04CFB164A38801378013B85
:10B55000DBB213706BB901232B703046BDE8F840A5
:10B56000FFF7C2BF1A78002AE6D01870104B18787F
:10B57000F8BD237801332370EFE7012B05D10223B7
:10B580002B700A4B1888000AE8E7022B04D103232A
:10B590002B70064B1878E1E7FF237E202370E7E746
:10B5A0009D5600209C5600209F5600204A4F0020A8
:10B5B0009E5600202DE9F047394E884633781746CD
:10B5C0005BB9384A1370384A1370384A1370384AD6
:10B5D00013704FF6FF72374B1A807D284FD02CD84E
:10B5E000182850D01A2852D00022314B2D4D1C78EB
:10B5F0001A702B78DFF8B490DF2B9CBF01332B70CF
:10B600002B784440022B12D9DFF8A8A099F800004B
:10B61000BAF8001029F0E4FA2B78AAF80000DF2B22
:10B620009FBF99F80020023B88F800203B701E4B1A
:10B630001A781C7089F8002006E07E28D4D1194BB6
:10B640001B781BB91A4A1370202011E0FF2B20D061
:10B65000184A1188154A1078134A127802EB002212
:10B66000914218D1022B18D9DF2B8CBF7A200020F1
:10B67000A0F12002534253413370BDE8F0872020EF
:10B680000B4B1870F4E7FF22064B1A70DCE77420AE
:10B69000EEE77720ECE77620EAE77920E8E700BFDD
:10B6A000965600209B560020985600209956002060
:10B6B0009A560020484F002008B529F020FA044B84
:10B6C00008B1188008BD4FF6FF721A80FAE700BF74
:10B6D000464F002010B5074C208850B129F00FFAD2
:10B6E0002388C01A044B00B21B889842B4BF0020C4
:10B6F000012010BD464F0020444F00204FF07E62D5
:10B700004FF6FF732DE9F041B2F84670B2F844608D
:10B71000154D9F4208BF4FF448679E4208BF4FF443
:10B72000C8762C88DFF8448050B164002C802B88C8
:10B73000BB4215D92F800023A8F80030BDE8F08166
:10B74000B8F80030002BF2D029F0D9F9B8F8003061
:10B75000C4EBC404C01A80B204EB8004E408E5E73B
:10B76000B34238BF2E80E6E7444F0020464F00200A
:10B7700008B529F0C4F94FF07E634FF6FF72B3F8B5
:10B780005430934208BF4FF47A73184410F47F6F1B
:10B79000C0F3071208BFFF22014B1A7008BD00BF9B
:10B7A0009756002010B5084C237843B129F0A7F92B
:10B7B0002378C3EB101003065CBF002323702078AE
:10B7C000B0FA80F0400910BD9756002007B502F08E
:10B7D0000BFA6A4602F06EFA18B15221034800F0E3
:10B7E0006DFBDDE9000103B05DF804FB00CD03084B
:10B7F00008B502F033F918B17A21024800F05EFB77
:10B80000002008BD00CD030808B500F08BFA0E4AF1
:10B81000536A43F470235362EFF308834FF0CD3142
:10B820000A4A043B93420BD20222094B1A6700F0EA
:10B83000DDFCFFF7DDFFBDE808400648FDF702BE6E
:10B8400043F80419EEE700BF00ED00E0000000201F
:10B85000004000501CCC030807B5042200200DEB6B
:10B8600002012CF06CFC042804D040F2671104485B
:10B8700000F024FB019800F065FC03B05DF804FBC8
:10B8800000CD0308102870B522D00DD8032801D9A7
:10B89000002070BD013802281AD8DFE800F0021736
:10B8A0002F000023022215E02038C3B2032BEFD86B
:10B8B0000328EDD801A353F820F000BFA3B8000877
:10B8C000CDB80008FDB80008F9B800080123E9E781
:10B8D000002303220B490C4D0C680021C8B284429E
:10B8E000D6D955F8200028B1067A964202D1467A78
:10B8F0009E42CED00131F1E70323D3E702231A465B
:10B90000E8E700BF10CB0308A010002010B5FFF738
:10B91000B9FF044630B1037A022B03D103680BB19F
:10B920001B6823B940F23321064800F0C7FA2368A8
:10B930001B681B6C986900F44830A0F5005358420E
:10B94000584110BD00CD0308082310B548400A0A2D
:10B950000649C0B200F00104400804B14840013B70
:10B9600013F0FF03F6D1504010BD00BF2083B8EDA7
:10B970002DE9F0470025144C144FDFF85890DFF8FC
:10B98000588022464946002057F8043BEEB228F082
:10B99000C2FE2378A2460134002BFAD19AF8013076
:10B9A0007BB10B4906F00306032E08BF4146002079
:10B9B00028F0B1FE9AF801300135002BE1D1BDE845
:10B9C000F0874146F3E700BFACDA0308001000201F
:10B9D00063CD030866CD0308F5D0030840F60522C1
:10B9E0006A4B2DE9F0411B8893420ED8B3F5206FC6
:10B9F0000DD840F20252934218D040F201729342A5
:10BA000020D040F2015293420AD0BDE8F081A3F663
:10BA100002235F4C032B1ED8DFE803F0376396B296
:10BA20005C490020BDE8F04128F075BE00205A496D
:10BA300028F071FE564B1A6C0020BDE8F0415749C2
:10BA400028F069BE524A0020D2E92523BDE8F04122
:10BA5000534928F060BE0020524928F05CFE94F85B
:10BA60006C309E0703D500204F4928F054FE94F80F
:10BA70006F305D0603D500204C4928F04CFE94F948
:10BA80006F30002BC1DA4A49CBE70020494928F042
:10BA900042FE94F86830980704D00020226C3F4999
:10BAA00028F039FE94F96830002B04DA0020626F28
:10BAB000414928F030FE00250126404FDFF808817B
:10BAC000A26E06FA05F3134207D057F82520137823
:10BAD0001BB14146002028F01EFE0135082DEFD194
